{
  "_format": "hh-sol-artifact-1",
  "contractName": "EntryPoint",
  "sourceName": "contracts/core/EntryPoint.sol",
  "abi": [
    {
      "inputs": [
        {
          "internalType": "uint256",
          "name": "preOpGas",
          "type": "uint256"
        },
        {
          "internalType": "uint256",
          "name": "paid",
          "type": "uint256"
        },
        {
          "internalType": "uint64",
          "name": "validAfter",
          "type": "uint64"
        },
        {
          "internalType": "uint64",
          "name": "validBefore",
          "type": "uint64"
        }
      ],
      "name": "ExecutionResult",
      "type": "error"
    },
    {
      "inputs": [
        {
          "internalType": "uint256",
          "name": "opIndex",
          "type": "uint256"
        },
        {
          "internalType": "address",
          "name": "paymaster",
          "type": "address"
        },
        {
          "internalType": "string",
          "name": "reason",
          "type": "string"
        }
      ],
      "name": "FailedOp",
      "type": "error"
    },
    {
      "inputs": [
        {
          "internalType": "address",
          "name": "sender",
          "type": "address"
        }
      ],
      "name": "SenderAddressResult",
      "type": "error"
    },
    {
      "inputs": [
        {
          "internalType": "address",
          "name": "aggregator",
          "type": "address"
        }
      ],
      "name": "SignatureValidationFailed",
      "type": "error"
    },
    {
      "inputs": [
        {
          "components": [
            {
              "internalType": "uint256",
              "name": "preOpGas",
              "type": "uint256"
            },
            {
              "internalType": "uint256",
              "name": "prefund",
              "type": "uint256"
            },
            {
              "internalType": "bool",
              "name": "sigFailed",
              "type": "bool"
            },
            {
              "internalType": "uint64",
              "name": "validAfter",
              "type": "uint64"
            },
            {
              "internalType": "uint64",
              "name": "validUntil",
              "type": "uint64"
            },
            {
              "internalType": "bytes",
              "name": "paymasterContext",
              "type": "bytes"
            }
          ],
          "internalType": "struct IEntryPoint.ReturnInfo",
          "name": "returnInfo",
          "type": "tuple"
        },
        {
          "components": [
            {
              "internalType": "uint256",
              "name": "stake",
              "type": "uint256"
            },
            {
              "internalType": "uint256",
              "name": "unstakeDelaySec",
              "type": "uint256"
            }
          ],
          "internalType": "struct IStakeManager.StakeInfo",
          "name": "senderInfo",
          "type": "tuple"
        },
        {
          "components": [
            {
              "internalType": "uint256",
              "name": "stake",
              "type": "uint256"
            },
            {
              "internalType": "uint256",
              "name": "unstakeDelaySec",
              "type": "uint256"
            }
          ],
          "internalType": "struct IStakeManager.StakeInfo",
          "name": "factoryInfo",
          "type": "tuple"
        },
        {
          "components": [
            {
              "internalType": "uint256",
              "name": "stake",
              "type": "uint256"
            },
            {
              "internalType": "uint256",
              "name": "unstakeDelaySec",
              "type": "uint256"
            }
          ],
          "internalType": "struct IStakeManager.StakeInfo",
          "name": "paymasterInfo",
          "type": "tuple"
        }
      ],
      "name": "ValidationResult",
      "type": "error"
    },
    {
      "inputs": [
        {
          "components": [
            {
              "internalType": "uint256",
              "name": "preOpGas",
              "type": "uint256"
            },
            {
              "internalType": "uint256",
              "name": "prefund",
              "type": "uint256"
            },
            {
              "internalType": "bool",
              "name": "sigFailed",
              "type": "bool"
            },
            {
              "internalType": "uint64",
              "name": "validAfter",
              "type": "uint64"
            },
            {
              "internalType": "uint64",
              "name": "validUntil",
              "type": "uint64"
            },
            {
              "internalType": "bytes",
              "name": "paymasterContext",
              "type": "bytes"
            }
          ],
          "internalType": "struct IEntryPoint.ReturnInfo",
          "name": "returnInfo",
          "type": "tuple"
        },
        {
          "components": [
            {
              "internalType": "uint256",
              "name": "stake",
              "type": "uint256"
            },
            {
              "internalType": "uint256",
              "name": "unstakeDelaySec",
              "type": "uint256"
            }
          ],
          "internalType": "struct IStakeManager.StakeInfo",
          "name": "senderInfo",
          "type": "tuple"
        },
        {
          "components": [
            {
              "internalType": "uint256",
              "name": "stake",
              "type": "uint256"
            },
            {
              "internalType": "uint256",
              "name": "unstakeDelaySec",
              "type": "uint256"
            }
          ],
          "internalType": "struct IStakeManager.StakeInfo",
          "name": "factoryInfo",
          "type": "tuple"
        },
        {
          "components": [
            {
              "internalType": "uint256",
              "name": "stake",
              "type": "uint256"
            },
            {
              "internalType": "uint256",
              "name": "unstakeDelaySec",
              "type": "uint256"
            }
          ],
          "internalType": "struct IStakeManager.StakeInfo",
          "name": "paymasterInfo",
          "type": "tuple"
        },
        {
          "components": [
            {
              "internalType": "address",
              "name": "actualAggregator",
              "type": "address"
            },
            {
              "components": [
                {
                  "internalType": "uint256",
                  "name": "stake",
                  "type": "uint256"
                },
                {
                  "internalType": "uint256",
                  "name": "unstakeDelaySec",
                  "type": "uint256"
                }
              ],
              "internalType": "struct IStakeManager.StakeInfo",
              "name": "stakeInfo",
              "type": "tuple"
            }
          ],
          "internalType": "struct IEntryPoint.AggregatorStakeInfo",
          "name": "aggregatorInfo",
          "type": "tuple"
        }
      ],
      "name": "ValidationResultWithAggregation",
      "type": "error"
    },
    {
      "anonymous": false,
      "inputs": [
        {
          "indexed": true,
          "internalType": "bytes32",
          "name": "userOpHash",
          "type": "bytes32"
        },
        {
          "indexed": true,
          "internalType": "address",
          "name": "sender",
          "type": "address"
        },
        {
          "indexed": false,
          "internalType": "address",
          "name": "factory",
          "type": "address"
        },
        {
          "indexed": false,
          "internalType": "address",
          "name": "paymaster",
          "type": "address"
        }
      ],
      "name": "AccountDeployed",
      "type": "event"
    },
    {
      "anonymous": false,
      "inputs": [
        {
          "indexed": true,
          "internalType": "address",
          "name": "account",
          "type": "address"
        },
        {
          "indexed": false,
          "internalType": "uint256",
          "name": "totalDeposit",
          "type": "uint256"
        }
      ],
      "name": "Deposited",
      "type": "event"
    },
    {
      "anonymous": false,
      "inputs": [
        {
          "indexed": false,
          "internalType": "address",
          "name": "aggregator",
          "type": "address"
        }
      ],
      "name": "SignatureAggregatorChanged",
      "type": "event"
    },
    {
      "anonymous": false,
      "inputs": [
        {
          "indexed": true,
          "internalType": "address",
          "name": "account",
          "type": "address"
        },
        {
          "indexed": false,
          "internalType": "uint256",
          "name": "totalStaked",
          "type": "uint256"
        },
        {
          "indexed": false,
          "internalType": "uint256",
          "name": "withdrawTime",
          "type": "uint256"
        }
      ],
      "name": "StakeLocked",
      "type": "event"
    },
    {
      "anonymous": false,
      "inputs": [
        {
          "indexed": true,
          "internalType": "address",
          "name": "account",
          "type": "address"
        },
        {
          "indexed": false,
          "internalType": "uint256",
          "name": "withdrawTime",
          "type": "uint256"
        }
      ],
      "name": "StakeUnlocked",
      "type": "event"
    },
    {
      "anonymous": false,
      "inputs": [
        {
          "indexed": true,
          "internalType": "address",
          "name": "account",
          "type": "address"
        },
        {
          "indexed": false,
          "internalType": "address",
          "name": "withdrawAddress",
          "type": "address"
        },
        {
          "indexed": false,
          "internalType": "uint256",
          "name": "amount",
          "type": "uint256"
        }
      ],
      "name": "StakeWithdrawn",
      "type": "event"
    },
    {
      "anonymous": false,
      "inputs": [
        {
          "indexed": true,
          "internalType": "bytes32",
          "name": "userOpHash",
          "type": "bytes32"
        },
        {
          "indexed": true,
          "internalType": "address",
          "name": "sender",
          "type": "address"
        },
        {
          "indexed": true,
          "internalType": "address",
          "name": "paymaster",
          "type": "address"
        },
        {
          "indexed": false,
          "internalType": "uint256",
          "name": "nonce",
          "type": "uint256"
        },
        {
          "indexed": false,
          "internalType": "bool",
          "name": "success",
          "type": "bool"
        },
        {
          "indexed": false,
          "internalType": "uint256",
          "name": "actualGasCost",
          "type": "uint256"
        },
        {
          "indexed": false,
          "internalType": "uint256",
          "name": "actualGasUsed",
          "type": "uint256"
        }
      ],
      "name": "UserOperationEvent",
      "type": "event"
    },
    {
      "anonymous": false,
      "inputs": [
        {
          "indexed": true,
          "internalType": "bytes32",
          "name": "userOpHash",
          "type": "bytes32"
        },
        {
          "indexed": true,
          "internalType": "address",
          "name": "sender",
          "type": "address"
        },
        {
          "indexed": false,
          "internalType": "uint256",
          "name": "nonce",
          "type": "uint256"
        },
        {
          "indexed": false,
          "internalType": "bytes",
          "name": "revertReason",
          "type": "bytes"
        }
      ],
      "name": "UserOperationRevertReason",
      "type": "event"
    },
    {
      "anonymous": false,
      "inputs": [
        {
          "indexed": true,
          "internalType": "address",
          "name": "account",
          "type": "address"
        },
        {
          "indexed": false,
          "internalType": "address",
          "name": "withdrawAddress",
          "type": "address"
        },
        {
          "indexed": false,
          "internalType": "uint256",
          "name": "amount",
          "type": "uint256"
        }
      ],
      "name": "Withdrawn",
      "type": "event"
    },
    {
      "inputs": [],
      "name": "SIG_VALIDATION_FAILED",
      "outputs": [
        {
          "internalType": "uint256",
          "name": "",
          "type": "uint256"
        }
      ],
      "stateMutability": "view",
      "type": "function"
    },
    {
      "inputs": [
        {
          "internalType": "uint32",
          "name": "_unstakeDelaySec",
          "type": "uint32"
        }
      ],
      "name": "addStake",
      "outputs": [],
      "stateMutability": "payable",
      "type": "function"
    },
    {
      "inputs": [
        {
          "internalType": "address",
          "name": "account",
          "type": "address"
        }
      ],
      "name": "balanceOf",
      "outputs": [
        {
          "internalType": "uint256",
          "name": "",
          "type": "uint256"
        }
      ],
      "stateMutability": "view",
      "type": "function"
    },
    {
      "inputs": [
        {
          "internalType": "address",
          "name": "account",
          "type": "address"
        }
      ],
      "name": "depositTo",
      "outputs": [],
      "stateMutability": "payable",
      "type": "function"
    },
    {
      "inputs": [
        {
          "internalType": "address",
          "name": "",
          "type": "address"
        }
      ],
      "name": "deposits",
      "outputs": [
        {
          "internalType": "uint112",
          "name": "deposit",
          "type": "uint112"
        },
        {
          "internalType": "bool",
          "name": "staked",
          "type": "bool"
        },
        {
          "internalType": "uint112",
          "name": "stake",
          "type": "uint112"
        },
        {
          "internalType": "uint32",
          "name": "unstakeDelaySec",
          "type": "uint32"
        },
        {
          "internalType": "uint64",
          "name": "withdrawTime",
          "type": "uint64"
        }
      ],
      "stateMutability": "view",
      "type": "function"
    },
    {
      "inputs": [
        {
          "internalType": "address",
          "name": "account",
          "type": "address"
        }
      ],
      "name": "getDepositInfo",
      "outputs": [
        {
          "components": [
            {
              "internalType": "uint112",
              "name": "deposit",
              "type": "uint112"
            },
            {
              "internalType": "bool",
              "name": "staked",
              "type": "bool"
            },
            {
              "internalType": "uint112",
              "name": "stake",
              "type": "uint112"
            },
            {
              "internalType": "uint32",
              "name": "unstakeDelaySec",
              "type": "uint32"
            },
            {
              "internalType": "uint64",
              "name": "withdrawTime",
              "type": "uint64"
            }
          ],
          "internalType": "struct IStakeManager.DepositInfo",
          "name": "info",
          "type": "tuple"
        }
      ],
      "stateMutability": "view",
      "type": "function"
    },
    {
      "inputs": [
        {
          "internalType": "bytes",
          "name": "initCode",
          "type": "bytes"
        }
      ],
      "name": "getSenderAddress",
      "outputs": [],
      "stateMutability": "nonpayable",
      "type": "function"
    },
    {
      "inputs": [
        {
          "components": [
            {
              "internalType": "address",
              "name": "sender",
              "type": "address"
            },
            {
              "internalType": "uint256",
              "name": "nonce",
              "type": "uint256"
            },
            {
              "internalType": "bytes",
              "name": "initCode",
              "type": "bytes"
            },
            {
              "internalType": "bytes",
              "name": "callData",
              "type": "bytes"
            },
            {
              "internalType": "uint256",
              "name": "callGasLimit",
              "type": "uint256"
            },
            {
              "internalType": "uint256",
              "name": "verificationGasLimit",
              "type": "uint256"
            },
            {
              "internalType": "uint256",
              "name": "preVerificationGas",
              "type": "uint256"
            },
            {
              "internalType": "uint256",
              "name": "maxFeePerGas",
              "type": "uint256"
            },
            {
              "internalType": "uint256",
              "name": "maxPriorityFeePerGas",
              "type": "uint256"
            },
            {
              "internalType": "bytes",
              "name": "paymasterAndData",
              "type": "bytes"
            },
            {
              "internalType": "bytes",
              "name": "signature",
              "type": "bytes"
            }
          ],
          "internalType": "struct UserOperation",
          "name": "userOp",
          "type": "tuple"
        }
      ],
      "name": "getUserOpHash",
      "outputs": [
        {
          "internalType": "bytes32",
          "name": "",
          "type": "bytes32"
        }
      ],
      "stateMutability": "view",
      "type": "function"
    },
    {
      "inputs": [
        {
          "components": [
            {
              "components": [
                {
                  "internalType": "address",
                  "name": "sender",
                  "type": "address"
                },
                {
                  "internalType": "uint256",
                  "name": "nonce",
                  "type": "uint256"
                },
                {
                  "internalType": "bytes",
                  "name": "initCode",
                  "type": "bytes"
                },
                {
                  "internalType": "bytes",
                  "name": "callData",
                  "type": "bytes"
                },
                {
                  "internalType": "uint256",
                  "name": "callGasLimit",
                  "type": "uint256"
                },
                {
                  "internalType": "uint256",
                  "name": "verificationGasLimit",
                  "type": "uint256"
                },
                {
                  "internalType": "uint256",
                  "name": "preVerificationGas",
                  "type": "uint256"
                },
                {
                  "internalType": "uint256",
                  "name": "maxFeePerGas",
                  "type": "uint256"
                },
                {
                  "internalType": "uint256",
                  "name": "maxPriorityFeePerGas",
                  "type": "uint256"
                },
                {
                  "internalType": "bytes",
                  "name": "paymasterAndData",
                  "type": "bytes"
                },
                {
                  "internalType": "bytes",
                  "name": "signature",
                  "type": "bytes"
                }
              ],
              "internalType": "struct UserOperation[]",
              "name": "userOps",
              "type": "tuple[]"
            },
            {
              "internalType": "contract IAggregator",
              "name": "aggregator",
              "type": "address"
            },
            {
              "internalType": "bytes",
              "name": "signature",
              "type": "bytes"
            }
          ],
          "internalType": "struct IEntryPoint.UserOpsPerAggregator[]",
          "name": "opsPerAggregator",
          "type": "tuple[]"
        },
        {
          "internalType": "address payable",
          "name": "beneficiary",
          "type": "address"
        }
      ],
      "name": "handleAggregatedOps",
      "outputs": [],
      "stateMutability": "nonpayable",
      "type": "function"
    },
    {
      "inputs": [
        {
          "components": [
            {
              "internalType": "address",
              "name": "sender",
              "type": "address"
            },
            {
              "internalType": "uint256",
              "name": "nonce",
              "type": "uint256"
            },
            {
              "internalType": "bytes",
              "name": "initCode",
              "type": "bytes"
            },
            {
              "internalType": "bytes",
              "name": "callData",
              "type": "bytes"
            },
            {
              "internalType": "uint256",
              "name": "callGasLimit",
              "type": "uint256"
            },
            {
              "internalType": "uint256",
              "name": "verificationGasLimit",
              "type": "uint256"
            },
            {
              "internalType": "uint256",
              "name": "preVerificationGas",
              "type": "uint256"
            },
            {
              "internalType": "uint256",
              "name": "maxFeePerGas",
              "type": "uint256"
            },
            {
              "internalType": "uint256",
              "name": "maxPriorityFeePerGas",
              "type": "uint256"
            },
            {
              "internalType": "bytes",
              "name": "paymasterAndData",
              "type": "bytes"
            },
            {
              "internalType": "bytes",
              "name": "signature",
              "type": "bytes"
            }
          ],
          "internalType": "struct UserOperation[]",
          "name": "ops",
          "type": "tuple[]"
        },
        {
          "internalType": "address payable",
          "name": "beneficiary",
          "type": "address"
        }
      ],
      "name": "handleOps",
      "outputs": [],
      "stateMutability": "nonpayable",
      "type": "function"
    },
    {
      "inputs": [
        {
          "internalType": "bytes",
          "name": "callData",
          "type": "bytes"
        },
        {
          "components": [
            {
              "components": [
                {
                  "internalType": "address",
                  "name": "sender",
                  "type": "address"
                },
                {
                  "internalType": "uint256",
                  "name": "nonce",
                  "type": "uint256"
                },
                {
                  "internalType": "uint256",
                  "name": "callGasLimit",
                  "type": "uint256"
                },
                {
                  "internalType": "uint256",
                  "name": "verificationGasLimit",
                  "type": "uint256"
                },
                {
                  "internalType": "uint256",
                  "name": "preVerificationGas",
                  "type": "uint256"
                },
                {
                  "internalType": "address",
                  "name": "paymaster",
                  "type": "address"
                },
                {
                  "internalType": "uint256",
                  "name": "maxFeePerGas",
                  "type": "uint256"
                },
                {
                  "internalType": "uint256",
                  "name": "maxPriorityFeePerGas",
                  "type": "uint256"
                }
              ],
              "internalType": "struct EntryPoint.MemoryUserOp",
              "name": "mUserOp",
              "type": "tuple"
            },
            {
              "internalType": "bytes32",
              "name": "userOpHash",
              "type": "bytes32"
            },
            {
              "internalType": "uint256",
              "name": "prefund",
              "type": "uint256"
            },
            {
              "internalType": "uint256",
              "name": "contextOffset",
              "type": "uint256"
            },
            {
              "internalType": "uint256",
              "name": "preOpGas",
              "type": "uint256"
            }
          ],
          "internalType": "struct EntryPoint.UserOpInfo",
          "name": "opInfo",
          "type": "tuple"
        },
        {
          "internalType": "bytes",
          "name": "context",
          "type": "bytes"
        }
      ],
      "name": "innerHandleOp",
      "outputs": [
        {
          "internalType": "uint256",
          "name": "actualGasCost",
          "type": "uint256"
        }
      ],
      "stateMutability": "nonpayable",
      "type": "function"
    },
    {
      "inputs": [
        {
          "components": [
            {
              "internalType": "address",
              "name": "sender",
              "type": "address"
            },
            {
              "internalType": "uint256",
              "name": "nonce",
              "type": "uint256"
            },
            {
              "internalType": "bytes",
              "name": "initCode",
              "type": "bytes"
            },
            {
              "internalType": "bytes",
              "name": "callData",
              "type": "bytes"
            },
            {
              "internalType": "uint256",
              "name": "callGasLimit",
              "type": "uint256"
            },
            {
              "internalType": "uint256",
              "name": "verificationGasLimit",
              "type": "uint256"
            },
            {
              "internalType": "uint256",
              "name": "preVerificationGas",
              "type": "uint256"
            },
            {
              "internalType": "uint256",
              "name": "maxFeePerGas",
              "type": "uint256"
            },
            {
              "internalType": "uint256",
              "name": "maxPriorityFeePerGas",
              "type": "uint256"
            },
            {
              "internalType": "bytes",
              "name": "paymasterAndData",
              "type": "bytes"
            },
            {
              "internalType": "bytes",
              "name": "signature",
              "type": "bytes"
            }
          ],
          "internalType": "struct UserOperation",
          "name": "op",
          "type": "tuple"
        }
      ],
      "name": "simulateHandleOp",
      "outputs": [],
      "stateMutability": "nonpayable",
      "type": "function"
    },
    {
      "inputs": [
        {
          "components": [
            {
              "internalType": "address",
              "name": "sender",
              "type": "address"
            },
            {
              "internalType": "uint256",
              "name": "nonce",
              "type": "uint256"
            },
            {
              "internalType": "bytes",
              "name": "initCode",
              "type": "bytes"
            },
            {
              "internalType": "bytes",
              "name": "callData",
              "type": "bytes"
            },
            {
              "internalType": "uint256",
              "name": "callGasLimit",
              "type": "uint256"
            },
            {
              "internalType": "uint256",
              "name": "verificationGasLimit",
              "type": "uint256"
            },
            {
              "internalType": "uint256",
              "name": "preVerificationGas",
              "type": "uint256"
            },
            {
              "internalType": "uint256",
              "name": "maxFeePerGas",
              "type": "uint256"
            },
            {
              "internalType": "uint256",
              "name": "maxPriorityFeePerGas",
              "type": "uint256"
            },
            {
              "internalType": "bytes",
              "name": "paymasterAndData",
              "type": "bytes"
            },
            {
              "internalType": "bytes",
              "name": "signature",
              "type": "bytes"
            }
          ],
          "internalType": "struct UserOperation",
          "name": "userOp",
          "type": "tuple"
        }
      ],
      "name": "simulateValidation",
      "outputs": [],
      "stateMutability": "nonpayable",
      "type": "function"
    },
    {
      "inputs": [],
      "name": "unlockStake",
      "outputs": [],
      "stateMutability": "nonpayable",
      "type": "function"
    },
    {
      "inputs": [
        {
          "internalType": "address payable",
          "name": "withdrawAddress",
          "type": "address"
        }
      ],
      "name": "withdrawStake",
      "outputs": [],
      "stateMutability": "nonpayable",
      "type": "function"
    },
    {
      "inputs": [
        {
          "internalType": "address payable",
          "name": "withdrawAddress",
          "type": "address"
        },
        {
          "internalType": "uint256",
          "name": "withdrawAmount",
          "type": "uint256"
        }
      ],
      "name": "withdrawTo",
      "outputs": [],
      "stateMutability": "nonpayable",
      "type": "function"
    },
    {
      "stateMutability": "payable",
      "type": "receive"
    }
  ],
  "bytecode": "0x60a0604052604051620000129062000050565b604051809103906000f0801580156200002f573d6000803e3d6000fd5b506001600160a01b03166080523480156200004957600080fd5b506200005e565b61021380620038e283390190565b6080516138616200008160003960008181610fde015261291801526138616000f3fe6080604052600436106100f75760003560e01c80639b249f691161008a578063c207711611610059578063c20771161461038d578063c23a5cea146103ad578063ee219423146103cd578063fc7e286d146103ed57600080fd5b80639b249f6914610325578063a619353114610345578063b760faf914610365578063bb9fe6bf1461037857600080fd5b80634b1d7cf5116100c65780634b1d7cf5146101925780635287ce12146101b257806370a08231146102d15780638f41ec5a1461031057600080fd5b80630396cb601461010c5780631d7327561461011f5780631fad948c14610152578063205c28781461017257600080fd5b3661010757610105336104a4565b005b600080fd5b61010561011a366004612be6565b61050b565b34801561012b57600080fd5b5061013f61013a366004612d0a565b610797565b6040519081526020015b60405180910390f35b34801561015e57600080fd5b5061010561016d366004612e91565b610950565b34801561017e57600080fd5b5061010561018d366004612ee7565b610a92565b34801561019e57600080fd5b506101056101ad366004612e91565b610c0e565b3480156101be57600080fd5b506102786101cd366004612f13565b6040805160a081018252600080825260208201819052918101829052606081018290526080810191909152506001600160a01b031660009081526020818152604091829020825160a08101845281546001600160701b038082168352600160701b820460ff16151594830194909452600160781b90049092169282019290925260019091015463ffffffff8116606083015264010000000090046001600160401b0316608082015290565b6040805182516001600160701b03908116825260208085015115159083015283830151169181019190915260608083015163ffffffff16908201526080918201516001600160401b03169181019190915260a001610149565b3480156102dd57600080fd5b5061013f6102ec366004612f13565b6001600160a01b03166000908152602081905260409020546001600160701b031690565b34801561031c57600080fd5b5061013f600181565b34801561033157600080fd5b50610105610340366004612f30565b610fc7565b34801561035157600080fd5b5061013f610360366004612f71565b61107d565b610105610373366004612f13565b6104a4565b34801561038457600080fd5b506101056110bf565b34801561039957600080fd5b506101056103a8366004612f71565b6111eb565b3480156103b957600080fd5b506101056103c8366004612f13565b611275565b3480156103d957600080fd5b506101056103e8366004612f71565b6114ac565b3480156103f957600080fd5b5061045d610408366004612f13565b600060208190529081526040902080546001909101546001600160701b0380831692600160701b810460ff1692600160781b9091049091169063ffffffff81169064010000000090046001600160401b031685565b604080516001600160701b0396871681529415156020860152929094169183019190915263ffffffff1660608201526001600160401b03909116608082015260a001610149565b6104ae813461164b565b6001600160a01b03811660008181526020818152604091829020805492516001600160701b03909316835292917f2da466a7b24304f47e87fa2e1e5a81b9831ce54fec19055ce277ca2f39ba42c491015b60405180910390a25050565b33600090815260208190526040902063ffffffff82166105725760405162461bcd60e51b815260206004820152601a60248201527f6d757374207370656369667920756e7374616b652064656c617900000000000060448201526064015b60405180910390fd5b600181015463ffffffff90811690831610156105d05760405162461bcd60e51b815260206004820152601c60248201527f63616e6e6f7420646563726561736520756e7374616b652074696d65000000006044820152606401610569565b80546000906105f0903490600160781b90046001600160701b0316612fc2565b9050600081116106375760405162461bcd60e51b81526020600482015260126024820152711b9bc81cdd185ad9481cdc1958da599a595960721b6044820152606401610569565b6001600160701b03811061067e5760405162461bcd60e51b815260206004820152600e60248201526d7374616b65206f766572666c6f7760901b6044820152606401610569565b6040805160a08101825283546001600160701b0390811682526001602080840182815286841685870190815263ffffffff808b16606088019081526000608089018181523380835296829052908a902098518954955194518916600160781b02600160781b600160e81b0319951515600160701b026effffffffffffffffffffffffffffff19909716919099161794909417929092169590951786555194909201805492516001600160401b0316640100000000026001600160601b0319909316949093169390931717905590517fa5ae833d0bb1dcd632d98a8b70973e8516812898e19bf27b70071ebc8dc52c019061078a908490879091825263ffffffff16602082015260400190565b60405180910390a2505050565b6000805a90503330146107ec5760405162461bcd60e51b815260206004820152601760248201527f4141393220696e7465726e616c2063616c6c206f6e6c790000000000000000006044820152606401610569565b8451604081015160608201518101611388015a10156108165763deaddead60e01b60005260206000fd5b600088156108ed5760008084600001516001600160a01b0316848d8d604051610840929190612fd5565b60006040518083038160008787f1925050503d806000811461087e576040519150601f19603f3d011682016040523d82523d6000602084013e610883565b606091505b5091509150816108ea578051156108e55784600001516001600160a01b03168a602001517f1c4fada7374c0a9ee8841fc38afe82932dc0f8e69012e927f061a8bae611a2018760200151846040516108dc929190613035565b60405180910390a35b600192505b50505b600088608001515a860301905061093f6000838b8b8b8080601f0160208091040260200160405190810160405280939291908181526020018383808284376000920191909152508892506116e7915050565b955050505050505b95945050505050565b816000816001600160401b0381111561096b5761096b612c5b565b6040519080825280602002602001820160405280156109a457816020015b610991612b5c565b8152602001906001900390816109895790505b50905060005b82811015610a1f5760008282815181106109c6576109c661304e565b60200260200101519050600080610a03848a8a878181106109e9576109e961304e565b90506020028101906109fb9190613064565b8560006119da565b5091509150610a1484848484611b77565b5050506001016109aa565b506000805b83811015610a7f57610a7381888884818110610a4257610a4261304e565b9050602002810190610a549190613064565b858481518110610a6657610a6661304e565b6020026020010151611d1b565b90910190600101610a24565b50610a8a8482611e55565b505050505050565b33600090815260208190526040902080546001600160701b0316821115610afb5760405162461bcd60e51b815260206004820152601960248201527f576974686472617720616d6f756e7420746f6f206c61726765000000000000006044820152606401610569565b8054610b119083906001600160701b0316613085565b81546001600160701b0319166001600160701b0391909116178155604080516001600160a01b03851681526020810184905233917fd1c19fbcd4551a5edfb66d43d2e337c04837afda3482b42bdf569a8fccdae5fb910160405180910390a26000836001600160a01b03168360405160006040518083038185875af1925050503d8060008114610bbd576040519150601f19603f3d011682016040523d82523d6000602084013e610bc2565b606091505b5050905080610c085760405162461bcd60e51b81526020600482015260126024820152716661696c656420746f20776974686472617760701b6044820152606401610569565b50505050565b816000805b82811015610c6857858582818110610c2d57610c2d61304e565b9050602002810190610c3f9190613098565b610c4990806130ae565b610c54915083612fc2565b915080610c60816130f7565b915050610c13565b506000816001600160401b03811115610c8357610c83612c5b565b604051908082528060200260200182016040528015610cbc57816020015b610ca9612b5c565b815260200190600190039081610ca15790505b5090506000805b84811015610e5e5736888883818110610cde57610cde61304e565b9050602002810190610cf09190613098565b9050366000610cff83806130ae565b90925090506000610d166040850160208601612f13565b90508160005b81811015610da8576000898981518110610d3857610d3861304e565b60200260200101519050600080610d748b898987818110610d5b57610d5b61304e565b9050602002810190610d6d9190613064565b85896119da565b5091509150610d8584848484611b77565b8a610d8f816130f7565b9b50505050508080610da0906130f7565b915050610d1c565b506001600160a01b03821615610e46576001600160a01b03821663e3563a4f8585610dd660408a018a613110565b6040518563ffffffff1660e01b8152600401610df594939291906132bb565b60006040518083038186803b158015610e0d57600080fd5b505afa925050508015610e1e575060015b610e465760405163086a9f7560e41b81526001600160a01b0383166004820152602401610569565b50505050508080610e56906130f7565b915050610cc3565b50600080915060005b85811015610f7e5736898983818110610e8257610e8261304e565b9050602002810190610e949190613098565b90507f575ff3acadd5ab348fe1855e217e0f3678f8d767d7494c9f9fefbee2e17cca4d610ec76040830160208401612f13565b6040516001600160a01b03909116815260200160405180910390a1366000610eef83806130ae565b90925090508060005b81811015610f6657610f3a88858584818110610f1657610f1661304e565b9050602002810190610f289190613064565b8b8b81518110610a6657610a6661304e565b610f449088612fc2565b965087610f50816130f7565b9850508080610f5e906130f7565b915050610ef8565b50505050508080610f76906130f7565b915050610e67565b50604051600081527f575ff3acadd5ab348fe1855e217e0f3678f8d767d7494c9f9fefbee2e17cca4d9060200160405180910390a1610fbd8682611e55565b5050505050505050565b604051632b870d1b60e11b81526001600160a01b037f0000000000000000000000000000000000000000000000000000000000000000169063570e1a36906110159085908590600401613338565b6020604051808303816000875af1158015611034573d6000803e3d6000fd5b505050506040513d601f19601f82011682018060405250810190611058919061334c565b604051633653dc0360e11b81526001600160a01b039091166004820152602401610569565b600061108882611f53565b6040805160208101929092523090820152466060820152608001604051602081830303815290604052805190602001209050919050565b3360009081526020819052604081206001810154909163ffffffff90911690036111185760405162461bcd60e51b815260206004820152600a6024820152691b9bdd081cdd185ad95960b21b6044820152606401610569565b8054600160701b900460ff166111645760405162461bcd60e51b8152602060048201526011602482015270616c726561647920756e7374616b696e6760781b6044820152606401610569565b600181015460009061117c9063ffffffff1642613369565b6001830180546bffffffffffffffff0000000019166401000000006001600160401b03841690810291909117909155835460ff60701b1916845560405190815290915033907ffa9b3c14cc825c412c9ed81b3ba365a5b459439403f18829e572ed53a4180f0a906020016104ff565b6111f3612b5c565b6000806112046000858560016119da565b50915091506000806112168484611f6c565b925092505061122443600052565b600061123260008888611d1b565b60808701516040516366c5612360e11b81526004810191909152602481018290526001600160401b03808616604483015284166064820152909150608401610569565b3360009081526020819052604090208054600160781b90046001600160701b0316806112da5760405162461bcd60e51b81526020600482015260146024820152734e6f207374616b6520746f20776974686472617760601b6044820152606401610569565b600182015464010000000090046001600160401b031661133c5760405162461bcd60e51b815260206004820152601d60248201527f6d7573742063616c6c20756e6c6f636b5374616b6528292066697273740000006044820152606401610569565b6001820154426401000000009091046001600160401b031611156113a25760405162461bcd60e51b815260206004820152601b60248201527f5374616b65207769746864726177616c206973206e6f742064756500000000006044820152606401610569565b6001820180546001600160601b03191690558154600160781b600160e81b0319168255604080516001600160a01b03851681526020810183905233917fb7c918e0e249f999e965cafeb6c664271b3f4317d296461500e71da39f0cbda3910160405180910390a26000836001600160a01b03168260405160006040518083038185875af1925050503d8060008114611456576040519150601f19603f3d011682016040523d82523d6000602084013e61145b565b606091505b5050905080610c085760405162461bcd60e51b815260206004820152601860248201527f6661696c656420746f207769746864726177207374616b6500000000000000006044820152606401610569565b6114b4612b5c565b60008060006114c76000868660016119da565b92509250925060006114e0856000015160a00151611fe5565b8551519091506000906114f290611fe5565b9050611511604051806040016040528060008152602001600081525090565b36600061152160408b018b613110565b909250905060006014821015611538576000611553565b611546601460008486613390565b61154f916133ba565b60601c5b905061155e81611fe5565b935050505060008060006115728989611f6c565b92509250925060006040518060c001604052808c6080015181526020018c6040015181526020018515158152602001846001600160401b03168152602001836001600160401b031681526020016115ca8d6060015190565b905290506001600160a01b0388161561162a57600060405180604001604052808a6001600160a01b031681526020016116028b611fe5565b81525090508187878a8460405163356877a360e01b8152600401610569959493929190613442565b8086868960405163f04297e960e01b815260040161056994939291906134c2565b6001600160a01b0382166000908152602081905260408120805490919061167c9084906001600160701b0316612fc2565b90506001600160701b038111156116c85760405162461bcd60e51b815260206004820152601060248201526f6465706f736974206f766572666c6f7760801b6044820152606401610569565b81546001600160701b0319166001600160701b03919091161790555050565b6000805a8551909150600090816116fd82612034565b60a08301519091506001600160a01b03811661171c57825193506118b2565b8093506000885111156118b257868202955060028a600281111561174257611742613515565b146117b457606083015160405163a9a2340960e01b81526001600160a01b0383169163a9a234099161177c908e908d908c9060040161352b565b600060405180830381600088803b15801561179657600080fd5b5087f11580156117aa573d6000803e3d6000fd5b50505050506118b2565b606083015160405163a9a2340960e01b81526001600160a01b0383169163a9a23409916117e9908e908d908c9060040161352b565b600060405180830381600088803b15801561180357600080fd5b5087f193505050508015611815575060015b6118b257611821613572565b806308c379a00361185e575061183561358e565b806118405750611860565b8b828260405162fa072b60e01b815260040161056993929190613617565b505b60405162fa072b60e01b8152600481018c90526001600160a01b0382166024820152606060448201526011606482015270104d4c081c1bdcdd13dc081c995d995c9d607a1b608482015260a401610569565b5a850387019650818702955085896040015110156119285760405162fa072b60e01b8152600481018c90526001600160a01b038216602482015260606044820152601f60648201527f4135312070726566756e642062656c6f772061637475616c476173436f737400608482015260a401610569565b604089015186900361193a858261164b565b6000808c600281111561194f5761194f613515565b1490508460a001516001600160a01b031685600001516001600160a01b03168c602001517f49628fd1471006c1482da88028e9ce4dbb080b815c9b0344d39e5a8e6ec1419f8860200151858d8f6040516119c2949392919093845291151560208401526040830152606082015260800190565b60405180910390a45050505050505095945050505050565b6000806000805a86519091506119f08882612064565b6119f98861107d565b6020880152604081015160608201516080830151171760e089013517610100890135176effffffffffffffffffffffffffffff811115611a7b5760405162461bcd60e51b815260206004820152601860248201527f41413934206761732076616c756573206f766572666c6f7700000000000000006044820152606401610569565b600080611a878461215d565b9050611a968c8c8c8c856121ab565b995096509150611aa543600052565b60a08401516060906001600160a01b031615611acd57611ac88d8d8d8587612578565b985090505b60005a87039050808d60a001351015611b47578d8660a0015160405162fa072b60e01b81526004016105699291909182526001600160a01b03166020820152606060408201819052601e908201527f41413430206f76657220766572696669636174696f6e4761734c696d69740000608082015260a00190565b60408c018390528160608d015260c08d01355a8803018c6080018181525050505050505050509450945094915050565b600080611b83846127bf565b915091508115611bda5760405162fa072b60e01b8152600481018790526000602482015260606044820152601460648201527320a0991a1039b4b3b730ba3ab9329032b93937b960611b608482015260a401610569565b8015611c365760405162fa072b60e01b8152600481018790526000602482015260606044820152601760648201527f414132322065787069726564206f72206e6f7420647565000000000000000000608482015260a401610569565b611c3f836127bf565b90925090508115611ca657845160a0015160405162fa072b60e01b8152600481018890526001600160a01b03909116602482015260606044820152601460648201527320a0999a1039b4b3b730ba3ab9329032b93937b960611b608482015260a401610569565b8015610a8a57845160a0015160405162fa072b60e01b8152600481018890526001600160a01b03909116602482015260606044820152602160648201527f41413332207061796d61737465722065787069726564206f72206e6f742064756084820152606560f81b60a482015260c401610569565b6000805a90506000611d2e846060015190565b905030631d732756611d436060880188613110565b87856040518563ffffffff1660e01b8152600401611d649493929190613641565b6020604051808303816000875af1925050508015611d9f575060408051601f3d908101601f19168201909252611d9c918101906136f4565b60015b611e4957600060206000803e50600051632152215360e01b8101611e1457845160a0015160405162fa072b60e01b8152600481018990526001600160a01b03909116602482015260606044820152600f60648201526e41413935206f7574206f662067617360881b608482015260a401610569565b600085608001515a611e269086613085565b611e309190612fc2565b9050611e408860028886856116e7565b94505050611e4c565b92505b50509392505050565b6001600160a01b038216611eab5760405162461bcd60e51b815260206004820152601860248201527f4141393020696e76616c69642062656e656669636961727900000000000000006044820152606401610569565b6000826001600160a01b03168260405160006040518083038185875af1925050503d8060008114611ef8576040519150601f19603f3d011682016040523d82523d6000602084013e611efd565b606091505b5050905080611f4e5760405162461bcd60e51b815260206004820152601f60248201527f41413931206661696c65642073656e6420746f2062656e6566696369617279006044820152606401610569565b505050565b6000611f5e8261280a565b805190602001209050919050565b6000806000611f7a85612849565b9194509250905060008080611f8e87612849565b9250925092508580611f9d5750825b9550816001600160401b0316856001600160401b03161015611fbd578194505b806001600160401b0316846001600160401b03161115611fdb578093505b5050509250925092565b604080518082018252600080825260208083018281526001600160a01b03959095168252819052919091208054600160781b90046001600160701b031682526001015463ffffffff1690915290565b60c081015160e082015160009190808203612050575092915050565b61205c8248830161286f565b949350505050565b6120716020830183612f13565b6001600160a01b0316815260208083013590820152608080830135604083015260a0830135606083015260c0808401359183019190915260e08084013591830191909152610100830135908201523660006120d0610120850185613110565b9092509050801561215057601481101561212c5760405162461bcd60e51b815260206004820152601d60248201527f4141393320696e76616c6964207061796d6173746572416e64446174610000006044820152606401610569565b61213a601460008385613390565b612143916133ba565b60601c60a0840152610c08565b600060a084015250505050565b60a081015160009081906001600160a01b031661217b57600161217e565b60035b60ff16905060008360800151828560600151028560400151010190506121a384612034565b029392505050565b6000806000805a87518051919250906121d18b8a6121cc60408e018e613110565b612889565b6000196001600160a01b03891601612347576121ec43600052565b806001600160a01b03163b6000036122545760405162fa072b60e01b8152600060048201819052602482015260606044820152601960648201527f41413230206163636f756e74206e6f74206465706c6f79656400000000000000608482015260a401610569565b60a08201516001600160a01b03161580159061227c575060a08201516001600160a01b03163b155b156122d75760405162fa072b60e01b8152600060048201819052602482015260606044820152601b60648201527f41413330207061796d6173746572206e6f74206465706c6f7965640000000000608482015260a401610569565b806001600160a01b0316633ad59dbc6040518163ffffffff1660e01b8152600401602060405180830381865afa925050508015612331575060408051601f3d908101601f1916820190925261232e9181019061334c565b60015b6123415760009450849750612347565b97508794505b60a08201516000906001600160a01b038116612395576001600160a01b0383166000908152602081905260409020546001600160701b031689811161238e57808a03612391565b60005b9250505b826001600160a01b0316630825d1fc85606001518e8e602001518e876040518663ffffffff1660e01b81526004016123d0949392919061370d565b60206040518083038160008887f19350505050801561240c575060408051601f3d908101601f19168201909252612409918101906136f4565b60015b6124a757612418613572565b806308c379a003612456575061242c61358e565b806124375750612458565b8d60008260405162fa072b60e01b815260040161056993929190613617565b505b60405162fa072b60e01b8152600481018e9052600060248201526060604482015260166064820152754141323320726576657274656420286f72204f4f472960501b608482015260a401610569565b95506001600160a01b038116612563576001600160a01b038316600090815260208190526040902080546001600160701b0316808b1115612546578e600060405162fa072b60e01b81526004016105699291909182526001600160a01b031660208201526060604082018190526017908201527f41413231206469646e2774207061792070726566756e64000000000000000000608082015260a00190565b81546001600160701b031916908b90036001600160701b03161790555b5a850397505050505050955095509592505050565b825160608181015190916000918481116125d45760405162461bcd60e51b815260206004820152601f60248201527f4141343120746f6f206c6974746c6520766572696669636174696f6e476173006044820152606401610569565b60a08201516001600160a01b038116600090815260208190526040902080548784039291906001600160701b0316898110156126685760405162fa072b60e01b8152600481018e90526001600160a01b038416602482015260606044820152601e60648201527f41413331207061796d6173746572206465706f73697420746f6f206c6f770000608482015260a401610569565b8981038260000160006101000a8154816001600160701b0302191690836001600160701b03160217905550826001600160a01b031663f465c77e858e8e602001518e6040518563ffffffff1660e01b81526004016126c893929190613745565b60006040518083038160008887f19350505050801561270957506040513d6000823e601f3d908101601f19168201604052612706919081019061376a565b60015b6127ab57612715613572565b806308c379a003612752575061272961358e565b806127345750612754565b8d848260405162fa072b60e01b815260040161056993929190613617565b505b60405162fa072b60e01b8152600481018e90526001600160a01b03841660248201526060604482015260166064820152754141333320726576657274656420286f72204f4f472960501b608482015260a401610569565b909e909d509b505050505050505050505050565b600080826000036127d557506000928392509050565b6000806127e185612849565b9195506001600160401b0390811693501690504281108061280157508142105b92505050915091565b606036600061281d610140850185613110565b915091508360208184030360405194506020810185016040528085528082602087013750505050919050565b60ff811615156000806128616001600886901c61380b565b929460489490941c93915050565b600081831061287e5781612880565b825b90505b92915050565b8015610c08578251516001600160a01b0381163b156128f85760405162fa072b60e01b8152600481018690526000602482015260606044820152601f60648201527f414131302073656e64657220616c726561647920636f6e737472756374656400608482015260a401610569565b835160600151604051632b870d1b60e11b81526000916001600160a01b037f0000000000000000000000000000000000000000000000000000000000000000169163570e1a3691906129509088908890600401613338565b60206040518083038160008887f115801561296f573d6000803e3d6000fd5b50505050506040513d601f19601f82011682018060405250810190612994919061334c565b90506001600160a01b0381166129fa5760405162fa072b60e01b8152600481018790526000602482015260606044820152601b60648201527f4141313320696e6974436f6465206661696c6564206f72204f4f470000000000608482015260a401610569565b816001600160a01b0316816001600160a01b031614612a695760405162fa072b60e01b8152600481018790526000602482015260606044820152602060648201527f4141313420696e6974436f6465206d7573742072657475726e2073656e646572608482015260a401610569565b806001600160a01b03163b600003612ad15760405162fa072b60e01b8152600481018790526000602482015260606044820152602060648201527f4141313520696e6974436f6465206d757374206372656174652073656e646572608482015260a401610569565b6000612ae06014828688613390565b612ae9916133ba565b60601c9050826001600160a01b031686602001517fd51a9c61267aa6196961883ecf5ff2da6619c37dac0fa92122513fb32c032d2d83896000015160a00151604051612b4b9291906001600160a01b0392831681529116602082015260400190565b60405180910390a350505050505050565b6040518060a00160405280612bc160405180610100016040528060006001600160a01b031681526020016000815260200160008152602001600081526020016000815260200160006001600160a01b0316815260200160008152602001600081525090565b8152602001600080191681526020016000815260200160008152602001600081525090565b600060208284031215612bf857600080fd5b813563ffffffff81168114612c0c57600080fd5b9392505050565b60008083601f840112612c2557600080fd5b5081356001600160401b03811115612c3c57600080fd5b602083019150836020828501011115612c5457600080fd5b9250929050565b634e487b7160e01b600052604160045260246000fd5b60a081018181106001600160401b0382111715612c9057612c90612c5b565b60405250565b61010081018181106001600160401b0382111715612c9057612c90612c5b565b601f8201601f191681016001600160401b0381118282101715612cdb57612cdb612c5b565b6040525050565b6001600160a01b0381168114612cf757600080fd5b50565b8035612d0581612ce2565b919050565b60008060008060008587036101c0811215612d2457600080fd5b86356001600160401b0380821115612d3b57600080fd5b612d478a838b01612c13565b9098509650601f199290920191610180915081831215612d6657600080fd5b604051612d7281612c71565b61010080851215612d8257600080fd5b6040519450612d9085612c96565b612d9c60208c01612cfa565b855260408b0135602086015260608b0135604086015260808b0135606086015260a08b01356080860152612dd260c08c01612cfa565b60a086015260e08b81013560c0870152908b0135908501529283526101208901356020840152610140890135604084015261016089013560608401528189013560808401529194506101a08801359180831115612e2e57600080fd5b5050612e3c88828901612c13565b969995985093965092949392505050565b60008083601f840112612e5f57600080fd5b5081356001600160401b03811115612e7657600080fd5b6020830191508360208260051b8501011115612c5457600080fd5b600080600060408486031215612ea657600080fd5b83356001600160401b03811115612ebc57600080fd5b612ec886828701612e4d565b9094509250506020840135612edc81612ce2565b809150509250925092565b60008060408385031215612efa57600080fd5b8235612f0581612ce2565b946020939093013593505050565b600060208284031215612f2557600080fd5b8135612c0c81612ce2565b60008060208385031215612f4357600080fd5b82356001600160401b03811115612f5957600080fd5b612f6585828601612c13565b90969095509350505050565b600060208284031215612f8357600080fd5b81356001600160401b03811115612f9957600080fd5b82016101608185031215612c0c57600080fd5b634e487b7160e01b600052601160045260246000fd5b8082018082111561288357612883612fac565b8183823760009101908152919050565b60005b83811015613000578181015183820152602001612fe8565b50506000910152565b60008151808452613021816020860160208601612fe5565b601f01601f19169290920160200192915050565b82815260406020820152600061205c6040830184613009565b634e487b7160e01b600052603260045260246000fd5b6000823561015e1983360301811261307b57600080fd5b9190910192915050565b8181038181111561288357612883612fac565b60008235605e1983360301811261307b57600080fd5b6000808335601e198436030181126130c557600080fd5b8301803591506001600160401b038211156130df57600080fd5b6020019150600581901b3603821315612c5457600080fd5b60006001820161310957613109612fac565b5060010190565b6000808335601e1984360301811261312757600080fd5b8301803591506001600160401b0382111561314157600080fd5b602001915036819003821315612c5457600080fd5b6000808335601e1984360301811261316d57600080fd5b83016020810192503590506001600160401b0381111561318c57600080fd5b803603821315612c5457600080fd5b81835281816020850137506000828201602090810191909152601f909101601f19169091010190565b60006101606131e3846131d685612cfa565b6001600160a01b03169052565b602083013560208501526131fa6040840184613156565b82604087015261320d838701828461319b565b9250505061321e6060840184613156565b858303606087015261323183828461319b565b925050506080830135608085015260a083013560a085015260c083013560c085015260e083013560e085015261010080840135818601525061012061327881850185613156565b8684038388015261328a84828461319b565b935050505061014061329e81850185613156565b868403838801526132b084828461319b565b979650505050505050565b6040808252810184905260006060600586901b830181019083018783805b8981101561332157868503605f190184528235368c900361015e190181126132ff578283fd5b61330b868d83016131c4565b95505060209384019392909201916001016132d9565b5050505082810360208401526132b081858761319b565b60208152600061205c60208301848661319b565b60006020828403121561335e57600080fd5b8151612c0c81612ce2565b6001600160401b0381811683821601908082111561338957613389612fac565b5092915050565b600080858511156133a057600080fd5b838611156133ad57600080fd5b5050820193919092039150565b6001600160601b031981358181169160148510156133e25780818660140360031b1b83161692505b505092915050565b8051825260208101516020830152604081015115156040830152600060608201516001600160401b038082166060860152806080850151166080860152505060a082015160c060a085015261205c60c0850182613009565b6000610140808352613456818401896133ea565b915050613470602083018780518252602090810151910152565b845160608301526020948501516080830152835160a08301529284015160c082015281516001600160a01b031660e0820152908301518051610100830152909201516101209092019190915292915050565b60e0815260006134d560e08301876133ea565b90506134ee602083018680518252602090810151910152565b8351606083015260208401516080830152825160a0830152602083015160c0830152610947565b634e487b7160e01b600052602160045260246000fd5b60006003851061354b57634e487b7160e01b600052602160045260246000fd5b848252606060208301526135626060830185613009565b9050826040830152949350505050565b600060033d111561358b5760046000803e5060005160e01c5b90565b600060443d101561359c5790565b6040516003193d81016004833e81513d6001600160401b0381602484011181841117156135cb57505050505090565b82850191508151818111156135e35750505050505090565b843d87010160208285010111156135fd5750505050505090565b61360c60208286010187612cb6565b509095945050505050565b8381526001600160a01b038316602082015260606040820181905260009061094790830184613009565b60006101c0808352613656818401878961319b565b9050845160018060a01b03808251166020860152602082015160408601526040820151606086015260608201516080860152608082015160a08601528060a08301511660c08601525060c081015160e085015260e08101516101008501525060208501516101208401526040850151610140840152606085015161016084015260808501516101808401528281036101a08401526132b08185613009565b60006020828403121561370657600080fd5b5051919050565b60808152600061372060808301876131c4565b6020830195909552506001600160a01b03929092166040830152606090910152919050565b60608152600061375860608301866131c4565b60208301949094525060400152919050565b6000806040838503121561377d57600080fd5b82516001600160401b038082111561379457600080fd5b818501915085601f8301126137a857600080fd5b8151818111156137ba576137ba612c5b565b60405191506137d3601f8201601f191660200183612cb6565b8082528660208285010111156137e857600080fd5b6137f9816020840160208601612fe5565b50602094909401519395939450505050565b818103600083128015838313168383128216171561338957613389612fac56fea2646970667358221220bd4e2c3d1a2bd2a6860db882ab0b4e5ba144d1b78eb5b88a2ca8e6325d46eddf64736f6c63430008110033608060405234801561001057600080fd5b506101f3806100206000396000f3fe608060405234801561001057600080fd5b506004361061002b5760003560e01c8063570e1a3614610030575b600080fd5b61004361003e3660046100ec565b61005f565b6040516001600160a01b03909116815260200160405180910390f35b60008061006f601482858761015e565b61007891610188565b60601c9050600061008c846014818861015e565b8080601f016020809104026020016040519081016040528093929190818152602001838380828437600092018290525084519495509360209350849250905082850182875af190506000519350806100e357600093505b50505092915050565b600080602083850312156100ff57600080fd5b823567ffffffffffffffff8082111561011757600080fd5b818501915085601f83011261012b57600080fd5b81358181111561013a57600080fd5b86602082850101111561014c57600080fd5b60209290920196919550909350505050565b6000808585111561016e57600080fd5b8386111561017b57600080fd5b5050820193919092039150565b6bffffffffffffffffffffffff1981358181169160148510156101b55780818660140360031b1b83161692505b50509291505056fea26469706673582212200b50048fae4818e8bc38646372c0966707ad0de9dc3c38dbf50369edc632a65564736f6c63430008110033",
  "linkReferences": {},
  "deployedLinkReferences": {}
}