{
  "_format": "hh-sol-artifact-1",
  "contractName": "SmartWalletV3",
  "sourceName": "contracts/base/SmartWalletV3.sol",
  "abi": [
    {
      "inputs": [
        {
          "internalType": "contract PriceOracle",
          "name": "_priceOracle",
          "type": "address"
        },
        {
          "internalType": "address",
          "name": "_blankOwner",
          "type": "address"
        },
        {
          "internalType": "contract IEntryPoint",
          "name": "entryPointInput",
          "type": "address"
        }
      ],
      "stateMutability": "nonpayable",
      "type": "constructor"
    },
    {
      "inputs": [],
      "name": "DOMAIN_SEPARATOR",
      "outputs": [
        {
          "internalType": "bytes32",
          "name": "",
          "type": "bytes32"
        }
      ],
      "stateMutability": "view",
      "type": "function"
    },
    {
      "inputs": [],
      "name": "addDeposit",
      "outputs": [],
      "stateMutability": "payable",
      "type": "function"
    },
    {
      "inputs": [
        {
          "internalType": "address",
          "name": "guardian",
          "type": "address"
        }
      ],
      "name": "addGuardian",
      "outputs": [],
      "stateMutability": "nonpayable",
      "type": "function"
    },
    {
      "inputs": [
        {
          "internalType": "address",
          "name": "guardian",
          "type": "address"
        }
      ],
      "name": "addGuardianWA",
      "outputs": [],
      "stateMutability": "nonpayable",
      "type": "function"
    },
    {
      "inputs": [
        {
          "internalType": "address",
          "name": "addr",
          "type": "address"
        }
      ],
      "name": "addToWhitelist",
      "outputs": [],
      "stateMutability": "nonpayable",
      "type": "function"
    },
    {
      "inputs": [
        {
          "internalType": "address",
          "name": "addr",
          "type": "address"
        }
      ],
      "name": "addToWhitelistWA",
      "outputs": [],
      "stateMutability": "nonpayable",
      "type": "function"
    },
    {
      "inputs": [
        {
          "internalType": "address",
          "name": "token",
          "type": "address"
        },
        {
          "internalType": "address",
          "name": "to",
          "type": "address"
        },
        {
          "internalType": "uint256",
          "name": "amount",
          "type": "uint256"
        },
        {
          "internalType": "uint256",
          "name": "value",
          "type": "uint256"
        },
        {
          "internalType": "bytes",
          "name": "data",
          "type": "bytes"
        },
        {
          "internalType": "bool",
          "name": "forceUseQuota",
          "type": "bool"
        }
      ],
      "name": "approveThenCallContract",
      "outputs": [
        {
          "internalType": "bytes",
          "name": "",
          "type": "bytes"
        }
      ],
      "stateMutability": "nonpayable",
      "type": "function"
    },
    {
      "inputs": [
        {
          "internalType": "address",
          "name": "token",
          "type": "address"
        },
        {
          "internalType": "address",
          "name": "to",
          "type": "address"
        },
        {
          "internalType": "uint256",
          "name": "amount",
          "type": "uint256"
        },
        {
          "internalType": "uint256",
          "name": "value",
          "type": "uint256"
        },
        {
          "internalType": "bytes",
          "name": "data",
          "type": "bytes"
        }
      ],
      "name": "approveThenCallContractWA",
      "outputs": [
        {
          "internalType": "bytes",
          "name": "returnData",
          "type": "bytes"
        }
      ],
      "stateMutability": "nonpayable",
      "type": "function"
    },
    {
      "inputs": [
        {
          "internalType": "address",
          "name": "token",
          "type": "address"
        },
        {
          "internalType": "address",
          "name": "to",
          "type": "address"
        },
        {
          "internalType": "uint256",
          "name": "amount",
          "type": "uint256"
        },
        {
          "internalType": "bool",
          "name": "forceUseQuota",
          "type": "bool"
        }
      ],
      "name": "approveToken",
      "outputs": [],
      "stateMutability": "nonpayable",
      "type": "function"
    },
    {
      "inputs": [
        {
          "internalType": "address",
          "name": "token",
          "type": "address"
        },
        {
          "internalType": "address",
          "name": "to",
          "type": "address"
        },
        {
          "internalType": "uint256",
          "name": "amount",
          "type": "uint256"
        }
      ],
      "name": "approveTokenWA",
      "outputs": [],
      "stateMutability": "nonpayable",
      "type": "function"
    },
    {
      "inputs": [],
      "name": "blankOwner",
      "outputs": [
        {
          "internalType": "address",
          "name": "",
          "type": "address"
        }
      ],
      "stateMutability": "view",
      "type": "function"
    },
    {
      "inputs": [
        {
          "internalType": "address",
          "name": "to",
          "type": "address"
        },
        {
          "internalType": "uint256",
          "name": "value",
          "type": "uint256"
        },
        {
          "internalType": "bytes",
          "name": "data",
          "type": "bytes"
        },
        {
          "internalType": "bool",
          "name": "forceUseQuota",
          "type": "bool"
        }
      ],
      "name": "callContract",
      "outputs": [
        {
          "internalType": "bytes",
          "name": "",
          "type": "bytes"
        }
      ],
      "stateMutability": "nonpayable",
      "type": "function"
    },
    {
      "inputs": [
        {
          "internalType": "address",
          "name": "to",
          "type": "address"
        },
        {
          "internalType": "uint256",
          "name": "value",
          "type": "uint256"
        },
        {
          "internalType": "bytes",
          "name": "data",
          "type": "bytes"
        }
      ],
      "name": "callContractWA",
      "outputs": [
        {
          "internalType": "bytes",
          "name": "returnData",
          "type": "bytes"
        }
      ],
      "stateMutability": "nonpayable",
      "type": "function"
    },
    {
      "inputs": [
        {
          "internalType": "uint256",
          "name": "newQuota",
          "type": "uint256"
        }
      ],
      "name": "changeDailyQuota",
      "outputs": [],
      "stateMutability": "nonpayable",
      "type": "function"
    },
    {
      "inputs": [
        {
          "internalType": "uint256",
          "name": "newQuota",
          "type": "uint256"
        }
      ],
      "name": "changeDailyQuotaWA",
      "outputs": [],
      "stateMutability": "nonpayable",
      "type": "function"
    },
    {
      "inputs": [
        {
          "internalType": "address",
          "name": "newMasterCopy",
          "type": "address"
        }
      ],
      "name": "changeMasterCopy",
      "outputs": [],
      "stateMutability": "nonpayable",
      "type": "function"
    },
    {
      "inputs": [],
      "name": "entryPoint",
      "outputs": [
        {
          "internalType": "contract IEntryPoint",
          "name": "",
          "type": "address"
        }
      ],
      "stateMutability": "view",
      "type": "function"
    },
    {
      "inputs": [],
      "name": "getCreationTimestamp",
      "outputs": [
        {
          "internalType": "uint64",
          "name": "",
          "type": "uint64"
        }
      ],
      "stateMutability": "view",
      "type": "function"
    },
    {
      "inputs": [],
      "name": "getDeposit",
      "outputs": [
        {
          "internalType": "uint256",
          "name": "",
          "type": "uint256"
        }
      ],
      "stateMutability": "view",
      "type": "function"
    },
    {
      "inputs": [
        {
          "internalType": "bool",
          "name": "includePendingAddition",
          "type": "bool"
        }
      ],
      "name": "getGuardians",
      "outputs": [
        {
          "components": [
            {
              "internalType": "address",
              "name": "addr",
              "type": "address"
            },
            {
              "internalType": "uint8",
              "name": "status",
              "type": "uint8"
            },
            {
              "internalType": "uint64",
              "name": "timestamp",
              "type": "uint64"
            }
          ],
          "internalType": "struct Guardian[]",
          "name": "",
          "type": "tuple[]"
        }
      ],
      "stateMutability": "view",
      "type": "function"
    },
    {
      "inputs": [],
      "name": "getMasterCopy",
      "outputs": [
        {
          "internalType": "address",
          "name": "",
          "type": "address"
        }
      ],
      "stateMutability": "view",
      "type": "function"
    },
    {
      "inputs": [],
      "name": "getOwner",
      "outputs": [
        {
          "internalType": "address",
          "name": "",
          "type": "address"
        }
      ],
      "stateMutability": "view",
      "type": "function"
    },
    {
      "inputs": [
        {
          "internalType": "address",
          "name": "addr",
          "type": "address"
        }
      ],
      "name": "getWhitelistEffectiveTime",
      "outputs": [
        {
          "internalType": "uint256",
          "name": "",
          "type": "uint256"
        }
      ],
      "stateMutability": "view",
      "type": "function"
    },
    {
      "inputs": [
        {
          "internalType": "address",
          "name": "newOwner",
          "type": "address"
        },
        {
          "internalType": "address[]",
          "name": "newGuardians",
          "type": "address[]"
        }
      ],
      "name": "inherit",
      "outputs": [],
      "stateMutability": "nonpayable",
      "type": "function"
    },
    {
      "inputs": [
        {
          "internalType": "address",
          "name": "owner",
          "type": "address"
        },
        {
          "internalType": "address[]",
          "name": "guardians",
          "type": "address[]"
        },
        {
          "internalType": "uint256",
          "name": "quota",
          "type": "uint256"
        },
        {
          "internalType": "address",
          "name": "inheritor",
          "type": "address"
        },
        {
          "internalType": "address",
          "name": "feeRecipient",
          "type": "address"
        },
        {
          "internalType": "address",
          "name": "feeToken",
          "type": "address"
        },
        {
          "internalType": "uint256",
          "name": "feeAmount",
          "type": "uint256"
        }
      ],
      "name": "initialize",
      "outputs": [],
      "stateMutability": "nonpayable",
      "type": "function"
    },
    {
      "inputs": [
        {
          "internalType": "address",
          "name": "addr",
          "type": "address"
        },
        {
          "internalType": "bool",
          "name": "includePendingAddition",
          "type": "bool"
        }
      ],
      "name": "isGuardian",
      "outputs": [
        {
          "internalType": "bool",
          "name": "",
          "type": "bool"
        }
      ],
      "stateMutability": "view",
      "type": "function"
    },
    {
      "inputs": [
        {
          "internalType": "bytes32",
          "name": "signHash",
          "type": "bytes32"
        },
        {
          "internalType": "bytes",
          "name": "signature",
          "type": "bytes"
        }
      ],
      "name": "isValidSignature",
      "outputs": [
        {
          "internalType": "bytes4",
          "name": "magicValue",
          "type": "bytes4"
        }
      ],
      "stateMutability": "view",
      "type": "function"
    },
    {
      "inputs": [
        {
          "internalType": "address",
          "name": "addr",
          "type": "address"
        }
      ],
      "name": "isWhitelisted",
      "outputs": [
        {
          "internalType": "bool",
          "name": "",
          "type": "bool"
        }
      ],
      "stateMutability": "view",
      "type": "function"
    },
    {
      "inputs": [],
      "name": "lock",
      "outputs": [],
      "stateMutability": "nonpayable",
      "type": "function"
    },
    {
      "inputs": [],
      "name": "nonce",
      "outputs": [
        {
          "internalType": "uint256",
          "name": "",
          "type": "uint256"
        }
      ],
      "stateMutability": "view",
      "type": "function"
    },
    {
      "inputs": [
        {
          "internalType": "address",
          "name": "",
          "type": "address"
        },
        {
          "internalType": "address",
          "name": "",
          "type": "address"
        },
        {
          "internalType": "uint256[]",
          "name": "",
          "type": "uint256[]"
        },
        {
          "internalType": "uint256[]",
          "name": "",
          "type": "uint256[]"
        },
        {
          "internalType": "bytes",
          "name": "",
          "type": "bytes"
        }
      ],
      "name": "onERC1155BatchReceived",
      "outputs": [
        {
          "internalType": "bytes4",
          "name": "",
          "type": "bytes4"
        }
      ],
      "stateMutability": "pure",
      "type": "function"
    },
    {
      "inputs": [
        {
          "internalType": "address",
          "name": "",
          "type": "address"
        },
        {
          "internalType": "address",
          "name": "",
          "type": "address"
        },
        {
          "internalType": "uint256",
          "name": "",
          "type": "uint256"
        },
        {
          "internalType": "uint256",
          "name": "",
          "type": "uint256"
        },
        {
          "internalType": "bytes",
          "name": "",
          "type": "bytes"
        }
      ],
      "name": "onERC1155Received",
      "outputs": [
        {
          "internalType": "bytes4",
          "name": "",
          "type": "bytes4"
        }
      ],
      "stateMutability": "pure",
      "type": "function"
    },
    {
      "inputs": [
        {
          "internalType": "address",
          "name": "",
          "type": "address"
        },
        {
          "internalType": "address",
          "name": "",
          "type": "address"
        },
        {
          "internalType": "uint256",
          "name": "",
          "type": "uint256"
        },
        {
          "internalType": "bytes",
          "name": "",
          "type": "bytes"
        }
      ],
      "name": "onERC721Received",
      "outputs": [
        {
          "internalType": "bytes4",
          "name": "",
          "type": "bytes4"
        }
      ],
      "stateMutability": "pure",
      "type": "function"
    },
    {
      "inputs": [],
      "name": "priceOracle",
      "outputs": [
        {
          "internalType": "contract PriceOracle",
          "name": "",
          "type": "address"
        }
      ],
      "stateMutability": "view",
      "type": "function"
    },
    {
      "inputs": [
        {
          "internalType": "address",
          "name": "newOwner",
          "type": "address"
        },
        {
          "internalType": "address[]",
          "name": "newGuardians",
          "type": "address[]"
        }
      ],
      "name": "recover",
      "outputs": [],
      "stateMutability": "nonpayable",
      "type": "function"
    },
    {
      "inputs": [
        {
          "internalType": "address",
          "name": "addr",
          "type": "address"
        }
      ],
      "name": "removeFromWhitelist",
      "outputs": [],
      "stateMutability": "nonpayable",
      "type": "function"
    },
    {
      "inputs": [
        {
          "internalType": "address",
          "name": "guardian",
          "type": "address"
        }
      ],
      "name": "removeGuardian",
      "outputs": [],
      "stateMutability": "nonpayable",
      "type": "function"
    },
    {
      "inputs": [
        {
          "internalType": "address",
          "name": "guardian",
          "type": "address"
        }
      ],
      "name": "removeGuardianWA",
      "outputs": [],
      "stateMutability": "nonpayable",
      "type": "function"
    },
    {
      "inputs": [
        {
          "internalType": "address[]",
          "name": "newGuardians",
          "type": "address[]"
        }
      ],
      "name": "resetGuardians",
      "outputs": [],
      "stateMutability": "nonpayable",
      "type": "function"
    },
    {
      "inputs": [
        {
          "internalType": "address[]",
          "name": "newGuardians",
          "type": "address[]"
        }
      ],
      "name": "resetGuardiansWA",
      "outputs": [],
      "stateMutability": "nonpayable",
      "type": "function"
    },
    {
      "inputs": [
        {
          "internalType": "bytes[]",
          "name": "data",
          "type": "bytes[]"
        }
      ],
      "name": "selfBatchCall",
      "outputs": [],
      "stateMutability": "nonpayable",
      "type": "function"
    },
    {
      "inputs": [
        {
          "internalType": "address",
          "name": "inheritor",
          "type": "address"
        },
        {
          "internalType": "uint32",
          "name": "waitingPeriod",
          "type": "uint32"
        }
      ],
      "name": "setInheritor",
      "outputs": [],
      "stateMutability": "nonpayable",
      "type": "function"
    },
    {
      "inputs": [
        {
          "internalType": "bytes4",
          "name": "interfaceId",
          "type": "bytes4"
        }
      ],
      "name": "supportsInterface",
      "outputs": [
        {
          "internalType": "bool",
          "name": "",
          "type": "bool"
        }
      ],
      "stateMutability": "pure",
      "type": "function"
    },
    {
      "inputs": [
        {
          "internalType": "address",
          "name": "_owner",
          "type": "address"
        }
      ],
      "name": "transferOwnership",
      "outputs": [],
      "stateMutability": "nonpayable",
      "type": "function"
    },
    {
      "inputs": [
        {
          "internalType": "address",
          "name": "token",
          "type": "address"
        },
        {
          "internalType": "address",
          "name": "to",
          "type": "address"
        },
        {
          "internalType": "uint256",
          "name": "amount",
          "type": "uint256"
        },
        {
          "internalType": "bytes",
          "name": "logdata",
          "type": "bytes"
        },
        {
          "internalType": "bool",
          "name": "forceUseQuota",
          "type": "bool"
        }
      ],
      "name": "transferToken",
      "outputs": [],
      "stateMutability": "nonpayable",
      "type": "function"
    },
    {
      "inputs": [
        {
          "internalType": "address",
          "name": "token",
          "type": "address"
        },
        {
          "internalType": "address",
          "name": "to",
          "type": "address"
        },
        {
          "internalType": "uint256",
          "name": "amount",
          "type": "uint256"
        },
        {
          "internalType": "bytes",
          "name": "logdata",
          "type": "bytes"
        }
      ],
      "name": "transferTokenWA",
      "outputs": [],
      "stateMutability": "nonpayable",
      "type": "function"
    },
    {
      "inputs": [],
      "name": "unlock",
      "outputs": [],
      "stateMutability": "nonpayable",
      "type": "function"
    },
    {
      "inputs": [
        {
          "components": [
            {
              "internalType": "address",
              "name": "sender",
              "type": "address"
            },
            {
              "internalType": "uint256",
              "name": "nonce",
              "type": "uint256"
            },
            {
              "internalType": "bytes",
              "name": "initCode",
              "type": "bytes"
            },
            {
              "internalType": "bytes",
              "name": "callData",
              "type": "bytes"
            },
            {
              "internalType": "uint256",
              "name": "callGasLimit",
              "type": "uint256"
            },
            {
              "internalType": "uint256",
              "name": "verificationGasLimit",
              "type": "uint256"
            },
            {
              "internalType": "uint256",
              "name": "preVerificationGas",
              "type": "uint256"
            },
            {
              "internalType": "uint256",
              "name": "maxFeePerGas",
              "type": "uint256"
            },
            {
              "internalType": "uint256",
              "name": "maxPriorityFeePerGas",
              "type": "uint256"
            },
            {
              "internalType": "bytes",
              "name": "paymasterAndData",
              "type": "bytes"
            },
            {
              "internalType": "bytes",
              "name": "signature",
              "type": "bytes"
            }
          ],
          "internalType": "struct UserOperation",
          "name": "userOp",
          "type": "tuple"
        },
        {
          "internalType": "bytes32",
          "name": "userOpHash",
          "type": "bytes32"
        },
        {
          "internalType": "address",
          "name": "aggregator",
          "type": "address"
        },
        {
          "internalType": "uint256",
          "name": "missingAccountFunds",
          "type": "uint256"
        }
      ],
      "name": "validateUserOp",
      "outputs": [
        {
          "internalType": "uint256",
          "name": "sigTimeRange",
          "type": "uint256"
        }
      ],
      "stateMutability": "nonpayable",
      "type": "function"
    },
    {
      "inputs": [],
      "name": "wallet",
      "outputs": [
        {
          "internalType": "address",
          "name": "owner",
          "type": "address"
        },
        {
          "internalType": "uint64",
          "name": "creationTimestamp",
          "type": "uint64"
        },
        {
          "internalType": "uint256",
          "name": "nonce",
          "type": "uint256"
        },
        {
          "internalType": "bool",
          "name": "locked",
          "type": "bool"
        },
        {
          "internalType": "address",
          "name": "inheritor",
          "type": "address"
        },
        {
          "internalType": "uint32",
          "name": "inheritWaitingPeriod",
          "type": "uint32"
        },
        {
          "internalType": "uint64",
          "name": "lastActive",
          "type": "uint64"
        },
        {
          "components": [
            {
              "internalType": "uint128",
              "name": "currentQuota",
              "type": "uint128"
            },
            {
              "internalType": "uint128",
              "name": "pendingQuota",
              "type": "uint128"
            },
            {
              "internalType": "uint128",
              "name": "spentAmount",
              "type": "uint128"
            },
            {
              "internalType": "uint64",
              "name": "spentTimestamp",
              "type": "uint64"
            },
            {
              "internalType": "uint64",
              "name": "pendingUntil",
              "type": "uint64"
            }
          ],
          "internalType": "struct Quota",
          "name": "quota",
          "type": "tuple"
        }
      ],
      "stateMutability": "view",
      "type": "function"
    },
    {
      "inputs": [
        {
          "internalType": "address payable",
          "name": "withdrawAddress",
          "type": "address"
        },
        {
          "internalType": "uint256",
          "name": "amount",
          "type": "uint256"
        }
      ],
      "name": "withdrawDepositTo",
      "outputs": [],
      "stateMutability": "nonpayable",
      "type": "function"
    },
    {
      "stateMutability": "payable",
      "type": "receive"
    }
  ],
  "bytecode": "0x6101006040523480156200001257600080fd5b506040516200586a3803806200586a833981016040819052620000359162000183565b6000805460ff60a01b1916600160a01b1790556001600160a01b03811660e0526040805160a081018252600e606082019081526d131bdbdc1c9a5b99d5d85b1b195d60921b608083015281528151808301835260058152640322e302e360dc1b602082810191909152808301919091523092820192909252849184918491620000c891906200265e620000e8821b17901c565b608052506001600160a01b0391821660a0521660c05250620001d7915050565b805180516020918201208183015180519083012060409384015184517f8b73c3c69bb8fe3d512ecc4cf759cc79239f7b179b0ffacaa9a75d522b39400f818601528086019390935260608301919091524660808301526001600160a01b031660a0808301919091528351808303909101815260c0909101909252815191012090565b6001600160a01b03811681146200018057600080fd5b50565b6000806000606084860312156200019957600080fd5b8351620001a6816200016a565b6020850151909350620001b9816200016a565b6040850151909250620001cc816200016a565b809150509250925092565b60805160a05160c05160e0516155db6200028f6000396000611b3c015260008181610956015281816123dd015261240a01526000818161043301528181610e14015281816118c701528181611bff01526125cf0152600081816104b40152818161293001528181612a0801528181612a8301528181612acd01528181612b4801528181612bc301528181612c3e01528181612cb901528181612d3401528181612daf01528181612e2a0152612ea501526155db6000f3fe6080604052600436106102cd5760003560e01c80638fdbd17611610175578063c399ec88116100dc578063ecab718411610095578063f23a6e611161006f578063f23a6e6114610a6e578063f2fde38b14610a9a578063f83d08ba14610aba578063ff06ff5614610acf57600080fd5b8063ecab718414610a0e578063effbc49a14610a2e578063f1b43ae414610a4e57600080fd5b8063c399ec881461092f578063c948bb8a14610944578063d6bb65c214610978578063e43252d714610998578063e4c3d6b2146109b8578063e913d278146109d857600080fd5b8063affed0e01161012e578063affed0e014610861578063b0d691fe14610876578063b9806d991461088b578063ba324ac6146108ab578063bc197c81146108cb578063c274298f146108f757600080fd5b80638fdbd176146107ac5780639f4d88c6146107cc578063a1d7876f146107ec578063a526d83b1461080c578063a69df4b51461082c578063ab0b90f81461084157600080fd5b80634a58db19116102345780637de7edef116101ed578063893d20e8116101c7578063893d20e81461072e5780638962d66c1461074c5780638ab1d6811461076c5780638f22edf31461078c57600080fd5b80637de7edef146106ce5780637e45076f146106ee578063851f388f1461070e57600080fd5b80634a58db19146104f65780634d44560d146104fe57806350703cbc1461051e578063521eb2731461053e578063714041561461068e57806376ff3cd5146106ae57600080fd5b80631626ba7e116102865780631626ba7e146104015780632630c12f146104215780632e9feb791461045557806335dfcdbd146104825780633644e515146104a25780633af32abf146104d657600080fd5b8063016f91b3146102d957806301ffc9a7146102fb5780630206b4401461033057806304e80e901461035d5780630825d1fc1461038f578063150b7a02146103bd57600080fd5b366102d457005b600080fd5b3480156102e557600080fd5b506102f96102f4366004614325565b610aef565b005b34801561030757600080fd5b5061031b61031636600461437c565b610baa565b60405190151581526020015b60405180910390f35b34801561033c57600080fd5b5061035061034b3660046143a7565b610c17565b60405161032791906143c4565b34801561036957600080fd5b506000546001600160a01b03165b6040516001600160a01b039091168152602001610327565b34801561039b57600080fd5b506103af6103aa366004614447565b610c9a565b604051908152602001610327565b3480156103c957600080fd5b506103e86103d8366004614598565b630a85bd0160e11b949350505050565b6040516001600160e01b03199091168152602001610327565b34801561040d57600080fd5b506103e861041c366004614603565b610ce1565b34801561042d57600080fd5b506103777f000000000000000000000000000000000000000000000000000000000000000081565b34801561046157600080fd5b5061047561047036600461468a565b610d71565b604051610327919061474d565b34801561048e57600080fd5b506102f961049d366004614760565b610e95565b3480156104ae57600080fd5b506103af7f000000000000000000000000000000000000000000000000000000000000000081565b3480156104e257600080fd5b5061031b6104f13660046147b4565b610f4a565b6102f9610f57565b34801561050a57600080fd5b506102f96105193660046147d1565b610fbe565b34801561052a57600080fd5b506102f96105393660046147b4565b611095565b34801561054a57600080fd5b506001546002546004546007546040805160a0810182526008546001600160801b038082168352600160801b9182900481166020840152600954908116938301939093526001600160401b0390830481166060830152600160c01b92839004811660808301526105ea966001600160a01b0380821697600160a01b92839004841697909660ff909116959181169492810463ffffffff1693919004169088565b604080516001600160a01b03998a1681526001600160401b03988916602080830191909152818301989098529515156060808801919091529890941660808087019190915263ffffffff90931660a086015290861660c085015280516001600160801b0390811660e0860152948101518516610100850152918201519093166101208301529384015183166101408201529201511661016082015261018001610327565b34801561069a57600080fd5b506102f96106a93660046147b4565b611146565b3480156106ba57600080fd5b506102f96106c93660046147fd565b6111fc565b3480156106da57600080fd5b506102f96106e93660046147b4565b61128d565b3480156106fa57600080fd5b5061047561070936600461483e565b61135d565b34801561071a57600080fd5b506102f9610729366004614899565b61142c565b34801561073a57600080fd5b506001546001600160a01b0316610377565b34801561075857600080fd5b506102f96107673660046147b4565b6114ad565b34801561077857600080fd5b506102f96107873660046147b4565b611536565b34801561079857600080fd5b506102f96107a7366004614325565b6115ec565b3480156107b857600080fd5b506102f96107c73660046148b2565b611697565b3480156107d857600080fd5b506104756107e7366004614924565b61174f565b3480156107f857600080fd5b5061047561080736600461499f565b611824565b34801561081857600080fd5b506102f96108273660046147b4565b61194e565b34801561083857600080fd5b506102f9611a04565b34801561084d57600080fd5b5061031b61085c366004614a2e565b611aac565b34801561086d57600080fd5b506002546103af565b34801561088257600080fd5b50610377611b3a565b34801561089757600080fd5b506102f96108a6366004614a67565b611b5e565b3480156108b757600080fd5b506102f96108c6366004614aeb565b611c6b565b3480156108d757600080fd5b506103e86108e6366004614bab565b63bc197c8160e01b95945050505050565b34801561090357600080fd5b50600154600160a01b90046001600160401b03166040516001600160401b039091168152602001610327565b34801561093b57600080fd5b506103af611cea565b34801561095057600080fd5b506103777f000000000000000000000000000000000000000000000000000000000000000081565b34801561098457600080fd5b506102f9610993366004614c58565b611d63565b3480156109a457600080fd5b506102f96109b33660046147b4565b611fce565b3480156109c457600080fd5b506102f96109d3366004614325565b612084565b3480156109e457600080fd5b506103af6109f33660046147b4565b6001600160a01b03166000908152600a602052604090205490565b348015610a1a57600080fd5b506102f9610a293660046147b4565b6121d4565b348015610a3a57600080fd5b506102f9610a49366004614760565b61225d565b348015610a5a57600080fd5b506102f9610a69366004614899565b612324565b348015610a7a57600080fd5b506103e8610a89366004614cf9565b63f23a6e6160e01b95945050505050565b348015610aa657600080fd5b506102f9610ab53660046147b4565b6123d2565b348015610ac657600080fd5b506102f96124ec565b348015610adb57600080fd5b506102f9610aea366004614d61565b612542565b610af7611b3a565b6001600160a01b0316336001600160a01b031614610b305760405162461bcd60e51b8152600401610b2790614db4565b60405180910390fd5b610b3a60016126e0565b60405163c6bff82f60e01b815273__$f2b404c7a7921a817074d8ac6ceaeaa10f$__9063c6bff82f90610b769060019086908690600401614e34565b60006040518083038186803b158015610b8e57600080fd5b505af4158015610ba2573d6000803e3d6000fd5b505050505050565b60006001600160e01b03198216630b135d3f60e11b1480610bdb57506001600160e01b031982166301ffc9a760e01b145b80610bf657506001600160e01b03198216630a85bd0160e11b145b80610c1157506001600160e01b03198216630271189760e51b145b92915050565b6040516318d9ad7160e01b815260016004820152811515602482015260609073__$f2b404c7a7921a817074d8ac6ceaeaa10f$__906318d9ad7190604401600060405180830381865af4158015610c72573d6000803e3d6000fd5b505050506040513d6000823e601f3d908101601f19168201604052610c119190810190614e4e565b6000610ca4612748565b610caf8585856127b2565b9050610cbe6040860186614f38565b9050600003610cd057610cd085613031565b610cd9826130b0565b949350505050565b604051637d631ea160e01b815260009073__$10eec49550acd1772927999070d00f4110$__90637d631ea190610d2990600190630b135d3f60e11b9088908890600401614f7e565b602060405180830381865af4158015610d46573d6000803e3d6000fd5b505050506040513d601f19601f82011682018060405250810190610d6a9190614fac565b9392505050565b606033301480610dbc5750610d84611b3a565b6001600160a01b0316336001600160a01b03161480610dad57506001546001600160a01b031633145b8015610dbc575060045460ff16155b610dd85760405162461bcd60e51b8152600401610b2790614fc9565b610de260016126e0565b60405163fc55b67960e01b815273__$3bae378ac7918f3ebcf5b9fa7c88dbf4c5$__9063fc55b67990610e46906001907f0000000000000000000000000000000000000000000000000000000000000000908b908b908b908b908b90600401615048565b600060405180830381865af4158015610e63573d6000803e3d6000fd5b505050506040513d6000823e601f3d908101601f19168201604052610e8b9190810190615098565b9695505050505050565b610e9d611b3a565b6001600160a01b0316336001600160a01b031614610ecd5760405162461bcd60e51b8152600401610b2790614db4565b610ed760016126e0565b604051631b6b583560e21b815273__$763384fc16808d25871424ae9bfda46eaf$__90636dad60d490610f1590600190879087908790600401615105565b60006040518083038186803b158015610f2d57600080fd5b505af4158015610f41573d6000803e3d6000fd5b50505050505050565b6000610c116001836130fd565b610f5f611b3a565b60405163b760faf960e01b81523060048201526001600160a01b03919091169063b760faf99034906024016000604051808303818588803b158015610fa357600080fd5b505af1158015610fb7573d6000803e3d6000fd5b5050505050565b333014806110075750610fcf611b3a565b6001600160a01b0316336001600160a01b03161480610ff857506001546001600160a01b031633145b8015611007575060045460ff16155b6110235760405162461bcd60e51b8152600401610b2790614fc9565b61102d60016126e0565b611035611b3a565b60405163040b850f60e31b81526001600160a01b03848116600483015260248201849052919091169063205c287890604401600060405180830381600087803b15801561108157600080fd5b505af1158015610ba2573d6000803e3d6000fd5b61109d611b3a565b6001600160a01b0316336001600160a01b0316146110cd5760405162461bcd60e51b8152600401610b2790614db4565b6110d760016126e0565b604051639b33693760e01b8152600160048201526001600160a01b038216602482015273__$006aea4b504c5b07945b39dcf137360784$__90639b336937906044015b60006040518083038186803b15801561113257600080fd5b505af4158015610fb7573d6000803e3d6000fd5b3330148061118f5750611157611b3a565b6001600160a01b0316336001600160a01b0316148061118057506001546001600160a01b031633145b801561118f575060045460ff16155b6111ab5760405162461bcd60e51b8152600401610b2790614fc9565b6111b560016126e0565b60405163ee3da3e360e01b8152600160048201526001600160a01b038216602482015273__$f2b404c7a7921a817074d8ac6ceaeaa10f$__9063ee3da3e39060440161111a565b611204611b3a565b6001600160a01b0316336001600160a01b0316146112345760405162461bcd60e51b8152600401610b2790614db4565b61123e60016126e0565b6040516376ff3cd560e01b81526001600160a01b038085166004830152831660248201526044810182905273__$3bae378ac7918f3ebcf5b9fa7c88dbf4c5$__906376ff3cd590606401610f15565b611295611b3a565b6001600160a01b0316336001600160a01b0316146112c55760405162461bcd60e51b8152600401610b2790614db4565b6112cf60016126e0565b604051637de7edef60e01b81526001600160a01b038216600482015273__$ce61dfc130c455683cabe9b2f155077d2b$__90637de7edef9060240160006040518083038186803b15801561132257600080fd5b505af4158015611336573d6000803e3d6000fd5b5050600080546001600160a01b0319166001600160a01b0394909416939093179092555050565b6060611367611b3a565b6001600160a01b0316336001600160a01b0316146113975760405162461bcd60e51b8152600401610b2790614db4565b6113a160016126e0565b604051637e45076f60e01b815273__$3bae378ac7918f3ebcf5b9fa7c88dbf4c5$__90637e45076f906113de908890889088908890600401615130565b600060405180830381865af41580156113fb573d6000803e3d6000fd5b505050506040513d6000823e601f3d908101601f191682016040526114239190810190615098565b95945050505050565b611434611b3a565b6001600160a01b0316336001600160a01b0316146114645760405162461bcd60e51b8152600401610b2790614db4565b61146e60016126e0565b6040516399154f6360e01b8152600160048201526024810182905273__$01401a13a855a3a8506d84ffec976eac8a$__906399154f639060440161111a565b6114b5611b3a565b6001600160a01b0316336001600160a01b0316146114e55760405162461bcd60e51b8152600401610b2790614db4565b6114ef60016126e0565b60405163064896d560e01b8152600160048201526001600160a01b038216602482015273__$f2b404c7a7921a817074d8ac6ceaeaa10f$__9063064896d59060440161111a565b3330148061157f5750611547611b3a565b6001600160a01b0316336001600160a01b0316148061157057506001546001600160a01b031633145b801561157f575060045460ff16155b61159b5760405162461bcd60e51b8152600401610b2790614fc9565b6115a560016126e0565b604051639509eea560e01b8152600160048201526001600160a01b038216602482015273__$006aea4b504c5b07945b39dcf137360784$__90639509eea59060440161111a565b3330148061163557506115fd611b3a565b6001600160a01b0316336001600160a01b0316148061162657506001546001600160a01b031633145b8015611635575060045460ff16155b6116515760405162461bcd60e51b8152600401610b2790614fc9565b61165b60016126e0565b6040516328c8093560e01b815273__$f2b404c7a7921a817074d8ac6ceaeaa10f$__906328c8093590610b769060019086908690600401614e34565b61169f611b3a565b6001600160a01b0316336001600160a01b0316146116cf5760405162461bcd60e51b8152600401610b2790614db4565b6116d960016126e0565b6040516347ede8bb60e11b815273__$3bae378ac7918f3ebcf5b9fa7c88dbf4c5$__90638fdbd176906117189088908890889088908890600401615158565b60006040518083038186803b15801561173057600080fd5b505af4158015611744573d6000803e3d6000fd5b505050505050505050565b6060611759611b3a565b6001600160a01b0316336001600160a01b0316146117895760405162461bcd60e51b8152600401610b2790614db4565b61179360016126e0565b604051634fa6c46360e11b815273__$3bae378ac7918f3ebcf5b9fa7c88dbf4c5$__90639f4d88c6906117d4908a908a908a908a908a908a9060040161518c565b600060405180830381865af41580156117f1573d6000803e3d6000fd5b505050506040513d6000823e601f3d908101601f191682016040526118199190810190615098565b979650505050505050565b60603330148061186f5750611837611b3a565b6001600160a01b0316336001600160a01b0316148061186057506001546001600160a01b031633145b801561186f575060045460ff16155b61188b5760405162461bcd60e51b8152600401610b2790614fc9565b61189560016126e0565b6040516315c2776760e11b815273__$3bae378ac7918f3ebcf5b9fa7c88dbf4c5$__90632b84eece906118fd906001907f0000000000000000000000000000000000000000000000000000000000000000908d908d908d908d908d908d908d906004016151c7565b600060405180830381865af415801561191a573d6000803e3d6000fd5b505050506040513d6000823e601f3d908101601f191682016040526119429190810190615098565b98975050505050505050565b33301480611997575061195f611b3a565b6001600160a01b0316336001600160a01b0316148061198857506001546001600160a01b031633145b8015611997575060045460ff16155b6119b35760405162461bcd60e51b8152600401610b2790614fc9565b6119bd60016126e0565b604051632e7637c560e21b8152600160048201526001600160a01b038216602482015273__$f2b404c7a7921a817074d8ac6ceaeaa10f$__9063b9d8df149060440161111a565b611a0c611b3a565b6001600160a01b0316336001600160a01b031614611a3c5760405162461bcd60e51b8152600401610b2790614db4565b611a4660016126e0565b6040516370bd420b60e11b81526001600482015273__$9cdd2bb4eb8fc7640330c31d87b546fc51$__9063e17a8416906024015b60006040518083038186803b158015611a9257600080fd5b505af4158015611aa6573d6000803e3d6000fd5b50505050565b60405163a643b10760e01b8152600160048201526001600160a01b0383166024820152811515604482015260009073__$f2b404c7a7921a817074d8ac6ceaeaa10f$__9063a643b10790606401602060405180830381865af4158015611b16573d6000803e3d6000fd5b505050506040513d601f19601f82011682018060405250810190610d6a919061522a565b7f000000000000000000000000000000000000000000000000000000000000000090565b33301480611ba75750611b6f611b3a565b6001600160a01b0316336001600160a01b03161480611b9857506001546001600160a01b031633145b8015611ba7575060045460ff16155b611bc35760405162461bcd60e51b8152600401610b2790614fc9565b611bcd60016126e0565b60405163c5354f8b60e01b815273__$3bae378ac7918f3ebcf5b9fa7c88dbf4c5$__9063c5354f8b90611c33906001907f0000000000000000000000000000000000000000000000000000000000000000908b908b908b908b908b908b90600401615247565b60006040518083038186803b158015611c4b57600080fd5b505af4158015611c5f573d6000803e3d6000fd5b50505050505050505050565b33301480611cb45750611c7c611b3a565b6001600160a01b0316336001600160a01b03161480611ca557506001546001600160a01b031633145b8015611cb4575060045460ff16155b611cd05760405162461bcd60e51b8152600401610b2790614fc9565b611cda60016126e0565b611ce66001838361312c565b5050565b6000611cf4611b3a565b6040516370a0823160e01b81523060048201526001600160a01b0391909116906370a0823190602401602060405180830381865afa158015611d3a573d6000803e3d6000fd5b505050506040513d601f19601f82011682018060405250810190611d5e91906152a0565b905090565b600054600160a01b900460ff1615611dcb5760405162461bcd60e51b815260206004820152602560248201527f444953414c4c4f5745445f4f4e5f494d504c454d454e544154494f4e5f434f4e60448201526415149050d560da1b6064820152608401610b27565b6001546001600160a01b031615611e1a5760405162461bcd60e51b8152602060048201526013602482015272494e495449414c495a45445f414c524541445960681b6044820152606401610b27565b6001600160a01b038816611e605760405162461bcd60e51b815260206004820152600d60248201526c24a72b20a624a22fa7aba722a960991b6044820152606401610b27565b600180546001600160401b034216600160a01b026001600160e01b03199091166001600160a01b038b1617178155604051635a79097d60e11b815273__$f2b404c7a7921a817074d8ac6ceaeaa10f$__9163b4f212fa91611ec891908b908b90600401614e34565b60006040518083038186803b158015611ee057600080fd5b505af4158015611ef4573d6000803e3d6000fd5b5050505084600014611f0d57611f0d6001866000613277565b6001600160a01b03841615611f2c57611f2c6001856301e1338061312c565b6001600160a01b03831615801590611f445750600081115b15611fc4576040516317d5759960e31b81526001600160a01b038084166004830152841660248201526044810182905273__$3bae378ac7918f3ebcf5b9fa7c88dbf4c5$__9063beabacc89060640160006040518083038186803b158015611fab57600080fd5b505af4158015611fbf573d6000803e3d6000fd5b505050505b5050505050505050565b333014806120175750611fdf611b3a565b6001600160a01b0316336001600160a01b0316148061200857506001546001600160a01b031633145b8015612017575060045460ff16155b6120335760405162461bcd60e51b8152600401610b2790614fc9565b61203d60016126e0565b60405163f42a9d4160e01b8152600160048201526001600160a01b038216602482015273__$006aea4b504c5b07945b39dcf137360784$__9063f42a9d419060440161111a565b333014806120cd5750612095611b3a565b6001600160a01b0316336001600160a01b031614806120be57506001546001600160a01b031633145b80156120cd575060045460ff16155b6120e95760405162461bcd60e51b8152600401610b2790614fc9565b6120f360016126e0565b60005b818110156121cf57600030848484818110612113576121136152b9565b90506020028101906121259190614f38565b6040516121339291906152cf565b6000604051808303816000865af19150503d8060008114612170576040519150601f19603f3d011682016040523d82523d6000602084013e612175565b606091505b50509050806121bc5760405162461bcd60e51b815260206004820152601360248201527210905510d2115117d0d0531317d19052531151606a1b6044820152606401610b27565b50806121c7816152f5565b9150506120f6565b505050565b6121dc611b3a565b6001600160a01b0316336001600160a01b03161461220c5760405162461bcd60e51b8152600401610b2790614db4565b61221660016126e0565b60405163a786083960e01b8152600160048201526001600160a01b038216602482015273__$f2b404c7a7921a817074d8ac6ceaeaa10f$__9063a78608399060440161111a565b612265611b3a565b6001600160a01b0316336001600160a01b0316148061228e57506007546001600160a01b031633145b6122e65760405162461bcd60e51b8152602060048201526024808201527f6163636f756e743a206e6f7420456e747279506f696e74206f7220696e68657260448201526334ba37b960e11b6064820152608401610b27565b60405163f7c204d760e01b815273__$d195895a99a0141cdef7bd4487c9956530$__9063f7c204d790610f1590600190879087908790600401615105565b3330148061236d5750612335611b3a565b6001600160a01b0316336001600160a01b0316148061235e57506001546001600160a01b031633145b801561236d575060045460ff16155b6123895760405162461bcd60e51b8152600401610b2790614fc9565b61239360016126e0565b604051631ca45e2d60e31b8152600160048201526024810182905273__$01401a13a855a3a8506d84ffec976eac8a$__9063e522f1689060440161111a565b336001600160a01b037f00000000000000000000000000000000000000000000000000000000000000001614801561243857506001547f00000000000000000000000000000000000000000000000000000000000000006001600160a01b039081169116145b6124845760405162461bcd60e51b815260206004820152601860248201527f4e4f545f414c4c4f5745445f544f5f5345545f4f574e455200000000000000006044820152606401610b27565b6001600160a01b0381166124ca5760405162461bcd60e51b815260206004820152600d60248201526c24a72b20a624a22fa7aba722a960991b6044820152606401610b27565b600180546001600160a01b0319166001600160a01b0392909216919091179055565b73__$9cdd2bb4eb8fc7640330c31d87b546fc51$__63779485936001612510611b3a565b6040516001600160e01b031960e085901b16815260048101929092526001600160a01b03166024820152604401611a7a565b3330148061258b5750612553611b3a565b6001600160a01b0316336001600160a01b0316148061257c57506001546001600160a01b031633145b801561258b575060045460ff16155b6125a75760405162461bcd60e51b8152600401610b2790614fc9565b6125b160016126e0565b604051633b39d10d60e01b8152600160048201526001600160a01b037f0000000000000000000000000000000000000000000000000000000000000000811660248301528086166044830152841660648201526084810183905281151560a482015273__$3bae378ac7918f3ebcf5b9fa7c88dbf4c5$__90633b39d10d9060c40160006040518083038186803b15801561264a57600080fd5b505af4158015611fc4573d6000803e3d6000fd5b805180516020918201208183015180519083012060409384015184517f8b73c3c69bb8fe3d512ecc4cf759cc79239f7b179b0ffacaa9a75d522b39400f818601528086019390935260608301919091524660808301526001600160a01b031660a0808301919091528351808303909101815260c0909101909252815191012090565b60068101546001600160a01b03161580159061271d5750600681015461271a9062278d0090600160c01b90046001600160401b031661530e565b42115b15612745576006810180546001600160c01b0316600160c01b426001600160401b0316021790555b50565b612750611b3a565b6001600160a01b0316336001600160a01b0316146127b05760405162461bcd60e51b815260206004820152601c60248201527f6163636f756e743a206e6f742066726f6d20456e747279506f696e74000000006044820152606401610b27565b565b60008061280c846040517f19457468657265756d205369676e6564204d6573736167653a0a3332000000006020820152603c8101829052600090605c01604051602081830303815290604052805190602001209050919050565b9050600061285e816128216060890189614f38565b8080601f01602080910402602001604051908101604052809392919081815260200183838082843760009201919091525092939250506133db9050565b9050612869866133fe565b15612f2357600061287d6060880188614f38565b61288b916004908290615321565b8080601f01602080910402602001604051908101604052809392919081815260200183838082843760009201829052509394506128d092505050610140890189614f38565b8101906128dd91906153ca565b9050631da74a6560e21b6001600160e01b03198416016129b75760408082015190516325f3251f60e21b815260009173__$f2b404c7a7921a817074d8ac6ceaeaa10f$__916397cc947c9161295a9187917f0000000000000000000000000000000000000000000000000000000000000000918e906004016154c2565b602060405180830381865af4158015612977573d6000803e3d6000fd5b505050506040513d601f19601f8201168201806040525081019061299b91906152a0565b90506129ab600182600285613557565b95505050505050610d6a565b6304d5239f60e21b6001600160e01b0319841601612a325760408082015190516354fd775960e01b815260009173__$f2b404c7a7921a817074d8ac6ceaeaa10f$__916354fd77599161295a9187917f0000000000000000000000000000000000000000000000000000000000000000918e906004016154c2565b63fe906e4d60e01b6001600160e01b0319841601612aad57604080820151905163024bcad960e21b815260009173__$f2b404c7a7921a817074d8ac6ceaeaa10f$__9163092f2b649161295a9187917f0000000000000000000000000000000000000000000000000000000000000000918e906004016154c2565b637ae0c77160e01b6001600160e01b0319841601612af757600061299b837f000000000000000000000000000000000000000000000000000000000000000084604001518b613612565b632be3f0d160e21b6001600160e01b0319841601612b7257604080820151905163e8a8b78160e01b815260009173__$006aea4b504c5b07945b39dcf137360784$__9163e8a8b7819161295a9187917f0000000000000000000000000000000000000000000000000000000000000000918e906004016154c2565b633812174560e11b6001600160e01b0319841601612bed57604080820151905163372c761160e01b815260009173__$3bae378ac7918f3ebcf5b9fa7c88dbf4c5$__9163372c76119161295a9187917f0000000000000000000000000000000000000000000000000000000000000000918e906004016154c2565b6381baf89160e01b6001600160e01b0319841601612c685760408082015190516320a2c84360e01b815260009173__$3bae378ac7918f3ebcf5b9fa7c88dbf4c5$__916320a2c8439161295a9187917f0000000000000000000000000000000000000000000000000000000000000000918e906004016154c2565b638900c32b60e01b6001600160e01b0319841601612ce3576040808201519051631750aa5360e01b815260009173__$3bae378ac7918f3ebcf5b9fa7c88dbf4c5$__91631750aa539161295a9187917f0000000000000000000000000000000000000000000000000000000000000000918e906004016154c2565b6330593b9d60e11b6001600160e01b0319841601612d5e57604080820151905163f521e72f60e01b815260009173__$3bae378ac7918f3ebcf5b9fa7c88dbf4c5$__9163f521e72f9161295a9187917f0000000000000000000000000000000000000000000000000000000000000000918e906004016154c2565b6359620b4b60e01b6001600160e01b0319841601612dd95760408082015190516328f7cb9360e01b815260009173__$9cdd2bb4eb8fc7640330c31d87b546fc51$__916328f7cb939161295a9187917f0000000000000000000000000000000000000000000000000000000000000000918e906004016154c2565b638218121160e01b6001600160e01b0319841601612e545760408082015190516325fcfaf560e21b815260009173__$ce61dfc130c455683cabe9b2f155077d2b$__916397f3ebd49161295a9187917f0000000000000000000000000000000000000000000000000000000000000000918e906004016154c2565b63ca20324360e01b6001600160e01b0319841601612f20576040808201519051630bc9943560e31b815260009173__$763384fc16808d25871424ae9bfda46eaf$__91635e4ca1a891612ecf9187917f0000000000000000000000000000000000000000000000000000000000000000918e906004016154c2565b602060405180830381865af4158015612eec573d6000803e3d6000fd5b505050506040513d601f19601f82011682018060405250810190612f1091906152a0565b90506129ab600182600085613557565b50505b6308021db360e11b6001600160e01b0319821601612fb257600754612f97906001600160a01b0316612f59610140890189614f38565b8080601f01602080910402602001604051908101604052809392919081815260200183838082843760009201919091525087949392505061369a9050565b15612fa757600092505050610d6a565b600192505050610d6a565b60045460ff1615612ff85760405162461bcd60e51b815260206004820152601060248201526f1dd85b1b195d081a5cc81b1bd8dad95960821b6044820152606401610b27565b600154613016906001600160a01b0316612f59610140890189614f38565b61302557600192505050610d6a565b50600095945050505050565b60208101351580156130475750613047816133fe565b1561304f5750565b600254602082013511801561306b575043602082013560801c11155b6130a75760405162461bcd60e51b815260206004820152600d60248201526c696e76616c6964206e6f6e636560981b6044820152606401610b27565b60200135600255565b801561274557604051600090339060001990849084818181858888f193505050503d8060008114610fb7576040519150601f19603f3d011682016040523d82523d6000602084013e610fb7565b6001600160a01b03811660009081526009830160205260408120548015801590610cd957504210159392505050565b6001600160a01b03821661318c5763ffffffff8116156131875760405162461bcd60e51b81526020600482015260166024820152751253959053125117d5d05255125391d7d411549253d160521b6044820152606401610b27565b6131de565b62278d008163ffffffff1610156131de5760405162461bcd60e51b81526020600482015260166024820152751253959053125117d5d05255125391d7d411549253d160521b6044820152606401610b27565b306001600160a01b038316036132255760405162461bcd60e51b815260206004820152600c60248201526b494e56414c49445f4152475360a01b6044820152606401610b27565b600690920180546001600160401b034216600160c01b026001600160c01b0363ffffffff909516600160a01b026001600160c01b03199092166001600160a01b03909416939093171792909216179055565b6001600160801b038211156132be5760405162461bcd60e51b815260206004820152600d60248201526c494e56414c49445f56414c554560981b6044820152606401610b27565b6ffffffffffffffffffffffffffffffffe1982016132db57600091505b60006132e6846136e3565b90508281101580156132f757508215155b80613300575080155b1561330a57600091505b600784016133178261374c565b81546fffffffffffffffffffffffffffffffff19166001600160801b03919091161781556133448461374c565b81546001600160801b03918216600160801b029116178155613365836137b5565b6001820180546001600160c01b0316600160c01b6001600160401b0393841681029190911791829055604080513081526020810189905291909204909216908201527ff4109b774ae6f56e72fe6cb9396e75bc9017595ac0797f852334dbd0db2fa5b69060600160405180910390a15050505050565b60006133e882600461530e565b835110156133f557600080fd5b50016020015190565b600080613412816128216060860186614f38565b90506001600160e01b03198116637de7edef60e01b148061344357506001600160e01b03198116632258b59b60e21b145b8061345e57506001600160e01b03198116633b2adc6160e21b145b8061347957506001600160e01b0319811663016f91b360e01b145b8061349457506001600160e01b0319811663a69df4b560e01b145b806134af57506001600160e01b0319811663851f388f60e01b145b806134ca57506001600160e01b031981166335dfcdbd60e01b145b806134e557506001600160e01b0319811663141c0f2f60e21b145b8061350057506001600160e01b031981166347ede8bb60e11b145b8061351b57506001600160e01b03198116637e45076f60e01b145b8061353657506001600160e01b031981166376ff3cd560e01b145b80610d6a57506001600160e01b03198116634fa6c46360e11b149392505050565b600083815260028501602052604081205460ff16156135a55760405162461bcd60e51b815260206004820152600a602482015269121054d217d1561254d560b21b6044820152606401610b27565b60008481526002860160209081526040909120805460ff191660011790558251908301516135d491869161381e565b80156135ea57506135ea8583600001518561396b565b1561360757613600600083604001516000613d19565b9050610cd9565b506001949350505050565b6000808580602001905181019061362991906152a0565b604080517f650344db640b5d414d0d511021434441e781b838ea9c1e7d4d2088e6c4d92d5260208201523091810191909152606081018690526080810182905260a0810185905290915060009061181990879060c00160405160208183030381529060405280519060200120613d41565b60006001600160a01b0383166136b257506000610d6a565b6136c4836001600160a01b0316613d90565b6136d8576136d3848484613dc7565b610cd9565b610cd9848484613ef7565b6040805160a08101825260078301546001600160801b038082168352600160801b91829004811660208401526008850154908116938301939093526001600160401b0390830481166060830152600160c01b9092049091166080820152600090610c1190613fe8565b6000600160801b82106137b15760405162461bcd60e51b815260206004820152602760248201527f53616665436173743a2076616c756520646f65736e27742066697420696e20316044820152663238206269747360c81b6064820152608401610b27565b5090565b60006801000000000000000082106137b15760405162461bcd60e51b815260206004820152602660248201527f53616665436173743a2076616c756520646f65736e27742066697420696e203660448201526534206269747360d01b6064820152608401610b27565b600081518351146138665760405162461bcd60e51b81526020600482015260126024820152714241445f5349474e41545552455f4441544160701b6044820152606401610b27565b6000805b845181101561395f57816001600160a01b031685828151811061388f5761388f6152b9565b60200260200101516001600160a01b0316116138e55760405162461bcd60e51b815260206004820152601560248201527424a72b20a624a22fa9a4a3a722a929afa7a92222a960591b6044820152606401610b27565b8481815181106138f7576138f76152b9565b6020026020010151915061393e86868381518110613917576139176152b9565b6020026020010151868481518110613931576139316152b9565b602002602001015161369a565b61394d57600092505050610d6a565b80613957816152f5565b91505061386a565b50600195945050505050565b6000825160000361397e57506000610d6a565b600061398b85600061401b565b905060008151116139cd5760405162461bcd60e51b815260206004820152600c60248201526b4e4f5f475541524449414e5360a01b6044820152606401610b27565b845460009081906001600160a01b0316815b8751811015613b8057836001600160a01b0316888281518110613a0457613a046152b9565b60200260200101516001600160a01b031611613a5a5760405162461bcd60e51b815260206004820152601560248201527424a72b20a624a22fa9a4a3a722a929afa7a92222a960591b6044820152606401610b27565b878181518110613a6c57613a6c6152b9565b60200260200101519350816001600160a01b0316888281518110613a9257613a926152b9565b60200260200101516001600160a01b031603613ab15760019250613b6e565b6000805b8651811015613b2857898381518110613ad057613ad06152b9565b60200260200101516001600160a01b0316878281518110613af357613af36152b9565b6020026020010151600001516001600160a01b031603613b165760019150613b28565b80613b20816152f5565b915050613ab5565b5080613b6c5760405162461bcd60e51b815260206004820152601360248201527229a4a3a722a92fa727aa2fa3aaa0a92224a0a760691b6044820152606401610b27565b505b80613b78816152f5565b9150506139df565b506003866004811115613b9557613b956154f1565b03613baa578651600114945050505050610d6a565b6004866004811115613bbe57613bbe6154f1565b03613bf1578115613be15760405162461bcd60e51b8152600401610b2790615507565b8651600114945050505050610d6a565b6002866004811115613c0557613c056154f1565b03613c5c5781613c575760405162461bcd60e51b815260206004820152601f60248201527f57414c4c45545f4f574e45525f5349474e41545552455f5245515549524544006044820152606401610b27565b613c93565b6000866004811115613c7057613c706154f1565b03613c93578115613c935760405162461bcd60e51b8152600401610b2790615507565b83518215613cf957613ca660018261530e565b90506001885111613cf95760405162461bcd60e51b815260206004820181905260248201527f4e4f5f475541524449414e5f5349474e45445f424553494445535f4f574e45526044820152606401610b27565b613d07600182811c9061530e565b88511015955050505050509392505050565b6000604882901b600884901b85613d31576000613d34565b60015b60ff161717949350505050565b600060405180604001604052806002815260200161190160f01b8152508383604051602001613d7293929190615549565b60405160208183030381529060405280519060200120905092915050565b6000813f8015801590610d6a57507fc5d2460186f7233c927e7db2dcc703c0e500b653ca82273b7bfad8045d85a470141592915050565b60006001600160a01b038316613ddf57506000610d6a565b815160411480613df0575081516042145b613e3c5760405162461bcd60e51b815260206004820152601860248201527f494e56414c49445f5349474e41545552455f4c454e47544800000000000000006044820152606401610b27565b60008251604203613e4f57506041825260015b613e598584614158565b6001600160a01b0316846001600160a01b031614915081613ee4576040517f19457468657265756d205369676e6564204d6573736167653a0a3332000000006020820152603c8101869052600090605c01604051602081830303815290604052805190602001209050613ecc8185614158565b6001600160a01b0316856001600160a01b0316149250505b8015613eef57604283525b509392505050565b600080631626ba7e60e01b8584604051602401613f15929190615570565b604051602081830303815290604052906001600160e01b0319166020820180516001600160e01b0383818316178352505050509050600080856001600160a01b031683604051613f659190615589565b600060405180830381855afa9150503d8060008114613fa0576040519150601f19603f3d011682016040523d82523d6000602084013e613fa5565b606091505b5091509150818015613fb8575080516020145b80156118195750630b135d3f60e11b613fd28260006133db565b6001600160e01b03191614979650505050505050565b60004282608001516001600160401b0316111561400657815161400c565b81602001515b6001600160801b031692915050565b60048201546060906001600160401b0381111561403a5761403a6144ad565b60405190808252806020026020018201604052801561408557816020015b60408051606081018252600080825260208083018290529282015282526000199092019101816140585790505b5090506000805b600485015481101561414f5760008560040182815481106140af576140af6152b9565b60009182526020918290206040805160608101825291909201546001600160a01b038116825260ff600160a01b820416938201939093526001600160401b03600160a81b9093049290921690820152905061410a818661423e565b1561413c5780848481518110614122576141226152b9565b60200260200101819052508280614138906152f5565b9350505b5080614147816152f5565b91505061408c565b50815292915050565b6000815160411461416b57506000610c11565b60208201516040830151604184015160ff167f7fffffffffffffffffffffffffffffff5d576e7357a4501ddfe92f46681b20a08211156141b15760009350505050610c11565b8060ff16601b14806141c657508060ff16601c145b156142325760408051600081526020810180835288905260ff831691810191909152606081018490526080810183905260019060a0016020604051602081039080840390855afa15801561421e573d6000803e3d6000fd5b505050602060405103519350505050610c11565b60009350505050610c11565b600061424983614260565b80610d6a5750818015610d6a5750610d6a8361427a565b600061426b826142a7565b80610c115750610c11826142d2565b600060015b60ff16826020015160ff16148015610c1157505060400151426001600160401b039091161190565b602081015160009060ff166001148015610c1157505060400151426001600160401b03909116111590565b60008061427f565b60008083601f8401126142ec57600080fd5b5081356001600160401b0381111561430357600080fd5b6020830191508360208260051b850101111561431e57600080fd5b9250929050565b6000806020838503121561433857600080fd5b82356001600160401b0381111561434e57600080fd5b61435a858286016142da565b90969095509350505050565b6001600160e01b03198116811461274557600080fd5b60006020828403121561438e57600080fd5b8135610d6a81614366565b801515811461274557600080fd5b6000602082840312156143b957600080fd5b8135610d6a81614399565b602080825282518282018190526000919060409081850190868401855b8281101561442557815180516001600160a01b031685528681015160ff16878601528501516001600160401b031685850152606090930192908501906001016143e1565b5091979650505050505050565b6001600160a01b038116811461274557600080fd5b6000806000806080858703121561445d57600080fd5b84356001600160401b0381111561447357600080fd5b8501610160818803121561448657600080fd5b935060208501359250604085013561449d81614432565b9396929550929360600135925050565b634e487b7160e01b600052604160045260246000fd5b604051606081016001600160401b03811182821017156144e5576144e56144ad565b60405290565b604051601f8201601f191681016001600160401b0381118282101715614513576145136144ad565b604052919050565b60006001600160401b03821115614534576145346144ad565b50601f01601f191660200190565b600082601f83011261455357600080fd5b81356145666145618261451b565b6144eb565b81815284602083860101111561457b57600080fd5b816020850160208301376000918101602001919091529392505050565b600080600080608085870312156145ae57600080fd5b84356145b981614432565b935060208501356145c981614432565b92506040850135915060608501356001600160401b038111156145eb57600080fd5b6145f787828801614542565b91505092959194509250565b6000806040838503121561461657600080fd5b8235915060208301356001600160401b0381111561463357600080fd5b61463f85828601614542565b9150509250929050565b60008083601f84011261465b57600080fd5b5081356001600160401b0381111561467257600080fd5b60208301915083602082850101111561431e57600080fd5b6000806000806000608086880312156146a257600080fd5b85356146ad81614432565b94506020860135935060408601356001600160401b038111156146cf57600080fd5b6146db88828901614649565b90945092505060608601356146ef81614399565b809150509295509295909350565b60005b83811015614718578181015183820152602001614700565b50506000910152565b600081518084526147398160208601602086016146fd565b601f01601f19169290920160200192915050565b602081526000610d6a6020830184614721565b60008060006040848603121561477557600080fd5b833561478081614432565b925060208401356001600160401b0381111561479b57600080fd5b6147a7868287016142da565b9497909650939450505050565b6000602082840312156147c657600080fd5b8135610d6a81614432565b600080604083850312156147e457600080fd5b82356147ef81614432565b946020939093013593505050565b60008060006060848603121561481257600080fd5b833561481d81614432565b9250602084013561482d81614432565b929592945050506040919091013590565b6000806000806060858703121561485457600080fd5b843561485f81614432565b93506020850135925060408501356001600160401b0381111561488157600080fd5b61488d87828801614649565b95989497509550505050565b6000602082840312156148ab57600080fd5b5035919050565b6000806000806000608086880312156148ca57600080fd5b85356148d581614432565b945060208601356148e581614432565b93506040860135925060608601356001600160401b0381111561490757600080fd5b61491388828901614649565b969995985093965092949392505050565b60008060008060008060a0878903121561493d57600080fd5b863561494881614432565b9550602087013561495881614432565b9450604087013593506060870135925060808701356001600160401b0381111561498157600080fd5b61498d89828a01614649565b979a9699509497509295939492505050565b600080600080600080600060c0888a0312156149ba57600080fd5b87356149c581614432565b965060208801356149d581614432565b9550604088013594506060880135935060808801356001600160401b038111156149fe57600080fd5b614a0a8a828b01614649565b90945092505060a0880135614a1e81614399565b8091505092959891949750929550565b60008060408385031215614a4157600080fd5b8235614a4c81614432565b91506020830135614a5c81614399565b809150509250929050565b60008060008060008060a08789031215614a8057600080fd5b8635614a8b81614432565b95506020870135614a9b81614432565b94506040870135935060608701356001600160401b03811115614abd57600080fd5b614ac989828a01614649565b9094509250506080870135614add81614399565b809150509295509295509295565b60008060408385031215614afe57600080fd5b8235614b0981614432565b9150602083013563ffffffff81168114614a5c57600080fd5b60006001600160401b03821115614b3b57614b3b6144ad565b5060051b60200190565b600082601f830112614b5657600080fd5b81356020614b6661456183614b22565b82815260059290921b84018101918181019086841115614b8557600080fd5b8286015b84811015614ba05780358352918301918301614b89565b509695505050505050565b600080600080600060a08688031215614bc357600080fd5b8535614bce81614432565b94506020860135614bde81614432565b935060408601356001600160401b0380821115614bfa57600080fd5b614c0689838a01614b45565b94506060880135915080821115614c1c57600080fd5b614c2889838a01614b45565b93506080880135915080821115614c3e57600080fd5b50614c4b88828901614542565b9150509295509295909350565b60008060008060008060008060e0898b031215614c7457600080fd5b8835614c7f81614432565b975060208901356001600160401b03811115614c9a57600080fd5b614ca68b828c016142da565b909850965050604089013594506060890135614cc181614432565b93506080890135614cd181614432565b925060a0890135614ce181614432565b8092505060c089013590509295985092959890939650565b600080600080600060a08688031215614d1157600080fd5b8535614d1c81614432565b94506020860135614d2c81614432565b9350604086013592506060860135915060808601356001600160401b03811115614d5557600080fd5b614c4b88828901614542565b60008060008060808587031215614d7757600080fd5b8435614d8281614432565b93506020850135614d9281614432565b9250604085013591506060850135614da981614399565b939692955090935050565b60208082526017908201527f6163636f756e743a206e6f7420456e747279506f696e74000000000000000000604082015260600190565b8183526000602080850194508260005b85811015614e29578135614e0e81614432565b6001600160a01b031687529582019590820190600101614dfb565b509495945050505050565b838152604060208201526000611423604083018486614deb565b60006020808385031215614e6157600080fd5b82516001600160401b0380821115614e7857600080fd5b818501915085601f830112614e8c57600080fd5b8151614e9a61456182614b22565b81815260609182028401850191858201919089841115614eb957600080fd5b948601945b83861015614f2b5780868b031215614ed65760008081fd5b614ede6144c3565b8651614ee981614432565b81528688015160ff81168114614eff5760008081fd5b818901526040878101518781168114614f185760008081fd5b9082015283529485019491860191614ebe565b5098975050505050505050565b6000808335601e19843603018112614f4f57600080fd5b8301803591506001600160401b03821115614f6957600080fd5b60200191503681900382131561431e57600080fd5b84815263ffffffff60e01b84166020820152826040820152608060608201526000610e8b6080830184614721565b600060208284031215614fbe57600080fd5b8151610d6a81614366565b60208082526036908201527f6163636f756e743a206e6f74204f776e65722c2053656c66206f7220456e74726040820152751e541bda5b9d081bdc881a5d081a5cc81b1bd8dad95960521b606082015260800190565b81835281816020850137506000828201602090810191909152601f909101601f19169091010190565b8781526001600160a01b038781166020830152861660408201526060810185905260c060808201819052600090615082908301858761501f565b905082151560a083015298975050505050505050565b6000602082840312156150aa57600080fd5b81516001600160401b038111156150c057600080fd5b8201601f810184136150d157600080fd5b80516150df6145618261451b565b8181528560208385010111156150f457600080fd5b6114238260208301602086016146fd565b8481526001600160a01b0384166020820152606060408201819052600090610e8b9083018486614deb565b60018060a01b0385168152836020820152606060408201526000610e8b60608301848661501f565b6001600160a01b0386811682528516602082015260408101849052608060608201819052600090611819908301848661501f565b6001600160a01b03878116825286166020820152604081018590526060810184905260a060808201819052600090611942908301848661501f565b8981526001600160a01b0389811660208301528881166040830152871660608201526080810186905260a0810185905261010060c08201819052600090615211838201868861501f565b91505082151560e08301529a9950505050505050505050565b60006020828403121561523c57600080fd5b8151610d6a81614399565b8881526001600160a01b0388811660208301528781166040830152861660608201526080810185905260e060a08201819052600090615289908301858761501f565b905082151560c08301529998505050505050505050565b6000602082840312156152b257600080fd5b5051919050565b634e487b7160e01b600052603260045260246000fd5b8183823760009101908152919050565b634e487b7160e01b600052601160045260246000fd5b600060018201615307576153076152df565b5060010190565b80820180821115610c1157610c116152df565b6000808585111561533157600080fd5b8386111561533e57600080fd5b5050820193919092039150565b600082601f83011261535c57600080fd5b8135602061536c61456183614b22565b82815260059290921b8401810191818101908684111561538b57600080fd5b8286015b84811015614ba05780356001600160401b038111156153ae5760008081fd5b6153bc8986838b0101614542565b84525091830191830161538f565b600060208083850312156153dd57600080fd5b82356001600160401b03808211156153f457600080fd5b908401906060828703121561540857600080fd5b6154106144c3565b82358281111561541f57600080fd5b8301601f8101881361543057600080fd5b803561543e61456182614b22565b81815260059190911b8201860190868101908a83111561545d57600080fd5b928701925b8284101561548457833561547581614432565b82529287019290870190615462565b8452505050828401358281111561549a57600080fd5b6154a68882860161534b565b8583015250604083013560408201528094505050505092915050565b6080815260006154d56080830187614721565b6020830195909552506040810192909252606090910152919050565b634e487b7160e01b600052602160045260246000fd5b60208082526022908201527f57414c4c45545f4f574e45525f5349474e41545552455f4e4f545f414c4c4f57604082015261115160f21b606082015260800190565b6000845161555b8184602089016146fd565b91909101928352506020820152604001919050565b828152604060208201526000610cd96040830184614721565b6000825161559b8184602087016146fd565b919091019291505056fea26469706673582212203c7feb516782d195fe794f03e089acdcf011e61383982e19114401582a1a7e5664736f6c63430008110033",
  "linkReferences": {
    "contracts/base/libwallet/ERC1271Lib.sol": {
      "ERC1271Lib": [
        {
          "length": 20,
          "start": 3970
        }
      ]
    },
    "contracts/base/libwallet/ERC20Lib.sol": {
      "ERC20Lib": [
        {
          "length": 20,
          "start": 4224
        },
        {
          "length": 20,
          "start": 5370
        },
        {
          "length": 20,
          "start": 5695
        },
        {
          "length": 20,
          "start": 6519
        },
        {
          "length": 20,
          "start": 6705
        },
        {
          "length": 20,
          "start": 6963
        },
        {
          "length": 20,
          "start": 7787
        },
        {
          "length": 20,
          "start": 8709
        },
        {
          "length": 20,
          "start": 10404
        },
        {
          "length": 20,
          "start": 11824
        },
        {
          "length": 20,
          "start": 11947
        },
        {
          "length": 20,
          "start": 12070
        },
        {
          "length": 20,
          "start": 12193
        }
      ]
    },
    "contracts/base/libwallet/GuardianLib.sol": {
      "GuardianLib": [
        {
          "length": 20,
          "start": 3544
        },
        {
          "length": 20,
          "start": 3783
        },
        {
          "length": 20,
          "start": 5225
        },
        {
          "length": 20,
          "start": 6051
        },
        {
          "length": 20,
          "start": 6393
        },
        {
          "length": 20,
          "start": 7281
        },
        {
          "length": 20,
          "start": 7531
        },
        {
          "length": 20,
          "start": 8492
        },
        {
          "length": 20,
          "start": 9418
        },
        {
          "length": 20,
          "start": 11165
        },
        {
          "length": 20,
          "start": 11381
        },
        {
          "length": 20,
          "start": 11504
        }
      ]
    },
    "contracts/base/libwallet/InheritanceLib.sol": {
      "InheritanceLib": [
        {
          "length": 20,
          "start": 9604
        }
      ]
    },
    "contracts/base/libwallet/LockLib.sol": {
      "LockLib": [
        {
          "length": 20,
          "start": 7403
        },
        {
          "length": 20,
          "start": 10109
        },
        {
          "length": 20,
          "start": 12316
        }
      ]
    },
    "contracts/base/libwallet/QuotaLib.sol": {
      "QuotaLib": [
        {
          "length": 20,
          "start": 5914
        },
        {
          "length": 20,
          "start": 9791
        }
      ]
    },
    "contracts/base/libwallet/RecoverLib.sol": {
      "RecoverLib": [
        {
          "length": 20,
          "start": 4469
        },
        {
          "length": 20,
          "start": 12562
        }
      ]
    },
    "contracts/base/libwallet/UpgradeLib.sol": {
      "UpgradeLib": [
        {
          "length": 20,
          "start": 5500
        },
        {
          "length": 20,
          "start": 12439
        }
      ]
    },
    "contracts/base/libwallet/WhitelistLib.sol": {
      "WhitelistLib": [
        {
          "length": 20,
          "start": 5003
        },
        {
          "length": 20,
          "start": 6233
        },
        {
          "length": 20,
          "start": 8945
        },
        {
          "length": 20,
          "start": 11701
        }
      ]
    }
  },
  "deployedLinkReferences": {
    "contracts/base/libwallet/ERC1271Lib.sol": {
      "ERC1271Lib": [
        {
          "length": 20,
          "start": 3315
        }
      ]
    },
    "contracts/base/libwallet/ERC20Lib.sol": {
      "ERC20Lib": [
        {
          "length": 20,
          "start": 3569
        },
        {
          "length": 20,
          "start": 4715
        },
        {
          "length": 20,
          "start": 5040
        },
        {
          "length": 20,
          "start": 5864
        },
        {
          "length": 20,
          "start": 6050
        },
        {
          "length": 20,
          "start": 6308
        },
        {
          "length": 20,
          "start": 7132
        },
        {
          "length": 20,
          "start": 8054
        },
        {
          "length": 20,
          "start": 9749
        },
        {
          "length": 20,
          "start": 11169
        },
        {
          "length": 20,
          "start": 11292
        },
        {
          "length": 20,
          "start": 11415
        },
        {
          "length": 20,
          "start": 11538
        }
      ]
    },
    "contracts/base/libwallet/GuardianLib.sol": {
      "GuardianLib": [
        {
          "length": 20,
          "start": 2889
        },
        {
          "length": 20,
          "start": 3128
        },
        {
          "length": 20,
          "start": 4570
        },
        {
          "length": 20,
          "start": 5396
        },
        {
          "length": 20,
          "start": 5738
        },
        {
          "length": 20,
          "start": 6626
        },
        {
          "length": 20,
          "start": 6876
        },
        {
          "length": 20,
          "start": 7837
        },
        {
          "length": 20,
          "start": 8763
        },
        {
          "length": 20,
          "start": 10510
        },
        {
          "length": 20,
          "start": 10726
        },
        {
          "length": 20,
          "start": 10849
        }
      ]
    },
    "contracts/base/libwallet/InheritanceLib.sol": {
      "InheritanceLib": [
        {
          "length": 20,
          "start": 8949
        }
      ]
    },
    "contracts/base/libwallet/LockLib.sol": {
      "LockLib": [
        {
          "length": 20,
          "start": 6748
        },
        {
          "length": 20,
          "start": 9454
        },
        {
          "length": 20,
          "start": 11661
        }
      ]
    },
    "contracts/base/libwallet/QuotaLib.sol": {
      "QuotaLib": [
        {
          "length": 20,
          "start": 5259
        },
        {
          "length": 20,
          "start": 9136
        }
      ]
    },
    "contracts/base/libwallet/RecoverLib.sol": {
      "RecoverLib": [
        {
          "length": 20,
          "start": 3814
        },
        {
          "length": 20,
          "start": 11907
        }
      ]
    },
    "contracts/base/libwallet/UpgradeLib.sol": {
      "UpgradeLib": [
        {
          "length": 20,
          "start": 4845
        },
        {
          "length": 20,
          "start": 11784
        }
      ]
    },
    "contracts/base/libwallet/WhitelistLib.sol": {
      "WhitelistLib": [
        {
          "length": 20,
          "start": 4348
        },
        {
          "length": 20,
          "start": 5578
        },
        {
          "length": 20,
          "start": 8290
        },
        {
          "length": 20,
          "start": 11046
        }
      ]
    }
  }
}