{
  "_format": "hh-sol-artifact-1",
  "contractName": "USDT",
  "sourceName": "contracts/test/tokens/USDT.sol",
  "abi": [
    {
      "inputs": [],
      "stateMutability": "nonpayable",
      "type": "constructor"
    },
    {
      "anonymous": false,
      "inputs": [
        {
          "indexed": true,
          "internalType": "address",
          "name": "owner",
          "type": "address"
        },
        {
          "indexed": true,
          "internalType": "address",
          "name": "spender",
          "type": "address"
        },
        {
          "indexed": false,
          "internalType": "uint256",
          "name": "value",
          "type": "uint256"
        }
      ],
      "name": "Approval",
      "type": "event"
    },
    {
      "anonymous": false,
      "inputs": [
        {
          "indexed": true,
          "internalType": "address",
          "name": "burner",
          "type": "address"
        },
        {
          "indexed": false,
          "internalType": "uint256",
          "name": "value",
          "type": "uint256"
        }
      ],
      "name": "Burn",
      "type": "event"
    },
    {
      "anonymous": false,
      "inputs": [
        {
          "indexed": true,
          "internalType": "address",
          "name": "from",
          "type": "address"
        },
        {
          "indexed": true,
          "internalType": "address",
          "name": "to",
          "type": "address"
        },
        {
          "indexed": false,
          "internalType": "uint256",
          "name": "value",
          "type": "uint256"
        }
      ],
      "name": "Transfer",
      "type": "event"
    },
    {
      "inputs": [
        {
          "internalType": "address",
          "name": "_target",
          "type": "address"
        },
        {
          "internalType": "uint256",
          "name": "_value",
          "type": "uint256"
        }
      ],
      "name": "addBalance",
      "outputs": [],
      "stateMutability": "nonpayable",
      "type": "function"
    },
    {
      "inputs": [
        {
          "internalType": "address",
          "name": "_owner",
          "type": "address"
        },
        {
          "internalType": "address",
          "name": "_spender",
          "type": "address"
        }
      ],
      "name": "allowance",
      "outputs": [
        {
          "internalType": "uint256",
          "name": "",
          "type": "uint256"
        }
      ],
      "stateMutability": "view",
      "type": "function"
    },
    {
      "inputs": [
        {
          "internalType": "address",
          "name": "_spender",
          "type": "address"
        },
        {
          "internalType": "uint256",
          "name": "_value",
          "type": "uint256"
        }
      ],
      "name": "approve",
      "outputs": [
        {
          "internalType": "bool",
          "name": "",
          "type": "bool"
        }
      ],
      "stateMutability": "nonpayable",
      "type": "function"
    },
    {
      "inputs": [
        {
          "internalType": "address",
          "name": "_owner",
          "type": "address"
        }
      ],
      "name": "balanceOf",
      "outputs": [
        {
          "internalType": "uint256",
          "name": "balance",
          "type": "uint256"
        }
      ],
      "stateMutability": "view",
      "type": "function"
    },
    {
      "inputs": [
        {
          "internalType": "uint256",
          "name": "_value",
          "type": "uint256"
        }
      ],
      "name": "burn",
      "outputs": [
        {
          "internalType": "bool",
          "name": "",
          "type": "bool"
        }
      ],
      "stateMutability": "nonpayable",
      "type": "function"
    },
    {
      "inputs": [
        {
          "internalType": "address",
          "name": "_owner",
          "type": "address"
        },
        {
          "internalType": "uint256",
          "name": "_value",
          "type": "uint256"
        }
      ],
      "name": "burnFrom",
      "outputs": [
        {
          "internalType": "bool",
          "name": "",
          "type": "bool"
        }
      ],
      "stateMutability": "nonpayable",
      "type": "function"
    },
    {
      "inputs": [],
      "name": "decimals",
      "outputs": [
        {
          "internalType": "uint8",
          "name": "",
          "type": "uint8"
        }
      ],
      "stateMutability": "view",
      "type": "function"
    },
    {
      "inputs": [
        {
          "internalType": "address",
          "name": "_spender",
          "type": "address"
        },
        {
          "internalType": "uint256",
          "name": "_subtractedValue",
          "type": "uint256"
        }
      ],
      "name": "decreaseApproval",
      "outputs": [
        {
          "internalType": "bool",
          "name": "",
          "type": "bool"
        }
      ],
      "stateMutability": "nonpayable",
      "type": "function"
    },
    {
      "inputs": [
        {
          "internalType": "address",
          "name": "_spender",
          "type": "address"
        },
        {
          "internalType": "uint256",
          "name": "_addedValue",
          "type": "uint256"
        }
      ],
      "name": "increaseApproval",
      "outputs": [
        {
          "internalType": "bool",
          "name": "",
          "type": "bool"
        }
      ],
      "stateMutability": "nonpayable",
      "type": "function"
    },
    {
      "inputs": [],
      "name": "name",
      "outputs": [
        {
          "internalType": "string",
          "name": "",
          "type": "string"
        }
      ],
      "stateMutability": "view",
      "type": "function"
    },
    {
      "inputs": [
        {
          "internalType": "address",
          "name": "_target",
          "type": "address"
        },
        {
          "internalType": "uint256",
          "name": "_value",
          "type": "uint256"
        }
      ],
      "name": "setBalance",
      "outputs": [],
      "stateMutability": "nonpayable",
      "type": "function"
    },
    {
      "inputs": [],
      "name": "symbol",
      "outputs": [
        {
          "internalType": "string",
          "name": "",
          "type": "string"
        }
      ],
      "stateMutability": "view",
      "type": "function"
    },
    {
      "inputs": [],
      "name": "totalSupply",
      "outputs": [
        {
          "internalType": "uint256",
          "name": "",
          "type": "uint256"
        }
      ],
      "stateMutability": "view",
      "type": "function"
    },
    {
      "inputs": [
        {
          "internalType": "address",
          "name": "_to",
          "type": "address"
        },
        {
          "internalType": "uint256",
          "name": "_value",
          "type": "uint256"
        }
      ],
      "name": "transfer",
      "outputs": [
        {
          "internalType": "bool",
          "name": "",
          "type": "bool"
        }
      ],
      "stateMutability": "nonpayable",
      "type": "function"
    },
    {
      "inputs": [
        {
          "internalType": "address",
          "name": "_from",
          "type": "address"
        },
        {
          "internalType": "address",
          "name": "_to",
          "type": "address"
        },
        {
          "internalType": "uint256",
          "name": "_value",
          "type": "uint256"
        }
      ],
      "name": "transferFrom",
      "outputs": [
        {
          "internalType": "bool",
          "name": "",
          "type": "bool"
        }
      ],
      "stateMutability": "nonpayable",
      "type": "function"
    }
  ],
  "bytecode": "0x60c0604052601e60809081527f4e6577204c6f6f7072696e6720746f6b656e206f6e20657468657265756d000060a0526003906200003e90826200056a565b506040805180820190915260038152624c524360e81b60208201526004906200006890826200056a565b506005805460ff191660121790553480156200008357600080fd5b50604051806040016040528060098152602001681554d11517d51154d560ba1b815250604051806040016040528060048152602001631554d11560e21b815250600668056bc75e2d631000008383838333600082116200011a5760405162461bcd60e51b815260206004820152600d60248201526c494e56414c49445f56414c554560981b60448201526064015b60405180910390fd5b6001600160a01b038116620001615760405162461bcd60e51b815260206004820152600c60248201526b5a45524f5f4144445245535360a01b604482015260640162000111565b6200016d8486620001cc565b60036200017b86826200056a565b5060046200018a85826200056a565b506005805460ff191660ff949094169390931790925560018190556001600160a01b039091166000908152602081905260409020555062000674945050505050565b81518290600311801590620001e357506008815111155b620002205760405162461bcd60e51b815260206004820152600c60248201526b494e56414c49445f53495a4560a01b604482015260640162000111565b60005b8151811015620003aa5781818151811062000242576200024262000636565b6020910101516001600160f81b031916601760f91b14806200028b575081818151811062000274576200027462000636565b6020910101516001600160f81b031916605f60f81b145b80620002f15750604160f81b828281518110620002ac57620002ac62000636565b01602001516001600160f81b03191610801590620002f15750605a60f81b828281518110620002df57620002df62000636565b01602001516001600160f81b03191611155b80620003575750606160f81b82828151811062000312576200031262000636565b01602001516001600160f81b03191610801590620003575750607a60f81b82828151811062000345576200034562000636565b01602001516001600160f81b03191611155b620003955760405162461bcd60e51b815260206004820152600d60248201526c494e56414c49445f56414c554560981b604482015260640162000111565b80620003a1816200064c565b91505062000223565b5080518251839111801590620003c257506080815111155b620003ff5760405162461bcd60e51b815260206004820152600c60248201526b494e56414c49445f53495a4560a01b604482015260640162000111565b60005b8151811015620004be57602060f81b82828151811062000426576200042662000636565b01602001516001600160f81b031916108015906200046b5750607e60f81b82828151811062000459576200045962000636565b01602001516001600160f81b03191611155b620004a95760405162461bcd60e51b815260206004820152600d60248201526c494e56414c49445f56414c554560981b604482015260640162000111565b80620004b5816200064c565b91505062000402565b5050505050565b634e487b7160e01b600052604160045260246000fd5b600181811c90821680620004f057607f821691505b6020821081036200051157634e487b7160e01b600052602260045260246000fd5b50919050565b601f8211156200056557600081815260208120601f850160051c81016020861015620005405750805b601f850160051c820191505b8181101562000561578281556001016200054c565b5050505b505050565b81516001600160401b03811115620005865762000586620004c5565b6200059e81620005978454620004db565b8462000517565b602080601f831160018114620005d65760008415620005bd5750858301515b600019600386901b1c1916600185901b17855562000561565b600085815260208120601f198616915b828110156200060757888601518255948401946001909101908401620005e6565b5085821015620006265787850151600019600388901b60f8161c191681555b5050505050600190811b01905550565b634e487b7160e01b600052603260045260246000fd5b6000600182016200066d57634e487b7160e01b600052601160045260246000fd5b5060010190565b610ec180620006846000396000f3fe608060405234801561001057600080fd5b50600436106100f55760003560e01c80636618846311610097578063a9059cbb11610066578063a9059cbb146101fe578063d73dd62314610211578063dd62ed3e14610224578063e30443bc1461025d57600080fd5b806366188463146101a757806370a08231146101ba57806379cc6790146101e357806395d89b41146101f657600080fd5b806321e5383a116100d357806321e5383a1461014d57806323b872dd14610162578063313ce5671461017557806342966c681461019457600080fd5b806306fdde03146100fa578063095ea7b31461011857806318160ddd1461013b575b600080fd5b610102610270565b60405161010f9190610ca8565b60405180910390f35b61012b610126366004610d12565b6102fe565b604051901515815260200161010f565b6001545b60405190815260200161010f565b61016061015b366004610d12565b61036b565b005b61012b610170366004610d3c565b61040d565b6005546101829060ff1681565b60405160ff909116815260200161010f565b61012b6101a2366004610d78565b6105e2565b61012b6101b5366004610d12565b6106ee565b61013f6101c8366004610d91565b6001600160a01b031660009081526020819052604090205490565b61012b6101f1366004610d12565b6107d6565b6101026109ee565b61012b61020c366004610d12565b6109fb565b61012b61021f366004610d12565b610adc565b61013f610232366004610dac565b6001600160a01b03918216600090815260026020908152604080832093909416825291909152205490565b61016061026b366004610d12565b610b61565b6003805461027d90610ddf565b80601f01602080910402602001604051908101604052809291908181526020018280546102a990610ddf565b80156102f65780601f106102cb576101008083540402835291602001916102f6565b820191906000526020600020905b8154815290600101906020018083116102d957829003601f168201915b505050505081565b3360008181526002602090815260408083206001600160a01b038716808552925280832085905551919290917f8c5be1e5ebec7d5bd14f71427d1e84f3dd0314c0f7b2291e5b200ac8c7c3b925906103599086815260200190565b60405180910390a35060015b92915050565b6001600160a01b0382166000908152602081905260409020548061038f8184610e2f565b10156103d25760405162461bcd60e51b815260206004820152600d60248201526c494e56414c49445f56414c554560981b60448201526064015b60405180910390fd5b6001546103df9083610bd7565b6001556103ec8183610bd7565b6001600160a01b039093166000908152602081905260409020929092555050565b6001600160a01b03831660009081526020819052604081205482111561047f5760405162461bcd60e51b815260206004820152602160248201527f5452414e5346455246524f4d5f494e53554646494349454e545f42414c414e436044820152604560f81b60648201526084016103c9565b6001600160a01b03841660009081526002602090815260408083203384529091529020548211156104fe5760405162461bcd60e51b815260206004820152602360248201527f5452414e5346455246524f4d5f494e53554646494349454e545f414c4c4f57416044820152624e434560e81b60648201526084016103c9565b6001600160a01b0384166000908152602081905260409020546105219083610c24565b6001600160a01b0380861660009081526020819052604080822093909355908516815220546105509083610bd7565b6001600160a01b0380851660009081526020818152604080832094909455918716815260028252828120338252909152205461058c9083610c24565b6001600160a01b0385811660008181526002602090815260408083203384528252918290209490945551858152918616929091600080516020610e6c833981519152910160405180910390a35060019392505050565b336000908152602081905260408120548211156106415760405162461bcd60e51b815260206004820152601960248201527f4255524e5f494e53554646494349454e545f42414c414e43450000000000000060448201526064016103c9565b3360008181526020819052604090205461065b9084610c77565b6001600160a01b0382166000908152602081905260409020556001546106819084610c77565b6001556040518381526001600160a01b038216907fcc16f5dbb4873280815c1ee09dbd06736cffcc184412cf7a71a0fdb75d397ca59060200160405180910390a26040518381526000906001600160a01b03831690600080516020610e6c83398151915290602001610359565b3360009081526002602090815260408083206001600160a01b038616845290915281205480831115610743573360009081526002602090815260408083206001600160a01b0388168452909152812055610772565b61074d8184610c24565b3360009081526002602090815260408083206001600160a01b03891684529091529020555b3360008181526002602090815260408083206001600160a01b038916808552908352928190205490519081529192917f8c5be1e5ebec7d5bd14f71427d1e84f3dd0314c0f7b2291e5b200ac8c7c3b925910160405180910390a35060019392505050565b60006001600160a01b03831661081d5760405162461bcd60e51b815260206004820152600c60248201526b5a45524f5f4144445245535360a01b60448201526064016103c9565b6001600160a01b0383166000908152602081905260409020548211156108855760405162461bcd60e51b815260206004820152601d60248201527f4255524e46524f4d5f494e53554646494349454e545f42414c414e434500000060448201526064016103c9565b6001600160a01b03831660009081526002602090815260408083203384529091529020548211156108f85760405162461bcd60e51b815260206004820152601f60248201527f4255524e46524f4d5f494e53554646494349454e545f414c4c4f57414e43450060448201526064016103c9565b6001600160a01b03831660009081526020819052604090205461091b9083610c77565b6001600160a01b0384166000908152602081815260408083209390935560028152828220338352905220546109509083610c77565b6001600160a01b03841660009081526002602090815260408083203384529091529020556001546109819083610c77565b6001556040518281526001600160a01b038416907fcc16f5dbb4873280815c1ee09dbd06736cffcc184412cf7a71a0fdb75d397ca59060200160405180910390a26040518281526000906001600160a01b03851690600080516020610e6c83398151915290602001610359565b6004805461027d90610ddf565b33600090815260208190526040812054821115610a5a5760405162461bcd60e51b815260206004820152601d60248201527f5452414e534645525f494e53554646494349454e545f42414c414e434500000060448201526064016103c9565b33600090815260208190526040902054610a749083610c77565b33600090815260208190526040808220929092556001600160a01b03851681522054610aa09083610c89565b6001600160a01b03841660008181526020818152604091829020939093555184815290913391600080516020610e6c8339815191529101610359565b3360009081526002602090815260408083206001600160a01b0386168452909152812054610b0a9083610bd7565b3360008181526002602090815260408083206001600160a01b038916808552908352928190208590555193845290927f8c5be1e5ebec7d5bd14f71427d1e84f3dd0314c0f7b2291e5b200ac8c7c3b9259101610359565b6001600160a01b03821660009081526020819052604090205480821015610ba057610b98610b8f8284610c24565b60015490610c24565b600155610bba565b610bb6610bad8383610c24565b60015490610bd7565b6001555b506001600160a01b03909116600090815260208190526040902055565b6000610be38284610e2f565b9050828110156103655760405162461bcd60e51b815260206004820152600c60248201526b4144445f4f564552464c4f5760a01b60448201526064016103c9565b600082821115610c665760405162461bcd60e51b815260206004820152600d60248201526c5355425f554e444552464c4f5760981b60448201526064016103c9565b610c708284610e42565b9392505050565b600082821115610c6657610c66610e55565b600080610c968385610e2f565b905083811015610c7057610c70610e55565b600060208083528351808285015260005b81811015610cd557858101830151858201604001528201610cb9565b506000604082860101526040601f19601f8301168501019250505092915050565b80356001600160a01b0381168114610d0d57600080fd5b919050565b60008060408385031215610d2557600080fd5b610d2e83610cf6565b946020939093013593505050565b600080600060608486031215610d5157600080fd5b610d5a84610cf6565b9250610d6860208501610cf6565b9150604084013590509250925092565b600060208284031215610d8a57600080fd5b5035919050565b600060208284031215610da357600080fd5b610c7082610cf6565b60008060408385031215610dbf57600080fd5b610dc883610cf6565b9150610dd660208401610cf6565b90509250929050565b600181811c90821680610df357607f821691505b602082108103610e1357634e487b7160e01b600052602260045260246000fd5b50919050565b634e487b7160e01b600052601160045260246000fd5b8082018082111561036557610365610e19565b8181038181111561036557610365610e19565b634e487b7160e01b600052600160045260246000fdfeddf252ad1be2c89b69c2b068fc378daa952ba7f163c4a11628f55a4df523b3efa2646970667358221220c71f56c87fcb00c7bb206edd2c6e4d3de92e4e17d4eb2527aa3f019e7bcd468e64736f6c63430008110033",
  "linkReferences": {},
  "deployedLinkReferences": {}
}