{
  "_format": "hh-sol-artifact-1",
  "contractName": "VerifyingPaymaster",
  "sourceName": "contracts/base/VerifyingPaymaster.sol",
  "abi": [
    {
      "inputs": [
        {
          "internalType": "contract IEntryPoint",
          "name": "_entryPoint",
          "type": "address"
        },
        {
          "internalType": "address",
          "name": "_owner",
          "type": "address"
        }
      ],
      "stateMutability": "nonpayable",
      "type": "constructor"
    },
    {
      "anonymous": false,
      "inputs": [
        {
          "indexed": true,
          "internalType": "address",
          "name": "previousOwner",
          "type": "address"
        },
        {
          "indexed": true,
          "internalType": "address",
          "name": "newOwner",
          "type": "address"
        }
      ],
      "name": "OwnershipTransferred",
      "type": "event"
    },
    {
      "anonymous": false,
      "inputs": [
        {
          "indexed": true,
          "internalType": "bytes32",
          "name": "role",
          "type": "bytes32"
        },
        {
          "indexed": true,
          "internalType": "bytes32",
          "name": "previousAdminRole",
          "type": "bytes32"
        },
        {
          "indexed": true,
          "internalType": "bytes32",
          "name": "newAdminRole",
          "type": "bytes32"
        }
      ],
      "name": "RoleAdminChanged",
      "type": "event"
    },
    {
      "anonymous": false,
      "inputs": [
        {
          "indexed": true,
          "internalType": "bytes32",
          "name": "role",
          "type": "bytes32"
        },
        {
          "indexed": true,
          "internalType": "address",
          "name": "account",
          "type": "address"
        },
        {
          "indexed": true,
          "internalType": "address",
          "name": "sender",
          "type": "address"
        }
      ],
      "name": "RoleGranted",
      "type": "event"
    },
    {
      "anonymous": false,
      "inputs": [
        {
          "indexed": true,
          "internalType": "bytes32",
          "name": "role",
          "type": "bytes32"
        },
        {
          "indexed": true,
          "internalType": "address",
          "name": "account",
          "type": "address"
        },
        {
          "indexed": true,
          "internalType": "address",
          "name": "sender",
          "type": "address"
        }
      ],
      "name": "RoleRevoked",
      "type": "event"
    },
    {
      "inputs": [],
      "name": "DEFAULT_ADMIN_ROLE",
      "outputs": [
        {
          "internalType": "bytes32",
          "name": "",
          "type": "bytes32"
        }
      ],
      "stateMutability": "view",
      "type": "function"
    },
    {
      "inputs": [],
      "name": "SIGNER",
      "outputs": [
        {
          "internalType": "bytes32",
          "name": "",
          "type": "bytes32"
        }
      ],
      "stateMutability": "view",
      "type": "function"
    },
    {
      "inputs": [
        {
          "internalType": "contract ERC20",
          "name": "token",
          "type": "address"
        },
        {
          "internalType": "address",
          "name": "account",
          "type": "address"
        },
        {
          "internalType": "uint256",
          "name": "amount",
          "type": "uint256"
        }
      ],
      "name": "addDepositFor",
      "outputs": [],
      "stateMutability": "nonpayable",
      "type": "function"
    },
    {
      "inputs": [
        {
          "internalType": "uint32",
          "name": "unstakeDelaySec",
          "type": "uint32"
        }
      ],
      "name": "addStake",
      "outputs": [],
      "stateMutability": "payable",
      "type": "function"
    },
    {
      "inputs": [
        {
          "internalType": "contract ERC20",
          "name": "token",
          "type": "address"
        }
      ],
      "name": "addToken",
      "outputs": [],
      "stateMutability": "nonpayable",
      "type": "function"
    },
    {
      "inputs": [
        {
          "internalType": "contract ERC20",
          "name": "",
          "type": "address"
        },
        {
          "internalType": "address",
          "name": "",
          "type": "address"
        }
      ],
      "name": "balances",
      "outputs": [
        {
          "internalType": "uint256",
          "name": "",
          "type": "uint256"
        }
      ],
      "stateMutability": "view",
      "type": "function"
    },
    {
      "inputs": [],
      "name": "deposit",
      "outputs": [],
      "stateMutability": "payable",
      "type": "function"
    },
    {
      "inputs": [
        {
          "internalType": "contract ERC20",
          "name": "token",
          "type": "address"
        },
        {
          "internalType": "address",
          "name": "account",
          "type": "address"
        }
      ],
      "name": "depositInfo",
      "outputs": [
        {
          "internalType": "uint256",
          "name": "amount",
          "type": "uint256"
        },
        {
          "internalType": "uint256",
          "name": "_unlockBlock",
          "type": "uint256"
        }
      ],
      "stateMutability": "view",
      "type": "function"
    },
    {
      "inputs": [],
      "name": "entryPoint",
      "outputs": [
        {
          "internalType": "contract IEntryPoint",
          "name": "",
          "type": "address"
        }
      ],
      "stateMutability": "view",
      "type": "function"
    },
    {
      "inputs": [],
      "name": "getDeposit",
      "outputs": [
        {
          "internalType": "uint256",
          "name": "",
          "type": "uint256"
        }
      ],
      "stateMutability": "view",
      "type": "function"
    },
    {
      "inputs": [
        {
          "components": [
            {
              "internalType": "address",
              "name": "sender",
              "type": "address"
            },
            {
              "internalType": "uint256",
              "name": "nonce",
              "type": "uint256"
            },
            {
              "internalType": "bytes",
              "name": "initCode",
              "type": "bytes"
            },
            {
              "internalType": "bytes",
              "name": "callData",
              "type": "bytes"
            },
            {
              "internalType": "uint256",
              "name": "callGasLimit",
              "type": "uint256"
            },
            {
              "internalType": "uint256",
              "name": "verificationGasLimit",
              "type": "uint256"
            },
            {
              "internalType": "uint256",
              "name": "preVerificationGas",
              "type": "uint256"
            },
            {
              "internalType": "uint256",
              "name": "maxFeePerGas",
              "type": "uint256"
            },
            {
              "internalType": "uint256",
              "name": "maxPriorityFeePerGas",
              "type": "uint256"
            },
            {
              "internalType": "bytes",
              "name": "paymasterAndData",
              "type": "bytes"
            },
            {
              "internalType": "bytes",
              "name": "signature",
              "type": "bytes"
            }
          ],
          "internalType": "struct UserOperation",
          "name": "userOp",
          "type": "tuple"
        },
        {
          "internalType": "bytes",
          "name": "packedData",
          "type": "bytes"
        }
      ],
      "name": "getHash",
      "outputs": [
        {
          "internalType": "bytes32",
          "name": "",
          "type": "bytes32"
        }
      ],
      "stateMutability": "view",
      "type": "function"
    },
    {
      "inputs": [
        {
          "internalType": "bytes32",
          "name": "role",
          "type": "bytes32"
        }
      ],
      "name": "getRoleAdmin",
      "outputs": [
        {
          "internalType": "bytes32",
          "name": "",
          "type": "bytes32"
        }
      ],
      "stateMutability": "view",
      "type": "function"
    },
    {
      "inputs": [
        {
          "internalType": "bytes32",
          "name": "role",
          "type": "bytes32"
        },
        {
          "internalType": "address",
          "name": "account",
          "type": "address"
        }
      ],
      "name": "grantRole",
      "outputs": [],
      "stateMutability": "nonpayable",
      "type": "function"
    },
    {
      "inputs": [
        {
          "internalType": "bytes32",
          "name": "role",
          "type": "bytes32"
        },
        {
          "internalType": "address",
          "name": "account",
          "type": "address"
        }
      ],
      "name": "hasRole",
      "outputs": [
        {
          "internalType": "bool",
          "name": "",
          "type": "bool"
        }
      ],
      "stateMutability": "view",
      "type": "function"
    },
    {
      "inputs": [],
      "name": "lockTokenDeposit",
      "outputs": [],
      "stateMutability": "nonpayable",
      "type": "function"
    },
    {
      "inputs": [],
      "name": "owner",
      "outputs": [
        {
          "internalType": "address",
          "name": "",
          "type": "address"
        }
      ],
      "stateMutability": "view",
      "type": "function"
    },
    {
      "inputs": [
        {
          "internalType": "enum IPaymaster.PostOpMode",
          "name": "mode",
          "type": "uint8"
        },
        {
          "internalType": "bytes",
          "name": "context",
          "type": "bytes"
        },
        {
          "internalType": "uint256",
          "name": "actualGasCost",
          "type": "uint256"
        }
      ],
      "name": "postOp",
      "outputs": [],
      "stateMutability": "nonpayable",
      "type": "function"
    },
    {
      "inputs": [
        {
          "internalType": "contract ERC20",
          "name": "",
          "type": "address"
        }
      ],
      "name": "registeredToken",
      "outputs": [
        {
          "internalType": "bool",
          "name": "",
          "type": "bool"
        }
      ],
      "stateMutability": "view",
      "type": "function"
    },
    {
      "inputs": [],
      "name": "renounceOwnership",
      "outputs": [],
      "stateMutability": "nonpayable",
      "type": "function"
    },
    {
      "inputs": [
        {
          "internalType": "bytes32",
          "name": "role",
          "type": "bytes32"
        },
        {
          "internalType": "address",
          "name": "account",
          "type": "address"
        }
      ],
      "name": "renounceRole",
      "outputs": [],
      "stateMutability": "nonpayable",
      "type": "function"
    },
    {
      "inputs": [
        {
          "internalType": "bytes32",
          "name": "role",
          "type": "bytes32"
        },
        {
          "internalType": "address",
          "name": "account",
          "type": "address"
        }
      ],
      "name": "revokeRole",
      "outputs": [],
      "stateMutability": "nonpayable",
      "type": "function"
    },
    {
      "inputs": [
        {
          "internalType": "contract IEntryPoint",
          "name": "_entryPoint",
          "type": "address"
        }
      ],
      "name": "setEntryPoint",
      "outputs": [],
      "stateMutability": "nonpayable",
      "type": "function"
    },
    {
      "inputs": [
        {
          "internalType": "bytes4",
          "name": "interfaceId",
          "type": "bytes4"
        }
      ],
      "name": "supportsInterface",
      "outputs": [
        {
          "internalType": "bool",
          "name": "",
          "type": "bool"
        }
      ],
      "stateMutability": "view",
      "type": "function"
    },
    {
      "inputs": [
        {
          "internalType": "address",
          "name": "newOwner",
          "type": "address"
        }
      ],
      "name": "transferOwnership",
      "outputs": [],
      "stateMutability": "nonpayable",
      "type": "function"
    },
    {
      "inputs": [
        {
          "internalType": "address",
          "name": "",
          "type": "address"
        }
      ],
      "name": "unlockBlock",
      "outputs": [
        {
          "internalType": "uint256",
          "name": "",
          "type": "uint256"
        }
      ],
      "stateMutability": "view",
      "type": "function"
    },
    {
      "inputs": [],
      "name": "unlockStake",
      "outputs": [],
      "stateMutability": "nonpayable",
      "type": "function"
    },
    {
      "inputs": [],
      "name": "unlockTokenDeposit",
      "outputs": [],
      "stateMutability": "nonpayable",
      "type": "function"
    },
    {
      "inputs": [
        {
          "components": [
            {
              "internalType": "address",
              "name": "sender",
              "type": "address"
            },
            {
              "internalType": "uint256",
              "name": "nonce",
              "type": "uint256"
            },
            {
              "internalType": "bytes",
              "name": "initCode",
              "type": "bytes"
            },
            {
              "internalType": "bytes",
              "name": "callData",
              "type": "bytes"
            },
            {
              "internalType": "uint256",
              "name": "callGasLimit",
              "type": "uint256"
            },
            {
              "internalType": "uint256",
              "name": "verificationGasLimit",
              "type": "uint256"
            },
            {
              "internalType": "uint256",
              "name": "preVerificationGas",
              "type": "uint256"
            },
            {
              "internalType": "uint256",
              "name": "maxFeePerGas",
              "type": "uint256"
            },
            {
              "internalType": "uint256",
              "name": "maxPriorityFeePerGas",
              "type": "uint256"
            },
            {
              "internalType": "bytes",
              "name": "paymasterAndData",
              "type": "bytes"
            },
            {
              "internalType": "bytes",
              "name": "signature",
              "type": "bytes"
            }
          ],
          "internalType": "struct UserOperation",
          "name": "userOp",
          "type": "tuple"
        },
        {
          "internalType": "bytes32",
          "name": "",
          "type": "bytes32"
        },
        {
          "internalType": "uint256",
          "name": "requiredPreFund",
          "type": "uint256"
        }
      ],
      "name": "validatePaymasterUserOp",
      "outputs": [
        {
          "internalType": "bytes",
          "name": "context",
          "type": "bytes"
        },
        {
          "internalType": "uint256",
          "name": "sigTimeRange",
          "type": "uint256"
        }
      ],
      "stateMutability": "view",
      "type": "function"
    },
    {
      "inputs": [
        {
          "internalType": "address payable",
          "name": "withdrawAddress",
          "type": "address"
        }
      ],
      "name": "withdrawStake",
      "outputs": [],
      "stateMutability": "nonpayable",
      "type": "function"
    },
    {
      "inputs": [
        {
          "internalType": "address payable",
          "name": "withdrawAddress",
          "type": "address"
        },
        {
          "internalType": "uint256",
          "name": "amount",
          "type": "uint256"
        }
      ],
      "name": "withdrawTo",
      "outputs": [],
      "stateMutability": "nonpayable",
      "type": "function"
    },
    {
      "inputs": [
        {
          "internalType": "contract ERC20",
          "name": "token",
          "type": "address"
        },
        {
          "internalType": "address",
          "name": "target",
          "type": "address"
        },
        {
          "internalType": "uint256",
          "name": "amount",
          "type": "uint256"
        }
      ],
      "name": "withdrawTokensTo",
      "outputs": [],
      "stateMutability": "nonpayable",
      "type": "function"
    },
    {
      "stateMutability": "payable",
      "type": "receive"
    }
  ],
  "bytecode": "0x6080604052614e206003553480156200001757600080fd5b5060405162002730380380620027308339810160408190526200003a9162000257565b816200004633620000bc565b62000051816200010c565b506200005d81620000bc565b6200007c6000620000766000546001600160a01b031690565b62000138565b620000b47f2aeb38be3df14d720aeb10a2de6df09b0fb3cd5c5ec256283a22d4593110ca40620000766000546001600160a01b031690565b505062000296565b600080546001600160a01b038381166001600160a01b0319831681178455604051919092169283917f8be0079c531659141344cd1fd0a4f28419497f9722a3daafe3b4186f6b6457e09190a35050565b62000116620001dd565b600180546001600160a01b0319166001600160a01b0392909216919091179055565b60008281526002602090815260408083206001600160a01b038516845290915290205460ff16620001d95760008281526002602090815260408083206001600160a01b03851684529091529020805460ff19166001179055620001983390565b6001600160a01b0316816001600160a01b0316837f2f8788117e7eff1d82e926ec794901d17c78024a50270940304540a733656f0d60405160405180910390a45b5050565b6000546001600160a01b031633146200023c5760405162461bcd60e51b815260206004820181905260248201527f4f776e61626c653a2063616c6c6572206973206e6f7420746865206f776e6572604482015260640160405180910390fd5b565b6001600160a01b03811681146200025457600080fd5b50565b600080604083850312156200026b57600080fd5b825162000278816200023e565b60208401519092506200028b816200023e565b809150509250929050565b61248a80620002a66000396000f3fe6080604052600436106101dc5760003560e01c8063961d012211610102578063c399ec8811610095578063d48bfca711610064578063d48bfca71461060e578063d547741f1461062e578063f2fde38b1461064e578063f465c77e1461066e57600080fd5b8063c399ec88146105af578063cc9c837c146105c4578063cd8f80c2146105e4578063d0e30db01461060657600080fd5b8063b0d691fe116100d1578063b0d691fe14610522578063bb9fe6bf14610542578063c23a5cea14610557578063c23f001f1461057757600080fd5b8063961d0122146104a95780639ed0fb68146104c9578063a217fddf146104ed578063a9a234091461050257600080fd5b80633c89c4901161017a578063584465f211610149578063584465f214610422578063715018a6146104425780638da5cb5b1461045757806391d148541461048957600080fd5b80633c89c4901461032a578063493b01701461035a5780634a6f84cf146103c1578063582abd12146103ee57600080fd5b8063248a9ca3116101b6578063248a9ca31461028c5780632f2ff15d146102ca57806336568abe146102ea578063382edd9e1461030a57600080fd5b806301ffc9a7146102225780630396cb6014610257578063205c28781461026c57600080fd5b3661021d5760405162461bcd60e51b815260206004820152600c60248201526b195d1a081c995a9958dd195960a21b60448201526064015b60405180910390fd5b600080fd5b34801561022e57600080fd5b5061024261023d366004611c52565b61069c565b60405190151581526020015b60405180910390f35b61026a610265366004611c7c565b6106d3565b005b34801561027857600080fd5b5061026a610287366004611cb7565b610742565b34801561029857600080fd5b506102bc6102a7366004611ce3565b60009081526002602052604090206001015490565b60405190815260200161024e565b3480156102d657600080fd5b5061026a6102e5366004611cfc565b610798565b3480156102f657600080fd5b5061026a610305366004611cfc565b6107c2565b34801561031657600080fd5b5061026a610325366004611d2c565b610840565b34801561033657600080fd5b50610242610345366004611d6d565b60046020526000908152604090205460ff1681565b34801561036657600080fd5b506103ac610375366004611d8a565b6001600160a01b03918216600090815260056020908152604080832093909416825291825282812054600690925291909120549091565b6040805192835260208301919091520161024e565b3480156103cd57600080fd5b506102bc6103dc366004611d6d565b60066020526000908152604090205481565b3480156103fa57600080fd5b506102bc7f2aeb38be3df14d720aeb10a2de6df09b0fb3cd5c5ec256283a22d4593110ca4081565b34801561042e57600080fd5b5061026a61043d366004611d6d565b610912565b34801561044e57600080fd5b5061026a61093c565b34801561046357600080fd5b506000546001600160a01b03165b6040516001600160a01b03909116815260200161024e565b34801561049557600080fd5b506102426104a4366004611cfc565b610950565b3480156104b557600080fd5b506102bc6104c4366004611e74565b61097b565b3480156104d557600080fd5b5061026a336000908152600660205260409020439055565b3480156104f957600080fd5b506102bc600081565b34801561050e57600080fd5b5061026a61051d366004611ed8565b610a1e565b34801561052e57600080fd5b50600154610471906001600160a01b031681565b34801561054e57600080fd5b5061026a610a38565b34801561056357600080fd5b5061026a610572366004611d6d565b610aa4565b34801561058357600080fd5b506102bc610592366004611d8a565b600560209081526000928352604080842090915290825290205481565b3480156105bb57600080fd5b506102bc610b0e565b3480156105d057600080fd5b5061026a6105df366004611d2c565b610b80565b3480156105f057600080fd5b5061026a33600090815260066020526040812055565b61026a610c57565b34801561061a57600080fd5b5061026a610629366004611d6d565b610c9d565b34801561063a57600080fd5b5061026a610649366004611cfc565b610cef565b34801561065a57600080fd5b5061026a610669366004611d6d565b610d14565b34801561067a57600080fd5b5061068e610689366004611f67565b610d8d565b60405161024e929190612005565b60006001600160e01b03198216637965db0b60e01b14806106cd57506301ffc9a760e01b6001600160e01b03198316145b92915050565b6106db6111ee565b600154604051621cb65b60e51b815263ffffffff831660048201526001600160a01b0390911690630396cb609034906024016000604051808303818588803b15801561072657600080fd5b505af115801561073a573d6000803e3d6000fd5b505050505050565b61074a6111ee565b60015460405163040b850f60e31b81526001600160a01b038481166004830152602482018490529091169063205c287890604401600060405180830381600087803b15801561072657600080fd5b6000828152600260205260409020600101546107b381611248565b6107bd8383611252565b505050565b6001600160a01b03811633146108325760405162461bcd60e51b815260206004820152602f60248201527f416363657373436f6e74726f6c3a2063616e206f6e6c792072656e6f756e636560448201526e103937b632b9903337b91039b2b63360891b6064820152608401610214565b61083c82826112d8565b5050565b6108556001600160a01b03841633308461133f565b6001600160a01b03831660009081526004602052604090205460ff166108b15760405162461bcd60e51b81526020600482015260116024820152703ab739bab83837b93a32b2103a37b5b2b760791b6044820152606401610214565b6001600160a01b038084166000908152600560209081526040808320938616835292905290812080548392906108e890849061203d565b90915550506001600160a01b03821633036107bd576107bd33600090815260066020526040812055565b61091a6111ee565b600180546001600160a01b0319166001600160a01b0392909216919091179055565b6109446111ee565b61094e60006113aa565b565b60009182526002602090815260408084206001600160a01b0393909316845291905290205460ff1690565b6000823560208401356109916040860186612050565b60405161099f929190612097565b6040519081900390206109b56060870187612050565b6040516109c3929190612097565b604051908190038120610a009493929160808901359060a08a01359060c08b01359060e08c0135906101008d013590469030908e906020016120a7565b60405160208183030381529060405280519060200120905092915050565b610a266113fa565b610a3284848484611411565b50505050565b610a406111ee565b600160009054906101000a90046001600160a01b03166001600160a01b031663bb9fe6bf6040518163ffffffff1660e01b8152600401600060405180830381600087803b158015610a9057600080fd5b505af1158015610a32573d6000803e3d6000fd5b610aac6111ee565b60015460405163611d2e7560e11b81526001600160a01b0383811660048301529091169063c23a5cea90602401600060405180830381600087803b158015610af357600080fd5b505af1158015610b07573d6000803e3d6000fd5b5050505050565b6001546040516370a0823160e01b81523060048201526000916001600160a01b0316906370a0823190602401602060405180830381865afa158015610b57573d6000803e3d6000fd5b505050506040513d601f19601f82011682018060405250810190610b7b9190612120565b905090565b3360009081526006602052604090205415801590610bac57503360009081526006602052604090205443115b610c0a5760405162461bcd60e51b815260206004820152602960248201527f4465706f7369745061796d61737465723a206d75737420756e6c6f636b546f6b604482015268195b91195c1bdcda5d60ba1b6064820152608401610214565b6001600160a01b038316600090815260056020908152604080832033845290915281208054839290610c3d908490612139565b909155506107bd90506001600160a01b0384168383611552565b60015460405163b760faf960e01b81523060048201526001600160a01b039091169063b760faf99034906024016000604051808303818588803b158015610af357600080fd5b610ca56111ee565b6001600160a01b03811660009081526004602052604090205460ff1615610ccb57600080fd5b6001600160a01b03166000908152600460205260409020805460ff19166001179055565b600082815260026020526040902060010154610d0a81611248565b6107bd83836112d8565b610d1c6111ee565b6001600160a01b038116610d815760405162461bcd60e51b815260206004820152602660248201527f4f776e61626c653a206e6577206f776e657220697320746865207a65726f206160448201526564647265737360d01b6064820152608401610214565b610d8a816113aa565b50565b606060003681610da1610120880188612050565b915091506000610daf883590565b9050610de5604051806080016040528060006001600160a01b031681526020016000815260200160008152602001606081525090565b610df2836014818761214c565b810190610dff9190612176565b60608501526040808501919091526020808501929092526001600160a01b03928316845291841660009081526006909152205415610e8b5760405162461bcd60e51b8152602060048201526024808201527f4465706f7369745061796d61737465723a206465706f736974206e6f74206c6f60448201526318dad95960e21b6064820152608401610214565b80606001515160401480610ea457508060600151516041145b610f18576040805162461bcd60e51b81526020600482015260248101919091527f566572696679696e675061796d61737465723a20696e76616c6964207369676e60448201527f6174757265206c656e67746820696e207061796d6173746572416e64446174616064820152608401610214565b6000600354610f268b611582565b610f3091906121d9565b602083015190915015611067576020820151600090610f516008600a6122d4565b610f5b848c61203d565b610f6591906121d9565b610f6f91906122e3565b83516001600160a01b039081166000908152600560209081526040808320938916835292905220549091508111158061101957508251604051636eb1769f60e11b81526001600160a01b0386811660048301523060248301528392169063dd62ed3e90604401602060405180830381865afa158015610ff2573d6000803e3d6000fd5b505050506040513d601f19601f820116820180604052508101906110169190612120565b10155b6110655760405162461bcd60e51b815260206004820152601f60248201527f5061796d61737465723a206e6f7420656e6f75676820616c6c6f77616e6365006044820152606401610214565b505b60006110c78b8460000151856020015186604001516040516020016110b39392919060609390931b6bffffffffffffffffffffffff191683526014830191909152603482015260540190565b60405160208183030381529060405261097b565b90506111527f2aeb38be3df14d720aeb10a2de6df09b0fb3cd5c5ec256283a22d4593110ca406104a4856060015161114c856040517f19457468657265756d205369676e6564204d6573736167653a0a3332000000006020820152603c8101829052600090605c01604051602081830303815290604052805190602001209050919050565b906115b1565b6111785760016040518060200160405280600081525090975097505050505050506111e6565b8383600001518385602001516040516020016111bb94939291906001600160a01b0394851681529290931660208301526040820152606081019190915260800190565b6040516020818303038152906040526111db6000856040015160006115d5565b975097505050505050505b935093915050565b6000546001600160a01b0316331461094e5760405162461bcd60e51b815260206004820181905260248201527f4f776e61626c653a2063616c6c6572206973206e6f7420746865206f776e65726044820152606401610214565b610d8a81336115ff565b61125c8282610950565b61083c5760008281526002602090815260408083206001600160a01b03851684529091529020805460ff191660011790556112943390565b6001600160a01b0316816001600160a01b0316837f2f8788117e7eff1d82e926ec794901d17c78024a50270940304540a733656f0d60405160405180910390a45050565b6112e28282610950565b1561083c5760008281526002602090815260408083206001600160a01b0385168085529252808320805460ff1916905551339285917ff6391f5c32d9c69d2a47ea670b442974b53935d1edc7fd64eb21e047a839171b9190a45050565b6040516001600160a01b0380851660248301528316604482015260648101829052610a329085906323b872dd60e01b906084015b60408051601f198184030181529190526020810180516001600160e01b03166001600160e01b031990931692909217909152611658565b600080546001600160a01b038381166001600160a01b0319831681178455604051919092169283917f8be0079c531659141344cd1fd0a4f28419497f9722a3daafe3b4186f6b6457e09190a35050565b6001546001600160a01b0316331461094e57600080fd5b600080808061142286880188612305565b93509350935093506000811115611548576000816114426008600a6122d4565b61144c858961203d565b61145691906121d9565b61146091906122e3565b6001600160a01b038086166000908152600560209081526040808320938a168352929052205490915081116114d1576001600160a01b038085166000908152600560209081526040808320938916835292905290812080548392906114c6908490612139565b909155506114e69050565b6114e66001600160a01b03851686308461133f565b6001600160a01b038416600090815260056020526040812082916115126000546001600160a01b031690565b6001600160a01b03166001600160a01b031681526020019081526020016000206000828254611541919061203d565b9091555050505b5050505050505050565b6040516001600160a01b0383166024820152604481018290526107bd90849063a9059cbb60e01b90606401611373565b600060e082013561010083013580820361159d575092915050565b6115a98248830161172a565b949350505050565b60008060006115c08585611740565b915091506115cd81611785565b509392505050565b6000604882901b600884901b856115ed5760006115f0565b60015b60ff16171790505b9392505050565b6116098282610950565b61083c57611616816118cf565b6116218360206118e1565b60405160200161163292919061234b565b60408051601f198184030181529082905262461bcd60e51b8252610214916004016123c0565b60006116ad826040518060400160405280602081526020017f5361666545524332303a206c6f772d6c6576656c2063616c6c206661696c6564815250856001600160a01b0316611a7d9092919063ffffffff16565b8051909150156107bd57808060200190518101906116cb91906123d3565b6107bd5760405162461bcd60e51b815260206004820152602a60248201527f5361666545524332303a204552433230206f7065726174696f6e20646964206e6044820152691bdd081cdd58d8d9595960b21b6064820152608401610214565b600081831061173957816115f8565b5090919050565b60008082516041036117765760208301516040840151606085015160001a61176a87828585611a8c565b9450945050505061177e565b506000905060025b9250929050565b6000816004811115611799576117996123f5565b036117a15750565b60018160048111156117b5576117b56123f5565b036118025760405162461bcd60e51b815260206004820152601860248201527f45434453413a20696e76616c6964207369676e617475726500000000000000006044820152606401610214565b6002816004811115611816576118166123f5565b036118635760405162461bcd60e51b815260206004820152601f60248201527f45434453413a20696e76616c6964207369676e6174757265206c656e677468006044820152606401610214565b6003816004811115611877576118776123f5565b03610d8a5760405162461bcd60e51b815260206004820152602260248201527f45434453413a20696e76616c6964207369676e6174757265202773272076616c604482015261756560f01b6064820152608401610214565b60606106cd6001600160a01b03831660145b606060006118f08360026121d9565b6118fb90600261203d565b67ffffffffffffffff81111561191357611913611dd1565b6040519080825280601f01601f19166020018201604052801561193d576020820181803683370190505b509050600360fc1b816000815181106119585761195861240b565b60200101906001600160f81b031916908160001a905350600f60fb1b816001815181106119875761198761240b565b60200101906001600160f81b031916908160001a90535060006119ab8460026121d9565b6119b690600161203d565b90505b6001811115611a2e576f181899199a1a9b1b9c1cb0b131b232b360811b85600f16601081106119ea576119ea61240b565b1a60f81b828281518110611a0057611a0061240b565b60200101906001600160f81b031916908160001a90535060049490941c93611a2781612421565b90506119b9565b5083156115f85760405162461bcd60e51b815260206004820181905260248201527f537472696e67733a20686578206c656e67746820696e73756666696369656e746044820152606401610214565b60606115a98484600085611b50565b6000807f7fffffffffffffffffffffffffffffff5d576e7357a4501ddfe92f46681b20a0831115611ac35750600090506003611b47565b6040805160008082526020820180845289905260ff881692820192909252606081018690526080810185905260019060a0016020604051602081039080840390855afa158015611b17573d6000803e3d6000fd5b5050604051601f1901519150506001600160a01b038116611b4057600060019250925050611b47565b9150600090505b94509492505050565b6060843b611ba05760405162461bcd60e51b815260206004820152601d60248201527f416464726573733a2063616c6c20746f206e6f6e2d636f6e74726163740000006044820152606401610214565b600080866001600160a01b03168587604051611bbc9190612438565b60006040518083038185875af1925050503d8060008114611bf9576040519150601f19603f3d011682016040523d82523d6000602084013e611bfe565b606091505b5091509150611c0e828286611c19565b979650505050505050565b60608315611c285750816115f8565b825115611c385782518084602001fd5b8160405162461bcd60e51b815260040161021491906123c0565b600060208284031215611c6457600080fd5b81356001600160e01b0319811681146115f857600080fd5b600060208284031215611c8e57600080fd5b813563ffffffff811681146115f857600080fd5b6001600160a01b0381168114610d8a57600080fd5b60008060408385031215611cca57600080fd5b8235611cd581611ca2565b946020939093013593505050565b600060208284031215611cf557600080fd5b5035919050565b60008060408385031215611d0f57600080fd5b823591506020830135611d2181611ca2565b809150509250929050565b600080600060608486031215611d4157600080fd5b8335611d4c81611ca2565b92506020840135611d5c81611ca2565b929592945050506040919091013590565b600060208284031215611d7f57600080fd5b81356115f881611ca2565b60008060408385031215611d9d57600080fd5b8235611da881611ca2565b91506020830135611d2181611ca2565b60006101608284031215611dcb57600080fd5b50919050565b634e487b7160e01b600052604160045260246000fd5b600082601f830112611df857600080fd5b813567ffffffffffffffff80821115611e1357611e13611dd1565b604051601f8301601f19908116603f01168101908282118183101715611e3b57611e3b611dd1565b81604052838152866020858801011115611e5457600080fd5b836020870160208301376000602085830101528094505050505092915050565b60008060408385031215611e8757600080fd5b823567ffffffffffffffff80821115611e9f57600080fd5b611eab86838701611db8565b93506020850135915080821115611ec157600080fd5b50611ece85828601611de7565b9150509250929050565b60008060008060608587031215611eee57600080fd5b843560038110611efd57600080fd5b9350602085013567ffffffffffffffff80821115611f1a57600080fd5b818701915087601f830112611f2e57600080fd5b813581811115611f3d57600080fd5b886020828501011115611f4f57600080fd5b95986020929092019750949560400135945092505050565b600080600060608486031215611f7c57600080fd5b833567ffffffffffffffff811115611f9357600080fd5b611f9f86828701611db8565b9660208601359650604090950135949350505050565b60005b83811015611fd0578181015183820152602001611fb8565b50506000910152565b60008151808452611ff1816020860160208601611fb5565b601f01601f19169290920160200192915050565b6040815260006120186040830185611fd9565b90508260208301529392505050565b634e487b7160e01b600052601160045260246000fd5b808201808211156106cd576106cd612027565b6000808335601e1984360301811261206757600080fd5b83018035915067ffffffffffffffff82111561208257600080fd5b60200191503681900382131561177e57600080fd5b8183823760009101908152919050565b600060018060a01b03808f1683528d60208401528c60408401528b60608401528a60808401528960a08401528860c08401528760e084015286610100840152856101208401528085166101408401525061018061016083015261210e610180830184611fd9565b9e9d5050505050505050505050505050565b60006020828403121561213257600080fd5b5051919050565b818103818111156106cd576106cd612027565b6000808585111561215c57600080fd5b8386111561216957600080fd5b5050820193919092039150565b6000806000806080858703121561218c57600080fd5b843561219781611ca2565b93506020850135925060408501359150606085013567ffffffffffffffff8111156121c157600080fd5b6121cd87828801611de7565b91505092959194509250565b80820281158282048414176106cd576106cd612027565b600181815b8085111561222b57816000190482111561221157612211612027565b8085161561221e57918102915b93841c93908002906121f5565b509250929050565b600082612242575060016106cd565b8161224f575060006106cd565b8160018114612265576002811461226f5761228b565b60019150506106cd565b60ff84111561228057612280612027565b50506001821b6106cd565b5060208310610133831016604e8410600b84101617156122ae575081810a6106cd565b6122b883836121f0565b80600019048211156122cc576122cc612027565b029392505050565b60006115f860ff841683612233565b60008261230057634e487b7160e01b600052601260045260246000fd5b500490565b6000806000806080858703121561231b57600080fd5b843561232681611ca2565b9350602085013561233681611ca2565b93969395505050506040820135916060013590565b7f416363657373436f6e74726f6c3a206163636f756e7420000000000000000000815260008351612383816017850160208801611fb5565b7001034b99036b4b9b9b4b733903937b6329607d1b60179184019182015283516123b4816028840160208801611fb5565b01602801949350505050565b6020815260006115f86020830184611fd9565b6000602082840312156123e557600080fd5b815180151581146115f857600080fd5b634e487b7160e01b600052602160045260246000fd5b634e487b7160e01b600052603260045260246000fd5b60008161243057612430612027565b506000190190565b6000825161244a818460208701611fb5565b919091019291505056fea2646970667358221220cc87c1ca27e10a3761fc462af08e841c5485d8ad06176cf136a59ef17fb27e0764736f6c63430008110033",
  "linkReferences": {},
  "deployedLinkReferences": {}
}