{
  "_format": "hh-sol-artifact-1",
  "contractName": "WalletFactory",
  "sourceName": "contracts/base/WalletFactory.sol",
  "abi": [
    {
      "inputs": [
        {
          "internalType": "address",
          "name": "_walletImplementation",
          "type": "address"
        }
      ],
      "stateMutability": "nonpayable",
      "type": "constructor"
    },
    {
      "anonymous": false,
      "inputs": [
        {
          "indexed": true,
          "internalType": "address",
          "name": "operator",
          "type": "address"
        }
      ],
      "name": "OperatorAdded",
      "type": "event"
    },
    {
      "anonymous": false,
      "inputs": [
        {
          "indexed": true,
          "internalType": "address",
          "name": "operator",
          "type": "address"
        }
      ],
      "name": "OperatorRemoved",
      "type": "event"
    },
    {
      "anonymous": false,
      "inputs": [
        {
          "indexed": true,
          "internalType": "address",
          "name": "previousOwner",
          "type": "address"
        },
        {
          "indexed": true,
          "internalType": "address",
          "name": "newOwner",
          "type": "address"
        }
      ],
      "name": "OwnershipTransferred",
      "type": "event"
    },
    {
      "anonymous": false,
      "inputs": [
        {
          "indexed": false,
          "internalType": "address",
          "name": "wallet",
          "type": "address"
        },
        {
          "indexed": false,
          "internalType": "address",
          "name": "owner",
          "type": "address"
        }
      ],
      "name": "WalletCreated",
      "type": "event"
    },
    {
      "inputs": [],
      "name": "CREATE_WALLET_TYPEHASH",
      "outputs": [
        {
          "internalType": "bytes32",
          "name": "",
          "type": "bytes32"
        }
      ],
      "stateMutability": "view",
      "type": "function"
    },
    {
      "inputs": [],
      "name": "DOMAIN_SEPARATOR",
      "outputs": [
        {
          "internalType": "bytes32",
          "name": "",
          "type": "bytes32"
        }
      ],
      "stateMutability": "view",
      "type": "function"
    },
    {
      "inputs": [],
      "name": "WALLET_CREATION",
      "outputs": [
        {
          "internalType": "string",
          "name": "",
          "type": "string"
        }
      ],
      "stateMutability": "view",
      "type": "function"
    },
    {
      "inputs": [
        {
          "internalType": "address",
          "name": "operator",
          "type": "address"
        }
      ],
      "name": "addOperator",
      "outputs": [],
      "stateMutability": "nonpayable",
      "type": "function"
    },
    {
      "inputs": [
        {
          "internalType": "address",
          "name": "owner",
          "type": "address"
        },
        {
          "internalType": "uint256",
          "name": "salt",
          "type": "uint256"
        }
      ],
      "name": "computeWalletAddress",
      "outputs": [
        {
          "internalType": "address",
          "name": "",
          "type": "address"
        }
      ],
      "stateMutability": "view",
      "type": "function"
    },
    {
      "inputs": [
        {
          "internalType": "address",
          "name": "owner",
          "type": "address"
        },
        {
          "internalType": "uint256",
          "name": "salt",
          "type": "uint256"
        }
      ],
      "name": "computeWalletSalt",
      "outputs": [
        {
          "internalType": "bytes32",
          "name": "",
          "type": "bytes32"
        }
      ],
      "stateMutability": "pure",
      "type": "function"
    },
    {
      "inputs": [
        {
          "components": [
            {
              "internalType": "address",
              "name": "owner",
              "type": "address"
            },
            {
              "internalType": "address[]",
              "name": "guardians",
              "type": "address[]"
            },
            {
              "internalType": "uint256",
              "name": "quota",
              "type": "uint256"
            },
            {
              "internalType": "address",
              "name": "inheritor",
              "type": "address"
            },
            {
              "internalType": "address",
              "name": "feeRecipient",
              "type": "address"
            },
            {
              "internalType": "address",
              "name": "feeToken",
              "type": "address"
            },
            {
              "internalType": "uint256",
              "name": "maxFeeAmount",
              "type": "uint256"
            },
            {
              "internalType": "uint256",
              "name": "salt",
              "type": "uint256"
            },
            {
              "internalType": "bytes",
              "name": "signature",
              "type": "bytes"
            }
          ],
          "internalType": "struct WalletFactory.WalletConfig",
          "name": "config",
          "type": "tuple"
        },
        {
          "internalType": "uint256",
          "name": "feeAmount",
          "type": "uint256"
        }
      ],
      "name": "createWallet",
      "outputs": [
        {
          "internalType": "address",
          "name": "wallet",
          "type": "address"
        }
      ],
      "stateMutability": "nonpayable",
      "type": "function"
    },
    {
      "inputs": [
        {
          "components": [
            {
              "internalType": "address",
              "name": "owner",
              "type": "address"
            },
            {
              "internalType": "address",
              "name": "initOwner",
              "type": "address"
            },
            {
              "internalType": "address[]",
              "name": "guardians",
              "type": "address[]"
            },
            {
              "internalType": "uint256",
              "name": "quota",
              "type": "uint256"
            },
            {
              "internalType": "address",
              "name": "inheritor",
              "type": "address"
            },
            {
              "internalType": "address",
              "name": "feeRecipient",
              "type": "address"
            },
            {
              "internalType": "address",
              "name": "feeToken",
              "type": "address"
            },
            {
              "internalType": "uint256",
              "name": "maxFeeAmount",
              "type": "uint256"
            },
            {
              "internalType": "uint256",
              "name": "salt",
              "type": "uint256"
            }
          ],
          "internalType": "struct WalletFactory.WalletConfigV2",
          "name": "config",
          "type": "tuple"
        },
        {
          "internalType": "uint256",
          "name": "feeAmount",
          "type": "uint256"
        }
      ],
      "name": "createWalletByOperator",
      "outputs": [
        {
          "internalType": "address",
          "name": "wallet",
          "type": "address"
        }
      ],
      "stateMutability": "nonpayable",
      "type": "function"
    },
    {
      "inputs": [],
      "name": "getWalletCode",
      "outputs": [
        {
          "internalType": "bytes",
          "name": "",
          "type": "bytes"
        }
      ],
      "stateMutability": "view",
      "type": "function"
    },
    {
      "inputs": [
        {
          "internalType": "address",
          "name": "addr",
          "type": "address"
        }
      ],
      "name": "isOperator",
      "outputs": [
        {
          "internalType": "bool",
          "name": "",
          "type": "bool"
        }
      ],
      "stateMutability": "view",
      "type": "function"
    },
    {
      "inputs": [],
      "name": "numOperators",
      "outputs": [
        {
          "internalType": "uint256",
          "name": "",
          "type": "uint256"
        }
      ],
      "stateMutability": "view",
      "type": "function"
    },
    {
      "inputs": [],
      "name": "operators",
      "outputs": [
        {
          "internalType": "address[]",
          "name": "",
          "type": "address[]"
        }
      ],
      "stateMutability": "view",
      "type": "function"
    },
    {
      "inputs": [],
      "name": "owner",
      "outputs": [
        {
          "internalType": "address",
          "name": "",
          "type": "address"
        }
      ],
      "stateMutability": "view",
      "type": "function"
    },
    {
      "inputs": [
        {
          "internalType": "address",
          "name": "operator",
          "type": "address"
        }
      ],
      "name": "removeOperator",
      "outputs": [],
      "stateMutability": "nonpayable",
      "type": "function"
    },
    {
      "inputs": [],
      "name": "renounceOwnership",
      "outputs": [],
      "stateMutability": "nonpayable",
      "type": "function"
    },
    {
      "inputs": [
        {
          "internalType": "address",
          "name": "newOwner",
          "type": "address"
        }
      ],
      "name": "transferOwnership",
      "outputs": [],
      "stateMutability": "nonpayable",
      "type": "function"
    },
    {
      "inputs": [],
      "name": "walletImplementation",
      "outputs": [
        {
          "internalType": "address",
          "name": "",
          "type": "address"
        }
      ],
      "stateMutability": "view",
      "type": "function"
    }
  ],
  "bytecode": "0x60c06040523480156200001157600080fd5b5060405162001ebc38038062001ebc833981016040819052620000349162000150565b6001600160a01b0381166080908152600080546001600160a01b031916331790556040805160a081018252600d606082019081526c57616c6c6574466163746f727960981b938201939093529182528051808201825260058152640322e302e360dc1b602082810191909152808401919091523091830191909152620000c4919062000982620000ce821b17901c565b60a0525062000182565b805180516020918201208183015180519083012060409384015184517f8b73c3c69bb8fe3d512ecc4cf759cc79239f7b179b0ffacaa9a75d522b39400f818601528086019390935260608301919091524660808301526001600160a01b031660a0808301919091528351808303909101815260c0909101909252815191012090565b6000602082840312156200016357600080fd5b81516001600160a01b03811681146200017b57600080fd5b9392505050565b60805160a051611d06620001b66000396000818161012c0152610e080152600081816101f301526107860152611d066000f3fe60806040523480156200001157600080fd5b5060043610620001215760003560e01c80639870d7fe11620000af578063ce158612116200007a578063ce15861214620002ec578063d70e20001462000303578063d92d1f56146200030d578063e673df8a1462000324578063f2fde38b146200033d57600080fd5b80639870d7fe1462000267578063ac8a584a146200027e578063b6830d8f1462000295578063bd82068814620002ac57600080fd5b8063715018a611620000f0578063715018a614620001e15780638117abc114620001ed5780638da5cb5b146200021557806390610b0e146200022957600080fd5b80633644e51514620001265780634c30d6c914620001615780635b29128f14620001895780636d70f7ae14620001b9575b600080fd5b6200014e7f000000000000000000000000000000000000000000000000000000000000000081565b6040519081526020015b60405180910390f35b6200014e7f4392cdd6c9d91e0896c5def13bad6473db5d21e2b0def85ab8c2475c3e60d14c81565b620001a06200019a366004620016c3565b62000354565b6040516001600160a01b03909116815260200162000158565b620001d0620001ca36600462001729565b62000570565b604051901515815260200162000158565b620001eb620005b1565b005b620001a07f000000000000000000000000000000000000000000000000000000000000000081565b600054620001a0906001600160a01b031681565b620002586040518060400160405280600f81526020016e2ba0a62622aa2fa1a922a0aa24a7a760891b81525081565b6040516200015891906200179b565b620001eb6200027836600462001729565b62000628565b620001eb6200028f36600462001729565b62000663565b6200014e620002a6366004620017b0565b620006e2565b60008051602062001cb183398151915260005260016020527fc57586a1ce5b766b3947a214bb396289fde9dce9bbf0dd15355e79ddc42fd129546200014e565b620001a0620002fd366004620017b0565b62000745565b620002586200075b565b620001a06200031e366004620016c3565b620007e8565b6200032e62000897565b604051620001589190620017dd565b620001eb6200034e36600462001729565b620008b3565b6000620003613362000570565b620003895760405162461bcd60e51b815260040162000380906200182c565b60405180910390fd5b8260e00135821115620003d45760405162461bcd60e51b81526020600482015260126024820152711253959053125117d1915157d05353d5539560721b604482015260640162000380565b6000620003e5602085018562001729565b6001600160a01b0316036200042d5760405162461bcd60e51b815260206004820152600d60248201526c24a72b20a624a22fa7aba722a960991b604482015260640162000380565b6200044f62000443604085016020860162001729565b84610100013562000a04565b90506001600160a01b03811663d6bb65c26200046f602086018662001729565b6200047e604087018762001871565b60608801356200049560a08a0160808b0162001729565b620004a760c08b0160a08c0162001729565b620004b960e08c0160c08d0162001729565b8a6040518963ffffffff1660e01b8152600401620004df989796959493929190620018c5565b600060405180830381600087803b158015620004fa57600080fd5b505af11580156200050f573d6000803e3d6000fd5b507f5b03bfed1c14a02bdeceb5fa582eb1a5765fc0bc64ca0e6af4c20afc9487f0819250839150620005479050602086018662001729565b604080516001600160a01b0393841681529290911660208301520160405180910390a192915050565b6001600160a01b03811660009081527fc57586a1ce5b766b3947a214bb396289fde9dce9bbf0dd15355e79ddc42fd128602052604081205415155b92915050565b6000546001600160a01b03163314620005de5760405162461bcd60e51b8152600401620003809062001945565b600080546040516001600160a01b03909116907f8be0079c531659141344cd1fd0a4f28419497f9722a3daafe3b4186f6b6457e0908390a3600080546001600160a01b0319169055565b6000546001600160a01b03163314620006555760405162461bcd60e51b8152600401620003809062001945565b620006608162000a26565b50565b6000546001600160a01b03163314620006905760405162461bcd60e51b8152600401620003809062001945565b620006ab60008051602062001cb18339815191528262000a7a565b6040516001600160a01b038216907f80c0b871b97b595b16a7741c1b06fed0c6f6f558639f18ccbce50724325dc40d90600090a250565b60006040518060400160405280600f81526020016e2ba0a62622aa2fa1a922a0aa24a7a760891b815250838360405160200162000722939291906200196b565b60405160208183030381529060405280519060200120905092915050565b905090565b60006200075483833062000bfe565b9392505050565b6060604051806020016200076f906200169b565b601f1982820381018352601f9091011660408181527f00000000000000000000000000000000000000000000000000000000000000006001600160a01b031660208301520160408051601f1981840301815290829052620007d49291602001620019ac565b604051602081830303815290604052905090565b6000620007f53362000570565b620008145760405162461bcd60e51b815260040162000380906200182c565b8260c001358211156200085f5760405162461bcd60e51b81526020600482015260126024820152711253959053125117d1915157d05353d5539560721b604482015260640162000380565b6200086a8362000c88565b620008886200087d602085018562001729565b8460e0013562000a04565b9050620005ab81848462000ed9565b60606200074060008051602062001cb183398151915262000ff7565b6000546001600160a01b03163314620008e05760405162461bcd60e51b8152600401620003809062001945565b6001600160a01b038116620009275760405162461bcd60e51b815260206004820152600c60248201526b5a45524f5f4144445245535360a01b604482015260640162000380565b600080546040516001600160a01b03808516939216917f8be0079c531659141344cd1fd0a4f28419497f9722a3daafe3b4186f6b6457e091a3600080546001600160a01b0319166001600160a01b0392909216919091179055565b805180516020918201208183015180519083012060409384015184517f8b73c3c69bb8fe3d512ecc4cf759cc79239f7b179b0ffacaa9a75d522b39400f818601528086019390935260608301919091524660808301526001600160a01b031660a0808301919091528351808303909101815260c0909101909252815191012090565b60006200075462000a168484620006e2565b62000a206200075b565b620010bd565b62000a4360008051602062001cb183398151915282600162001115565b6040516001600160a01b038216907fac6fa858e9350a46cec16539926e0fde25b7629f84b5a72bffaae4df888ae86d90600090a250565b60008281526001602081815260408084206001600160a01b0386168552928301909152822054909181900362000ae05760405162461bcd60e51b815260206004820152600a6024820152691393d517d25397d4d15560b21b604482015260640162000380565b6001600160a01b03831660009081526001808401602052604082208290556002840180549192909162000b15908490620019f5565b909155505081541562000bf85760008260000183600201548154811062000b405762000b4062001a0b565b6000918252602090912001546001600160a01b0390811691508416811462000bc057808362000b71600185620019f5565b8154811062000b845762000b8462001a0b565b600091825260208083209190910180546001600160a01b0319166001600160a01b03948516179055918316815260018501909152604090208290555b825483908062000bd45762000bd462001a21565b600082815260209020810160001990810180546001600160a01b0319169055019055505b50505050565b600062000c8062000c108585620006e2565b62000c1a6200075b565b8051602091820120604080516001600160f81b0319818501526bffffffffffffffffffffffff19606089901b166021820152603581019490945260558085019290925280518085039092018252607590930190925281519101206001600160a01b031690565b949350505050565b600062000c99602083018362001729565b6001600160a01b03160362000ce15760405162461bcd60e51b815260206004820152600d60248201526c24a72b20a624a22fa7aba722a960991b604482015260640162000380565b60007f4392cdd6c9d91e0896c5def13bad6473db5d21e2b0def85ab8c2475c3e60d14c62000d13602084018462001729565b62000d22602085018562001871565b60405160200162000d3592919062001a37565b60405160208183030381529060405280519060200120846040013585606001602081019062000d65919062001729565b62000d7760a088016080890162001729565b62000d8960c0890160a08a0162001729565b6040805160208101989098526001600160a01b039687169088015260608701949094526080860192909252831660a0850152821660c084810191909152911660e0838101919091529084013561010083015283013561012082015261014001604051602081830303815290604052805190602001209050600062000e2e7f00000000000000000000000000000000000000000000000000000000000000008362001290565b905062000e9262000e43602085018562001729565b62000e5361010086018662001a7b565b8080601f016020809104026020016040519081016040528093929190818152602001838380828437600092019190915250869493925050620012c39050565b62000ed45760405162461bcd60e51b8152602060048201526011602482015270494e56414c49445f5349474e415455524560781b604482015260640162000380565b505050565b6001600160a01b03831663d6bb65c262000ef7602085018562001729565b62000f06602086018662001871565b604087013562000f1d6080890160608a0162001729565b62000f2f60a08a0160808b0162001729565b62000f4160c08b0160a08c0162001729565b896040518963ffffffff1660e01b815260040162000f67989796959493929190620018c5565b600060405180830381600087803b15801562000f8257600080fd5b505af115801562000f97573d6000803e3d6000fd5b507f5b03bfed1c14a02bdeceb5fa582eb1a5765fc0bc64ca0e6af4c20afc9487f081925085915062000fcf9050602085018562001729565b604080516001600160a01b0393841681529290911660208301520160405180910390a1505050565b6000818152600160205260409020805460028201546060929114620010505760405162461bcd60e51b815260206004820152600e60248201526d1393d517d350525395105253915160921b604482015260640162000380565b60008381526001602090815260409182902080548351818402810184019094528084529091830182828015620010b057602002820191906000526020600020905b81546001600160a01b0316815260019091019060200180831162001091575b5050505050915050919050565b600080838351602085016000f590506001600160a01b038116620007545760405162461bcd60e51b815260206004820152600e60248201526d10d4915055114c97d1905253115160921b604482015260640162000380565b60008381526001602081815260408084206001600160a01b038716855292830190915290912054156200117c5760405162461bcd60e51b815260206004820152600e60248201526d1053149150511657d25397d4d15560921b604482015260640162000380565b81156200120a576002810154815414620011d95760405162461bcd60e51b815260206004820152601960248201527f50524556494f55534c595f4e4f545f4d41494e5441494c454400000000000000604482015260640162000380565b80546001810182556000828152602090200180546001600160a01b0319166001600160a01b0385161790556200124b565b8054156200124b5760405162461bcd60e51b815260206004820152600d60248201526c26aaa9aa2fa6a0a4a72a20a4a760991b604482015260640162000380565b600181600201600082825462001262919062001ac5565b909155505060028101546001600160a01b039093166000908152600190910160205260409020919091555050565b600060405180604001604052806002815260200161190160f01b8152508383604051602001620007229392919062001adb565b60006001600160a01b038316620012dd5750600062000754565b620012f1836001600160a01b031662001316565b6200130957620013038484846200134e565b62000c80565b62000c808484846200148a565b6000813f80158015906200075457507fc5d2460186f7233c927e7db2dcc703c0e500b653ca82273b7bfad8045d85a470141592915050565b60006001600160a01b038316620013685750600062000754565b8151604114806200137a575081516042145b620013c85760405162461bcd60e51b815260206004820152601860248201527f494e56414c49445f5349474e41545552455f4c454e4754480000000000000000604482015260640162000380565b60008251604203620013dc57506041825260015b620013e8858462001586565b6001600160a01b0316846001600160a01b03161491508162001476576040517f19457468657265756d205369676e6564204d6573736167653a0a3332000000006020820152603c8101869052600090605c016040516020818303038152906040528051906020012090506200145e818562001586565b6001600160a01b0316856001600160a01b0316149250505b80156200148257604283525b509392505050565b600080631626ba7e60e01b8584604051602401620014aa92919062001b04565b604051602081830303815290604052906001600160e01b0319166020820180516001600160e01b0383818316178352505050509050600080856001600160a01b031683604051620014fc919062001b1f565b600060405180830381855afa9150503d806000811462001539576040519150601f19603f3d011682016040523d82523d6000602084013e6200153e565b606091505b509150915081801562001552575080516020145b80156200157b5750630b135d3f60e11b6200156f82600062001675565b6001600160e01b031916145b979650505050505050565b600081516041146200159b57506000620005ab565b60208201516040830151604184015160ff167f7fffffffffffffffffffffffffffffff5d576e7357a4501ddfe92f46681b20a0821115620015e35760009350505050620005ab565b8060ff16601b1480620015f957508060ff16601c145b15620016685760408051600081526020810180835288905260ff831691810191909152606081018490526080810183905260019060a0016020604051602081039080840390855afa15801562001653573d6000803e3d6000fd5b505050602060405103519350505050620005ab565b60009350505050620005ab565b60006200168482600462001ac5565b835110156200169257600080fd5b50016020015190565b6101738062001b3e83390190565b60006101208284031215620016bd57600080fd5b50919050565b60008060408385031215620016d757600080fd5b823567ffffffffffffffff811115620016ef57600080fd5b620016fd85828601620016a9565b95602094909401359450505050565b80356001600160a01b03811681146200172457600080fd5b919050565b6000602082840312156200173c57600080fd5b62000754826200170c565b60005b83811015620017645781810151838201526020016200174a565b50506000910152565b600081518084526200178781602086016020860162001747565b601f01601f19169290920160200192915050565b6020815260006200075460208301846200176d565b60008060408385031215620017c457600080fd5b620017cf836200170c565b946020939093013593505050565b6020808252825182820181905260009190848201906040850190845b81811015620018205783516001600160a01b031683529284019291840191600101620017f9565b50909695505050505050565b60208082526025908201527f444953414c4c4f5745445f4f4e5f494d504c454d454e544154494f4e5f434f4e60408201526415149050d560da1b606082015260800190565b6000808335601e198436030181126200188957600080fd5b83018035915067ffffffffffffffff821115620018a557600080fd5b6020019150600581901b3603821315620018be57600080fd5b9250929050565b6001600160a01b03898116825260e060208084018290529083018990526000918a916101008501845b8c81101562001917578362001903866200170c565b1682529382019390820190600101620018ee565b50604086019a909a5250968716606084015250509284166080840152921660a082015260c001529392505050565b6020808252600c908201526b15539055551213d49256915160a21b604082015260600190565b600084516200197f81846020890162001747565b60609490941b6bffffffffffffffffffffffff191691909301908152601481019190915260340192915050565b60008351620019c081846020880162001747565b835190830190620019d681836020880162001747565b01949350505050565b634e487b7160e01b600052601160045260246000fd5b81810381811115620005ab57620005ab620019df565b634e487b7160e01b600052603260045260246000fd5b634e487b7160e01b600052603160045260246000fd5b60008184825b8581101562001a70576001600160a01b0362001a59836200170c565b168352602092830192919091019060010162001a3d565b509095945050505050565b6000808335601e1984360301811262001a9357600080fd5b83018035915067ffffffffffffffff82111562001aaf57600080fd5b602001915036819003821315620018be57600080fd5b80820180821115620005ab57620005ab620019df565b6000845162001aef81846020890162001747565b91909101928352506020820152604001919050565b82815260406020820152600062000c8060408301846200176d565b6000825162001b3381846020870162001747565b919091019291505056fe608060405234801561001057600080fd5b5060405161017338038061017383398101604081905261002f916100ba565b6001600160a01b0381166100955760405162461bcd60e51b8152602060048201526024808201527f496e76616c6964206d617374657220636f707920616464726573732070726f766044820152631a59195960e21b606482015260840160405180910390fd5b600080546001600160a01b0319166001600160a01b03929092169190911790556100ea565b6000602082840312156100cc57600080fd5b81516001600160a01b03811681146100e357600080fd5b9392505050565b607b806100f86000396000f3fe6080604052600080546001600160a01b0316632cf35bc960e11b823501602757808252602082f35b3682833781823684845af490503d82833e806040573d82fd5b503d81f3fea2646970667358221220da4cf078bbdca11af9e5de14e53ae1d9557198ec8038699ea3823c05f54d1f4764736f6c63430008110033e63c388d4543ca9e94c981423c48d71e347af88fa97254eee172e5d43f973b05a264697066735822122073a9f9c788134262c84d994a9eb275bcb2adbdb990522ca24359f62417a46be564736f6c63430008110033",
  "linkReferences": {},
  "deployedLinkReferences": {}
}